S01C0000424C5545544F4F54485F5032505F5345525645522E73726563EB
S214400000F82440206D094000690940006909400015
S2144000106909400069094000690940000000000085
S21440002000000000000000000000000069094000D9
S214400030690940000000000069094000CD0B4000FF
S21440004069094000690940006909400069094000A3
S2144000506909400069094000690940006909400093
S214400060690940000000000091074000A5074000D5
S214400070B9074000D90D40006909400069094000B1
S214400080CD074000E107400069094000690940008B
S2144000906909400069094000690940006909400053
S2144000A06909400069094000690940006909400043
S2144000B06909400069094000690940006909400033
S2144000C06909400069094000690940006909400023
S2144000D00000000069094000000000006909400077
S2144000E06909400069094000690940006909400003
S2144000F069094000690940006909400069094000F3
S21440010069094000690940006909400069094000E2
S21440011069094000000000000000000000000000E8
S21440012069094000690940006909400069094000C2
S2144001306909400000000000690940006909400064
S21440014010B5054C237833B9044B13B10448AFF3CC
S21440015000800123237010BD3C04402000000000B6
S214400160E01240000C4B43B10C480D4910B5AFF3BC
S21440017000800C48036823B910BD0A48036833B9A9
S2144001807047094B002BF7D0BDE810401847064B88
S214400190002BF5D0184700BF00000000E0124000DA
S2144001A040044020E01240000000000010B40B0164
S2144001B0934214D9C9004B0803EBC202B2FBF1F2DA
S2144001C0D3085C1E4FF6FE718C4201D9012017E021
S2144001D0416841F4002141600CE0012010E05908DC
S2144001E001EBC202B2FBF3F2D3085C1E4FF6FE717F
S2144001F08C42F2D8120402F4E0221A430262002033
S2144002005DF8044B70470000084BC0F8E43000230C
S21440021043604362836288230360242303604FF471
S214400220807303604FF400230360704700415355CA
S21440023070B505460C4616460F4B984700220F4BA6
S2144002401A60A4B13246216828460D4B98470246AC
S21440025078B96368A1680B4321690B43E1680B4397
S21440026006490B6069680B436B60104670BD0122FF
S214400270FBE70122F9E700BF09024000580440208E
S214400280AD01400040230360704710230360704771
S21440029081607047436913F0020F04D0C1F3080130
S2144002A0C1610020704701207047436913F0010F79
S2144002B005D08369C3F308030B6000207047012014
S2144002C070470000002A54D02DE9F84F9246064663
S2144002D00F468A44DFF8B880274DDFF8B89006E02E
S2144002E021464046A8470028FAD1BA453ED017F8DE
S2144002F0014B4645F4D04E4516D0204B9E4219D071
S2144003001F4B9E421CD01F4B9E421FD01E4B9E42F0
S21440031024D01E4B9E42E8D1DFF87CB021461B48D5
S214400320D8470028FAD1E0E721464846A8470028A3
S214400330FAD1DAE721461148A8470028FAD1D4E78F
S21440034021460F48A8470028FAD1CEE7DFF848B044
S21440035021460C48D8470028FAD1C6E7DFF838B01F
S21440036021460948D8470028FAD1BEE70020BDE814
S214400370F88F0020704700BF9D034000001A0E40D3
S214400380001C0E40004002400080024000C0024078
S21440039000080E40000A0E4095024000436913F0E4
S2144003A0020F02D0C1610020704701207047000054
S2144003B010B51048104B98473E2100200F4B9847E9
S2144003C00F4CA0470028FCD00E4B98470E4A0F4BC8
S2144003D09A620F4CA0470028FCD002200D4B98474D
S2144003E000200D4B98470D4B98470248024B9847C4
S2144003F010BD00BF00A3E111410B40009108400032
S214400400E5084000F5084000013F182000060E4071
S21440041005094000F50740002D084000350A400019
S214400420F8B54FF400425C4B5A60BFF34F8FBFF3B2
S2144004306F8F5A4B0022C3F850225A6942F400325A
S2144004405A61BFF34F8FBFF36F8FD3F88070C7F3F7
S2144004504E3607F007000430C7F3C907B7FA87FEE1
S2144004600EF01F0EBFF34F8F4FF0FF3404FA00FC20
S21440047006FA00F004FA0EF407FA0EFE1D463A4657
S214400480734640EA0301C5F86012013A2344B2F1CC
S214400490FF3FF6D1013E6044B6F1FF3FEFD1BFF3D8
S2144004A04F8F3E4B5A6942F480325A61BFF34F8FAA
S2144004B0BFF36F8F3A4A3B495160A1F58071516056
S2144004C0BFF34F8FBFF36F8FD3F8902222F0010215
S2144004D0C3F89022D3F8942222F00102C3F8942263
S2144004E0BFF34F8FBFF36F8F0A202F4CA0470B20D0
S2144004F0A0470C20A0471020A0471120A0472B4B18
S2144005004FF480721A61C3F8A0201A63A3F5806383
S2144005104FF400625A61C3F8A0205A66C3F8902090
S2144005205A651A62C3F88420196F21F4006119676E
S214400530596F21F400615967C3F8C020C3F8D4202E
S214400540C3F8B0204FF400121A66C3F890205A65DC
S2144005505A62C3F88020196F21F400111967596F49
S21440056021F4001159675A60114AD2F8143143F009
S2144005701003C2F814310F4B10221A66C3F89020AD
S2144005805A655A62C3F88020196F11431967596F2C
S214400590114359675A60F8BD50180E4000ED00E010
S2144005A0000C0E400C08005A1509400000120E4080
S2144005B00080084000100E404264B1F1C05F3AD05F
S2144005C013D8B1F1006F25D0B1F1805F0AD1036F27
S2144005D013430367436F416F0B4023EA02034367AD
S2144005E0426070470029FBD17047B1F1205F21D0AF
S2144005F009D8B1F1005FF3D1036F13430367436F2C
S21440060013434367ECE7B1F1405F13D0B1F1605F4D
S21440061010D0E5E710B4016F046FD34321401C4669
S21440062019400167436F416F0B4023404367426068
S2144006305DF8044B7047036F016F0B4023EA0203DB
S2144006400367436F13434367CAE7416412F0010FE1
S2144006500DD1016612F00A0F0BD0016212F0020FA4
S21440066009D112F0080F08D0C0F8841005E04166A2
S214400670F0E74162F2E7C0F88010416101607047E0
S21440068010B4019C41644CB901664BB101654AB94E
S2144006904163016101605DF8044B70474166F4E7D1
S2144006A04165F4E70163F4E770B582B00546164647
S2144006B01C46B1F1005F14D00AD9B1F1405F24D096
S2144006C0B1F1605F21D0B1F1205F17D000201AE071
S2144006D0B1F1805F05D0B1F1C05F02D0B1F1006FDB
S2144006E0F4D132462846114B984714F0010F02D1F8
S2144006F02E66012007E06E66012004E01A46314669
S2144007000B4B9847012002B070BD04F001030093E4
S214400710C4F38003B1F1605F14BF0022012231466A
S2144007202846044CA0470120EDE700BFB90540002D
S2144007304B06400081064000C06C7047806C704796
S2144007402DE9F041044688460E4B9847054620461C
S2144007500D4B9847054013D00C4C04F1600603E05F
S214400760B4420DD010345DB120684045F8D1616880
S2144007702942F5D0E3689847636825EA0305EFE722
S214400780BDE8F081390740003D0740005C0440204A
S21440079008B50A210148024B984708BD000E0E4096
S2144007A04107400008B50B210148024B984708BD59
S2144007B000100E404107400008B50C210148024B8E
S2144007C0984708BD00120E404107400008B510216A
S2144007D00148024B984708BD00140E4041074000B0
S2144007E008B511210148024B984708BD00160E4037
S2144007F041074000032811D0042812D002280CBF1D
S2144008004FF480710021084A136B23F440730B4366
S2144008101363936E13F0080FFBD070474FF440718C
S214400820F1E74FF40071EEE700060E40174A136BEF
S21440083023F0700318431063936E13F0080F0AD129
S2144008404FF4805311498A6E12F0080F03D1013BD2
S214400850F9D1012070470D4A136B23F0030343F090
S21440086002031363936E13F0080F0AD14FF48053BC
S21440087006498A6E12F0080F05D1013BF9D10120D6
S2144008807047002070470020704700BF00060E40AB
S214400890A0B90E48036A090289B20D4A1A400D4BA8
S2144008A01343194301620246936E13F0010FFBD0C7
S2144008B0064A116A084B0B431362704703490B6A9A
S2144008C0064A1A40064B13430B62704700060E401A
S2144008D0FCFFC8FF0100370000003701FCFFC8FEE0
S2144008E002003701024B986E00F48030704700BF1C
S2144008F000060E404FF00052014B9A62704700BF10
S21440090000060E40024B986E00F00200704700BF93
S21440091000060E403F281ED81F280CD8114B9A6957
S21440092001238340934318D0012303FA00F00D4B74
S21440093018610020704720380A4BD3F8082101235D
S214400940834093430BD0012303FA00F0054BC3F8D2
S21440095000010020704701207047002070470020AB
S214400960704700BF00060E40FEE7000000B583B0AB
S214400970254B264A9A4210D0254B234A9A420CD2FF
S214400980013B9B1A23F00303043313441F4951F8D9
S214400990040B42F8040B9A42F9D11E4B1E4A9A4267
S2144009A00AD2013B9B1A23F003030433134400216D
S2144009B042F8041B9342FBD1184A194B23F07F039D
S2144009C09360EFF31083B3FA83F35B09019372B637
S2144009D0BFF35F8F0022134B1A700199124A1368B7
S2144009E043F470031360BFF34F8FBFF36F8F29B18B
S2144009F001220C4B1A70BFF35F8F62B60B4B9847C1
S214400A000B4B9847FEE700BF00004020E012400036
S214400A103C044020F80440203C04402000ED00E028
S214400A20000040000000402088ED00E0A50F400098
S214400A30E50E40003B4B1B6B03F00303012B1DD020
S214400A4083B1022B36D0374B1B6B03F07003702BF1
S214400A505FD0344B1A6B3449C2F302120B68D34052
S214400A600B607047314B5B6913F0800F14BF4FF437
S214400A7000424FF4FA422C4B1A60E4E7294B1B6ABB
S214400A8013F0807F03D02A4A274B1A60DBE7294AB7
S214400A90254B1A60234B1B6A03F07003102B05D0BE
S214400AA0202BD0D1224A204B1A60CCE7224A1E4B3C
S214400AB01A60C8E71B4B1B6A13F0807F16D01C4A8F
S214400AC0194B1A60174B1B6B03F00303022BBAD16A
S214400AD0144A916A926A1448C1F30A41036801FBBA
S214400AE00333D2B2B3FBF2F30360ACE7114A0E4BCA
S214400AF01A600C4B1B6A03F07003102B05D0202B9A
S214400B00E0D10B4A084B1A60DCE70B4A064B1A60EA
S214400B10D8E7054A13680949A1FB03135B0813602D
S214400B20704700BF00060E400400402010180E40DC
S214400B30001BB70000093D0000127A00ABAAAAAA23
S214400B40164B984213D9164B984215D9154B9842D6
S214400B5016D9154B984217D9144B984218D9144BAE
S214400B60984294BF134A144A144B1A6070474FF089
S214400B708062124B1A607047114A104B1A607047D9
S214400B80104A0E4B1A6070470F4A0C4B1A6070475B
S214400B904FF00422094B1A60704700BFBFF35E0156
S214400BA07FE7BD023FDB1C04FFCE7B05BFC2DA06F3
S214400BB07FB639080005000400060004000C0E400D
S214400BC0000100040002000400030004024A136807
S214400BD001331360704700BFD004402038B5054647
S214400BE00C460846034B9847024621462846024B89
S214400BF0984738BD01104000C50240002DE9F04F2F
S214400C0085B001908B461F46104B1E6801F1FF3A97
S214400C1002F1FF3800241D46DFF834902B689B1BFA
S214400C20BB420BDA444509D003A90198C8470028BF
S214400C30F4D10134039B0AF8013FEFE700230BF899
S214400C400430204605B0BDE8F08F00BFD0044020F9
S214400C50AB02400070B504460D4616461946044B96
S214400C609847049B324629462046024CA04770BD12
S214400C70DD0B4000FD0B4000F8B507460E46094D1B
S214400C8009492846094CA04739462846A0470849FE
S214400C902846A04731462846A04706492846A0474A
S214400CA0F8BD00BF00800240B0124000DD0B40009F
S214400CB0B41240007412400070B586B04FF4E13371
S214400CC00093C02301934FF40063029300230393E1
S214400CD004930E20094B9847094C0A4A6946204619
S214400CE0094B98472046094EB0472046084DA8472E
S214400CF02046B0472046A84706B070BD15094000BC
S214400D000080024080D1F008310240008502400059
S214400D108B0240002DE9F0478AB04FF416510691F9
S214400D20C02207924FF4006308930025099500916E
S214400D3001920293039504950D201D4EB047DFF8AF
S214400D4088801C4C4246694620461B4FB847204682
S214400D50DFF878A0D0472046DFF87490C847204692
S214400D60D0472046C8470B20B047424606A92046F3
S214400D70B847DFF860802B4601224FF0C05140460E
S214400D800E4FB8472B4602224FF0C0514046B84758
S214400D900D20B04701212046094B9847094B202299
S214400DA083F80D234FF400521A600AB0BDE8F0876E
S214400DB0150940000040024031024000A9064000AC
S214400DC09102400000E100E080D1F008850240003A
S214400DD08B02400000100E4010B58EB04FF47A7370
S214400DE0362269461148124CA04712491248134B06
S214400DF09847134B1B780BB90EB010BD4FF47A735F
S214400E00362269460948A0470E4B834207D00E4912
S214400E1009480A4CA0470D490448A047ECE7012280
S214400E200B4B1A700022064B1A70E5E70040024052
S214400E30FD0B4000FC11400000800240DD0B4000EE
S214400E4008004020041240000812400020124000D3
S214400E50CC044020F0B5A3B01A4E1B4DC8270097CF
S214400E6033464FF47A7202A92846184CA04700979A
S214400E7033464FF47A7202A92846A0470097334675
S214400E804FF47A7202A92846A0474FF4C8760096D7
S214400E900F4B4FF47A7202A92846A04700960D4B96
S214400EA04FF47A7202A92846A04700960A4B4FF4A0
S214400EB07A7202A92846A04702A90848084B9847D4
S214400EC023B0F0BD2412400000400240550C4000C4
S214400ED02812400034124000441240005012400095
S214400EE0790C400000B5ADF2044D1B4B98471B4BA8
S214400EF098471B4B1B4A5A60E0211B4A82F8231036
S214400F0000269E6007221A60184B9847184D1949CC
S214400F102846194CA04719492846A047184B9847D9
S214400F20184B984718492846A047184B1E70012270
S214400F30174B1A70154C174E174D2378002BFCD0C4
S214400F404FF47A734FF4806269463046A847694644
S214400F501248134B9847F0E721044000B103400085
S214400F6010E000E0DF93040000ED00E0B90C400024
S214400F700080024064124000DD0B400078124000C2
S214400F80150D4000550E400090124000CC04402005
S214400F900800402000400240FD0B4000A8124000E0
S214400FA0790C400070B50F4E0F4D761BB61018BF2B
S214400FB0002405D0013455F8043B9847A642F9D1A1
S214400FC00A4E0B4D761B00F079F9B61018BF002478
S214400FD006D0013455F8043B9847A642F9D170BD77
S214400FE070BD00BFC8124000C8124000D01240007A
S214400FF0C812400000000000000000000000000092
S21440100090F800F06DE9024520F007016FF0000C03
S21440101010F0070491F820F040F049804FF00004AB
S2144010206FF00700D1E9002391F840F000F1080086
S21440103082FA4CF2A4FA8CF283FA4CF3A2FA8CF3BE
S2144010404BBBD1E9022382FA4CF200F10800A4FA25
S2144010508CF283FA4CF3A2FA8CF3E3B9D1E9042379
S21440106082FA4CF200F10800A4FA8CF283FA4CF3B0
S214401070A2FA8CF37BB9D1E9062301F1200182FA6A
S2144010804CF200F10800A4FA8CF283FA4CF3A2FA70
S2144010908CF3002BC6D0002A04BF04301A4612BA7E
S2144010A0B2FA82F2FDE8024500EBD2007047D1E981
S2144010B0002304F00305C4F100004FEAC50514F010
S2144010C0040F91F840F00CFA05F562EA05021CBFE1
S2144010D063EA050362464FF00004A9E7024B13B1EA
S2144010E0024800F005B8704700000000FD104000C0
S2144010F0002301461A46184600F01EB838B50A4C7A
S2144011000A4D641BA4100AD004F18043013B05EB52
S2144011108305013C55F804399847002CF9D1BDE8C1
S214401120384000F0D5B800BFE0124000DC12400066
S214401130704700BF704700BF2DE9F8432C4D064668
S214401140286898460F469146FFF7F2FF294B1C68E1
S214401150D4F84831002B3ED05A681F2A1CDC02F1D6
S214401160010E76B103EB82010124C1F88890D3F8D2
S214401170880194402043022EC3F88801C1F80881B4
S21440118023D00232C3F804E0286843F82270FFF701
S214401190D1FF0020BDE8F883174B0BB34FF4C8705F
S2144011A0AFF300800346D8B1D4F84821026000214E
S2144011B041600A46C4F848014FF0010EC0F8881155
S2144011C0C0F88C11002EDCD0CCE7D3F88C110C4341
S2144011D0C3F88C41D5E704F5A673C4F84831BBE79D
S2144011E02868FFF7A7FF4FF0FF30BDE8F88300BF41
S2144011F038044020B812400000000000456E74726B
S2144012006F750000210A00005265636562692076AA
S214401210617269617320626F7374610D0A00000029
S2144012204E410A004154000041542B524553455408
S2144012300000000041542B4E414D45536572766583
S2144012407200000041542B524F4C453000000000C5
S214401250686D31305F7365727665725F696E69740A
S21440126000000000496E696369616C697A616E646A
S2144012706F2E2E2E0D0A0000436F6E66696720485B
S214401280433035205365727665722E2E2E0D0A0039
S214401290436F6E666967204843303520436C696506
S2144012A06E742E2E2E0D0A00566F6C756D650000FE
S2144012B05B0000005D20000010004020F8B500BF35
S2144012C0F8BC08BC9E467047DD10400065014000F3
S2144012D0F8B500BFF8BC08BC9E46704741014000C8
S2144012E00100000000093D00010000000000000071
S2144012F000000000FC02402064034020CC03402055
S2144013000000000000000000000000000000000098
S2144013100000000000000000000000000000000088
S2144013200000000000000000000000000000000078
S2144013300000000000000000000000000000000068
S2144013400000000000000000000000000000000058
S2144013500000000000000000000000000000000048
S2144013600000000000000000000000000000000038
S2144013700000000000000000000000000000000028
S2144013800000000000000000000000000000000018
S2144013900000000000000000010000000000000007
S2144013A00E33CDAB34126DE6ECDE05000B000000CC
S2144013B000000000000000000000000000000000E8
S2144013C000000000000000000000000000000000D8
S2144013D000000000000000000000000000000000C8
S2144013E000000000000000000000000000000000B8
S2104017100000000000000000D404402050
S80440096D45
