S01C0000424C5545544F4F54485F5032505F5345525645522E73726563EB
S21440000038D64320890E4000850E4000850E4000BD
S214400010850E4000850E4000850E40000000000022
S214400020000000000000000000000000850E4000B8
S214400030850E400000000000850E4000F51240008E
S214400040850E4000850E4000850E4000850E40001F
S214400050850E4000850E4000850E4000850E40000F
S214400060850E400000000000AD0C4000C10C400072
S214400070D50C4000850E4000850E4000850E4000A1
S214400080E90C4000FD0C4000850E4000850E400007
S214400090850E4000850E4000850E4000051340004A
S2144000A0850E4000850E4000850E4000850E4000BF
S2144000B0850E400089054000850E4000850E4000B4
S2144000C0850E4000850E4000850E4000850E40009F
S2144000D000000000850E400000000000850E400035
S2144000E09D054000850E4000850E4000850E400070
S2144000F0850E4000850E4000850E4000850E40006F
S214400100850E4000850E4000850E4000850E40005E
S214400110850E4000000000000000000000000000C7
S214400120850E4000850E4000850E4000850E40003E
S214400130850E400000000000850E4000850E400001
S21440014010B5054C237833B9044B13B10448AFF3CC
S21440015000800123237010BD180B402000000000D3
S214400160C45740000C4B43B10C480D4910B5AFF393
S21440017000800C48036823B910BD0A48036833B9A9
S2144001807047094B002BF7D0BDE810401847064B88
S214400190002BF5D0184700BF00000000C4574000B1
S2144001A01C0B4020C457400000000000002A18BF27
S2144001B0002923D070B50B461546C8B18668C2687C
S2144001C0B11A8D4217DC19460446037906FB032311
S2144001D000682A4618440B4B9847E2682A44E26077
S2144001E0A3689A42B4BF002201222275002070BD47
S2144001F04FF0FF3070BD4FF0FF3070BD4FF0FF3016
S214400200704700BFBD264000002A18BF00291DD0F9
S21440021070B50B46154698B186680269B11A8D428C
S21440022011DC0446417906FB012100682A46014458
S2144002301846084B984723692B442361002070BD1D
S2144002404FF0FF3070BD4FF0FF3070BD4FF0FF30C5
S214400250704700BFBD26400098B10346007D78B188
S21440026071B110B400241C7558791A794240504038
S214400270587142401A711C61DC6008465DF8044BB8
S21440028070470020704700002DE9F04180B90C46C9
S2144002909046002A0FDD8F18084E094D30682146DB
S2144002A02B6898470134BC42F8D14046BDE8F081FF
S2144002B04FF0FF38F9E78046F7E700BF84B54320A4
S2144002C07CB543200138022815D82DE9F0410E466A
S2144002D014469AB10D46DFF838800C4FD8F8000027
S2144002E015F8011B3B68984700280ADBA81B013C11
S2144002F0F4D1BDE8F0814FF0FF3070471046BDE8BE
S214400300F0814FF0FF30BDE8F08100BF80B543205C
S21440031084B5432070B582B0026BC36A1340019324
S21440032000241C4E1C4DA84214BF0020012005018D
S2144003300BE00E2C1ED8019A04F10C0101238B40D1
S214400340134210D10134102C22D00B2CF1D8019A34
S2144003500123A3401342F5D02B1956F82330002B27
S214400360F0D09847EEE72B1956F82330002BE9D00B
S2144003709847E7E7019A04F10F0101238B401342A7
S214400380E0D02B1956F82330002BDBD09847D9E71E
S21440039002B070BD88B543200040064030B4046EBD
S2144003A001238B4024EA03041578002D08BF002360
S2144003B023430366446D4B000321994024EA01041D
S2144003C0517899402143416530BC70474B780A7854
S2144003D0134303678A884B8843EA02434367704760
S2144003E000220260084B4360084B83604FF4802332
S2144003F0C36002230374012343748374C274037579
S21440040043758375704700BF00A3E111808D5B0084
S214400410002303700123437070470023037020239A
S2144004204370FF23438040F6FF738380704700008D
S214400430026B12F0807201D01920704710B401236D
S2144004400360CB7C002B18BF4FF000424B688C6893
S214400450B3FBF4F3013B1B029BB2CC6844F40004AC
S21440046023430C7C240604F0706423434C7C24070E
S21440047004F040542343134343600B7D002B14BFCA
S2144004804FF0807300230A6813434A7D002A14BF46
S2144004904FF000720022134383608B7D1B0203F4EF
S2144004A0407343F00C03C0F894300F4B984206D08C
S2144004B00E4B98420DD000205DF8044B70470C4B15
S2144004C003F14001002243F8042F8B42FBD1002069
S2144004D0F2E7084B03F14001002243F8042B8B421D
S2144004E0FBD10020E8E700BF00C0034000400640C4
S2144004F084B54320C8B543200C4B994207D00B29FE
S2144005000BD806D0012303FA01F1416270474362DB
S21440051070474FF40063436270470E2994BF0C3116
S2144005200F31012303FA01F141627047FF0F004784
S21440053038B5114CA0420CBF102400240C440F4D7B
S21440054045F824200AD10E4A4FF48074C2F88441FC
S2144005505B01DBB282F82833546009E0084A4FF06A
S2144005600054C2F880415B01DBB282F81D33146050
S214400570044B984738BD00BF0040064088B543202E
S21440058000E100E0F904400008B50248024B9847F5
S21440059008BD00BF00C003401503400008B5024830
S2144005A0024B984708BD00BF004006401503400078
S2144005B000B583B0134B98420CBF28201D20124B29
S2144005C09847124B9B78FF2B1AD0EFF31083B3FA61
S2144005D083F35B09019372B6BFF35F8F00220C4B27
S2144005E01A700199094A93780133937029B1012210
S2144005F0074B1A70BFF35F8F62B603B05DF804FB1B
S214400600FEE700BF00400640310E400074B5432070
S2144006100A004020006B7047063200EB82025160B1
S214400620704710B489014318022444504FF0FF31FC
S2144006309962196A5A605DF8044B70478901052330
S2144006404350704700EB81114A61704700EB8111BF
S214400650CA61704700EB8111086A7047F0B486B0F3
S21440066002240194082402942024039480240494B1
S2144006700A9CE40B0594B0EB510F14D84C0CA042E6
S21440068017D2012501AF57F82540B1FBF4F4260CEC
S21440069084420AD386420DD90135052DF3D1002078
S2144006A006B0F0BC70470020FAE70020F8E70120CB
S2144006B0F6E700252AB106A901EB850151F8141C7E
S2144006C01160002BF3D01D600120E9E710B40B0148
S2144006D0934214D9C9004B0803EBC202B2FBF1F2B5
S2144006E0D3085C1E4FF6FE718C4201D9012017E0FC
S2144006F0416841F4002141600CE0012010E05908B7
S21440070001EBC202B2FBF3F2D3085C1E4FF6FE7159
S2144007108C42F2D8120402F4E0221A43026200200D
S2144007205DF8044B70470000084BC0F8E4300023E7
S21440073043604362836288230360242303604FF44C
S214400740807303604FF400230360704700415355A5
S21440075070B505460C4616460F4B984700220F4B81
S2144007601A60A4B13246216828460D4B9847024687
S21440077078B96368A1680B4321690B43E1680B4372
S21440078006490B6069680B436B60104670BD0122DA
S214400790FBE70122F9E700BF29074000340B402061
S2144007A0CD06400040230360704710230360704727
S2144007B0436913F0020F04D0C1F30801C161002061
S2144007C0704701207047436913F0010F05D08369D5
S2144007D0C3F308030B6000207047012070470000F9
S2144007E0002A54D02DE9F84F924606460F468A44D2
S2144007F0DFF8B880274DDFF8B89006E0214640463F
S214400800A8470028FAD1BA453ED017F8014B4645CE
S214400810F4D04E4516D0204B9E4219D01F4B9E42D8
S2144008201CD01F4B9E421FD01E4B9E4224D01E4BB8
S2144008309E42E8D1DFF87CB021461B48D8470028C6
S214400840FAD1E0E721464846A8470028FAD1DAE739
S21440085021461148A8470028FAD1D4E721460F4838
S214400860A8470028FAD1CEE7DFF848B021460C4822
S214400870D8470028FAD1C6E7DFF838B021460948FD
S214400880D8470028FAD1BEE70020BDE8F88F002000
S214400890704700BFB9084000001A0E40001C0E40CA
S2144008A0004002400080024000C0024000080E4067
S2144008B0000A0E40B1074000436913F0020F02D011
S2144008C0C1610020704701207047000010B51048F5
S2144008D0104B98473E2100200F4B98470F4CA0479F
S2144008E00028FCD00E4B98470E4A0F4B9A620F4C8E
S2144008F0A0470028FCD002200D4B984700200D4B07
S21440090098470D4B98470248024B984710BD00BF8A
S21440091000A3E1115D104000AD0D4000010E400007
S214400920110E4000013F182000060E40210E4000E8
S214400930110D4000490D4000510F4000F8B54FF4EE
S21440094000425C4B5A60BFF34F8FBFF36F8F5A4BDA
S2144009500022C3F850225A6942F400325A61BFF36B
S2144009604F8FBFF36F8FD3F88070C7F34E3607F0C4
S21440097007000430C7F3C907B7FA87FE0EF01F0E0C
S214400980BFF34F8F4FF0FF3404FA00FC06FA00F036
S21440099004FA0EF407FA0EFE1D463A46734640EA3F
S2144009A00301C5F86012013A2344B2F1FF3FF6D185
S2144009B0013E6044B6F1FF3FEFD1BFF34F8F3E4B51
S2144009C05A6942F480325A61BFF34F8FBFF36F8F3C
S2144009D03A4A3B495160A1F580715160BFF34F8F51
S2144009E0BFF36F8FD3F8902222F00102C3F8902213
S2144009F0D3F8942222F00102C3F89422BFF34F8F1B
S214400A00BFF36F8F0A202F4CA0470B20A0470C2027
S214400A10A0471020A0471120A0472B4B4FF48072D0
S214400A201A61C3F8A0201A63A3F580634FF40062EE
S214400A305A61C3F8A0205A66C3F890205A651A62D5
S214400A40C3F88420196F21F400611967596F21F4A7
S214400A5000615967C3F8C020C3F8D420C3F8B0205B
S214400A604FF400121A66C3F890205A655A62C3F8CB
S214400A708020196F21F400111967596F21F4001175
S214400A8059675A60114AD2F8143143F01003C2F83D
S214400A9014310F4B10221A66C3F890205A655A62DA
S214400AA0C3F88020196F11431967596F114359676E
S214400AB05A60F8BD50180E4000ED00E0000C0E40A5
S214400AC00C08005A310E400000120E4000800840CC
S214400AD000100E404264B1F1C05F3AD013D8B1F175
S214400AE0006F25D0B1F1805F0AD1036F13430367CF
S214400AF0436F416F0B4023EA0203436742607047EF
S214400B000029FBD17047B1F1205F21D009D8B1F15F
S214400B10005FF3D1036F13430367436F1343436789
S214400B20ECE7B1F1405F13D0B1F1605F10D0E5E77C
S214400B3010B4016F046FD34321401C46194001672F
S214400B40436F416F0B402340436742605DF8044B60
S214400B507047036F016F0B4023EA02030367436F3E
S214400B6013434367CAE7416412F0010F0DD1016693
S214400B7012F00A0F0BD0016212F0020F09D112F0E8
S214400B80080F08D0C0F8841005E04166F0E74162DF
S214400B90F2E7C0F8801041610160704710B4019CD4
S214400BA041644CB901664BB101654AB94163016184
S214400BB001605DF8044B70474166F4E74165F4E731
S214400BC00163F4E770B582B0054616461C46B1F19F
S214400BD0005F14D00AD9B1F1405F24D0B1F1605F14
S214400BE021D0B1F1205F17D000201AE0B1F1805F2C
S214400BF005D0B1F1C05F02D0B1F1006FF4D13246FA
S214400C002846114B984714F0010F02D12E6601205A
S214400C1007E06E66012004E01A4631460B4B9847C3
S214400C20012002B070BD04F001030093C4F38003BA
S214400C30B1F1605F14BF0022012231462846044CC1
S214400C40A0470120EDE700BFD50A4000670B4000F3
S214400C509D0B4000C06C7047806C70472DE9F0419A
S214400C60044688460E4B9847054620460D4B984707
S214400C70054013D00C4C04F1600603E0B4420DD09E
S214400C8010345DB120684045F8D161682942F5D0FE
S214400C90E3689847636825EA0305EFE7BDE8F08117
S214400CA0550C4000590C4000380B402008B50A212E
S214400CB00148024B984708BD000E0E405D0C4000B0
S214400CC008B50B210148024B984708BD00100E405E
S214400CD05D0C400008B50C210148024B984708BD02
S214400CE000120E405D0C400008B510210148024B32
S214400CF0984708BD00140E405D0C400008B5112111
S214400D000148024B984708BD00160E405D0C400057
S214400D10032811D0042812D002280CBF4FF480714B
S214400D200021084A136B23F440730B431363936EFE
S214400D3013F0080FFBD070474FF44071F1E74FF4C3
S214400D400071EEE700060E40174A136B23F070035F
S214400D5018431063936E13F0080F0AD14FF4805374
S214400D6011498A6E12F0080F03D1013BF9D10120D8
S214400D7070470D4A136B23F0030343F002031363DB
S214400D80936E13F0080F0AD14FF4805306498A6ECB
S214400D9012F0080F05D1013BF9D101207047002021
S214400DA070470020704700BF00060E40A0B90E48AE
S214400DB0036A090289B20D4A1A400D4B1343194380
S214400DC001620246936E13F0010FFBD0064A116A89
S214400DD0084B0B431362704703490B6A064A1A4096
S214400DE0064B13430B62704700060E40FCFFC8FFDD
S214400DF00100370000003701FCFFC8FE0200370143
S214400E00024B986E00F48030704700BF00060E40DC
S214400E104FF00052014B9A62704700BF00060E40EA
S214400E20024B986E00F00200704700BF00060E406E
S214400E303F281ED81F280CD8114B9A69012383409F
S214400E40934318D0012303FA00F00D4B186100209D
S214400E50704720380A4BD3F8082101238340934338
S214400E600BD0012303FA00F0054BC3F80001002025
S214400E70704701207047002070470020704700BF31
S214400E8000060E40FEE7000000B583B0254B264A1C
S214400E909A4210D0254B234A9A420CD2013B9B1AC9
S214400EA023F00303043313441F4951F8040B42F85C
S214400EB0040B9A42F9D11E4B1E4A9A420AD2013B73
S214400EC09B1A23F0030304331344002142F8041B07
S214400ED09342FBD1184A194B23F07F039360EFF3FC
S214400EE01083B3FA83F35B09019372B6BFF35F8F47
S214400EF00022134B1A700199124A136843F4700388
S214400F001360BFF34F8FBFF36F8F29B101220C4B95
S214400F101A70BFF35F8F62B60B4B98470B4B9847E0
S214400F20FEE700BF00004020C4574000180B40209A
S214400F3034B64320180B402000ED00E0000040008F
S214400F400A00402088ED00E0452640000D1640008F
S214400F503B4B1B6B03F00303012B1DD083B1022BCD
S214400F6036D0374B1B6B03F07003702B5FD0344B7F
S214400F701A6B3449C2F302120B68D3400B607047B9
S214400F80314B5B6913F0800F14BF4FF400424FF4AF
S214400F90FA422C4B1A60E4E7294B1B6A13F0807F19
S214400FA003D02A4A274B1A60DBE7294A254B1A60AA
S214400FB0234B1B6A03F07003102B05D0202BD0D197
S214400FC0224A204B1A60CCE7224A1E4B1A60C8E7DA
S214400FD01B4B1B6A13F0807F16D01C4A194B1A60B5
S214400FE0174B1B6B03F00303022BBAD1144A916ACA
S214400FF0926A1448C1F30A41036801FB0333D2B234
S214401000B3FBF2F30360ACE7114A0E4B1A600C4B8D
S2144010101B6A03F07003102B05D0202BE0D10B4A3F
S214401020084B1A60DCE70B4A064B1A60D8E7054ABD
S21440103013680949A1FB03135B081360704700BFA0
S21440104000060E400C00402010180E40001BB70053
S21440105000093D0000127A00ABAAAAAA164B984295
S21440106013D9164B984215D9154B984216D9154B9D
S214401070984217D9144B984218D9144B984294BFAB
S214401080134A144A144B1A6070474FF08062124B52
S2144010901A607047114A104B1A607047104A0E4B40
S2144010A01A6070470F4A0C4B1A6070474FF0042284
S2144010B0094B1A60704700BFBFF35E017FE7BD0271
S2144010C03FDB1C04FFCE7B05BFC2DA067FB639087D
S2144010D00005000400060004000C0E400001000459
S2144010E000020004000300040A4B1B6853B1094B7E
S2144010F01B681A180849914208DB1046054A1060DA
S21440110018467047054A034B1A60F0E74FF0FF3029
S214401110704700BFA80B4020FCFF452038D843202E
S2144011204FF0FF3070474FF400534B60002070473D
S2144011300120704700207047124B1B68124A82FB02
S2144011400312DB17C3EBA21307EE903AB8EEE77A2A
S2144011500E4802680E4B1A600E49D1ED007AF8EE42
S214401160677A06EE902AF8EE666A67EEA67A67EE2B
S214401170877AFDEEE77A17EE903A134403600A60EA
S214401180704700BF60014020D34D6210B80B40202E
S21440119008B64320BC0B40200B490C4B1B680C4A3E
S2144011A082FB0302DB17C3EB621307EE903AF8EEBE
S2144011B0E77A91ED007AB8EE477A67EE877AFDEEE9
S2144011C0E77AC1ED007A7047B80B402060014020B6
S2144011D01F85EB510000000038B51B4C23689B0070
S2144011E023601A4B18681A4B98471A4B984714A313
S2144011F0D3E90023184DA847184B984707EE900AA6
S2144012009FED177A27EE877ABDEEC77A17EE102A3B
S2144012109FED147A67EE877AFDEEE77A17EE903AFE
S21440122021688A4200D22260074A1268934201D956
S214401230054A1360044A13689B08136038BD00BF14
S214401240EF39FAFE422EE63FB80B402060014020C0
S2144012506D1F4000D91740008D2240009925400060
S2144012600000FA430000484310B5164B01225A6668
S2144012709A6E154B1A60154B1A78682303FB02F3D7
S214401280134AD358984700211248134B9847A0B9A1
S214401290104C04220C492046104B98470422104913
S2144012A02046104B98471048104B98470C4B1968EF
S2144012B000220D480E4B984710BD01210548064BAD
S2144012C09847E5E700C00340B80B4020B00B4020ED
S2144012D0280040201000402059024000AD01400048
S2144012E0AC0B4020090240000000044015064000B8
S2144012F019064000024A136801331360704700BF66
S214401300B40B402000B583B000210548054B9847F4
S21440131001900548054B9847019B03B05DF804FBD8
S21440132000C00040550640009455400095264000B9
S21440133038B505460C460846034B984702462146B4
S2144013402846024B984738BDC1284000E107400078
S2144013502DE9F04F85B001908B461F46104B1E6816
S21440136001F1FF3A02F1FF3800241D46DFF83490C1
S2144013702B689B1BBB420CDA44450AD003A9019854
S214401380C8470028F4D12E680134039B0AF8013F71
S214401390EEE700230BF80430204605B0BDE8F08F9A
S2144013A0B40B4020C707400070B504460D461646AD
S2144013B01946044B9847049B324629462046024C21
S2144013C0A04770BD3113400051134000F8B50746A2
S2144013D00E46094D09492846094CA0473946284635
S2144013E0A04708492846A04731462846A047064910
S2144013F02846A047F8BD00BF008002402456400063
S2144014003113400028564000F055400070B586B075
S2144014104FF4E1330093C02301934FF400630293EB
S2144014200023039304930E20094B9847094C0A4A1D
S21440143069462046094B98472046094EB047204605
S214401440084DA8472046B0472046A84706B070BD7E
S214401450310E40000080024080D1F0085107400025
S214401460A5074000AB0740002DE9F04186B04FF499
S21440147016530093C02301934FF400630293002554
S214401480039504950D20134EB047134C134A6946F6
S2144014902046134B98472046DFF85480C0472046E6
S2144014A0104FB8472046C0472046B8470B20B047A5
S2144014B00D4E2B4601224FF0C05130460B4CA047F4
S2144014C02B4602224FF0C0513046A04706B0BDE83A
S2144014D0F08100BF310E40000040024080D1F0084D
S2144014E051074000AB07400000100E40C50B4000BF
S2144014F0A5074000F0B5A3B01A4E1B4DC82700976D
S21440150033464FF47A7202A92846184CA0470097F3
S21440151033464FF47A7202A92846A04700973346CE
S2144015204FF47A7202A92846A0474FF4C876009630
S2144015300F4B4FF47A7202A92846A04700960D4BEF
S2144015404FF47A7202A92846A04700960A4B4FF4F9
S2144015507A7202A92846A04702A90848084B98472D
S21440156023B0F0BDA055400000400240A913400003
S214401570A4554000B0554000C0554000CC554000F2
S214401580CD1340002DE9F04184B0054616461F466F
S2144015900846164B9847164C009402AB03AA2146C1
S2144015A03846DFF86480C04701230293114A31462B
S2144015B02846114B9847039AB4FBF2F2B2FBF7F277
S2144015C0D208314628460D4B9847039AB4FBF2F2B0
S2144015D0B2FBF7F2120931462846094B9847314686
S2144015E02846084B984704B0BDE8F081310E4000CD
S2144015F000A3E11101C00900230640004D0640004B
S214401600450640003D0640005D06400000B5ADF290
S2144016102C4D4D4B98474D4B98474D4B4D4A5A6035
S214401620E0214D4A82F8231000259D6007221A606B
S2144016304A4B98474A4E4B4930464B4CA0474B493D
S2144016403046A0474A4B98474A4B98470A204A4C50
S214401650A0470B20A0470C20A0471020A0471120F1
S214401660A047464C2046464B984703A8454B9847CC
S21440167003A92046444B9847636823F08F0343F002
S21440168003036360636843F00303636001233F4AD8
S214401690194620463E4EB04768463E4B98478DF822
S2144016A001506A46012120463B4B9847012363661A
S2144016B04FF40073E36601A8384B984701A92046CB
S2144016C0374B984702236361364B2A4617213648E4
S2144016D0364CA047364D374C15E00AA93648374EAB
S2144016E0B0470A2209A90AA8354B9847354B1870C7
S2144016F0C1B23548B04709993448B0470DE04CF27E
S2144017008E50334B984764234FF480620AA928468C
S214401710A0479DF82830692BDFD09DF82830762BDF
S214401720EDD10AA92448254EB0470A2209A90AA89D
S214401730234B98470146274B18602348B0470999E2
S2144017402248B047DBE700BF3D094000CD084000D7
S21440175010E000E0DF93040000ED00E00D144000D0
S21440176000800240E055400031134000F4554000F0
S21440177069144000F5144000310E400000C003409C
S214401780B1054000E10340003104400069124000CA
S21440179031054000110440009D0340001B044000FA
S2144017A0CD034000A086010000C0004085154000E3
S2144017B000400240511340000C564000CD134000FC
S2144017C0C52A4000B00B4020145640001C5640002E
S2144017D001004020600140202DE970438AB0044655
S2144017E00D4600F075F8354B93F90060731C804643
S2144017F089460DD022462B462046294600F0B6FEA6
S21440180030B9002200232046294600F0A5FE20B12C
S214401810404649460AB0BDE87083294B0890CDE95A
S2144018200245CDE90445019320462946CEB9254DCB
S2144018304FF0604400220023CDE9064500F064FEE8
S214401840002833D002230093684600F035FAA8B14A
S214401850089BC3B9DDE90689404649460AB0BDE85B
S2144018607083194D002400220023CDE9064500F080
S2144018704BFE68B102239E420093E5D100F0DCFEA9
S21440188022230360E4E700F0D7FE089B0360E1E70D
S2144018900123022E00930BD100F0CEFE21230360DD
S2144018A00A4800F00BFACDE90601D1E70123009380
S2144018B0684600F001FA0028F2D1EDE764014020C6
S2144018C02C564000FFFFEFC70000F0FF9C5540003D
S2144018D02DE9F04FB1F5801F85B006460F460B4602
S2144018E05ADA024621F00044224300F0F8800029EC
S2144018F0C0F27A810022D64B00F09EFBD54A0B46BA
S214401900934206460F466FF0350C4ADCC3F3130588
S21440191005F5152E0EF6647E0EF4801E8EF07F5270
S21440192082F440121C1542EA0507A4F2FF346444D0
S2144019300022C94B3046394604EB1E5400F0C8F925
S214401940AB1CC3F31303022B82468B464FF00002B8
S21440195030DC002300F0D8FD002800F0C980002CC1
S21440196000F04B81204600F001FBA5A3D3E90023FD
S21440197006460F4600F060FBA3A3D3E900230446C7
S2144019800D463046394600F057FB02460B46204689
S214401990294600F09FF90AE0AE4A93424FF0000C09
S2144019A0B4DD32463B463046394600F093F905B042
S2144019B0BDE8F08F4FF0804300F08CF902460B46AE
S2144019C05046594600F062FC064620460F4600F058
S2144019D0CDFA3246CDE900013B4630463946CDE9A0
S2144019E0026700F029FB02460B468046894600F017
S2144019F023FB87A3D3E9002306460F4600F01CFBD3
S214401A0085A3D3E9002300F065F932463B4600F053
S214401A1013FB83A3D3E9002300F05CF932463B4630
S214401A2000F00AFB80A3D3E9002300F053F94246B6
S214401A304B4600F001FB7EA3D3E90023804689464F
S214401A403046394600F0F8FA7BA3D3E9002300F08D
S214401A5041F932463B4600F0EFFA79A3D3E900233A
S214401A6000F038F932463B4600F0E6FA0B460246AE
S214401A704946404600F02EF9A5F5C223C5F5D725C0
S214401A80A3F27A4351351D43002D8046894656DDE4
S214401A900022724B5046594600F0CEFA52465B46FC
S214401AA000F0CAFA06460F46002C68D132463B463E
S214401AB04046494600F00EF9DDE9022300F0BCFA44
S214401AC002460B463046394600F002F902460B46BF
S214401AD05046594600F0FCF805B0BDE8F08F0022AD
S214401AE0002300205E4900F0D1FB05B0BDE8F08F32
S214401AF055A3D3E900235046594600F09DFA0246C6
S214401B000B460020554900F0E3F8524606460F467D
S214401B105B465046594600F08FFA02460B46304622
S214401B20394600F089FA06460F46002C40F09A8067
S214401B3002460B465046594600F0CAF837E7002C96
S214401B4000F0A4802EA3D3E90023DDE9000100F0D5
S214401B5073FA42464B4604460D465046594600F0F8
S214401B60B7F8DDE9022300F067FA27A3D3E900239C
S214401B7006460F46DDE9000100F05EFA21E020A3AC
S214401B80D3E90023DDE9000100F056FA32463B4631
S214401B9004460D464046494600F09CF8DDE90223DF
S214401BA000F04AFA18A3D3E9002380468946DDE9C7
S214401BB0000100F041FA02460B464046494600F016
S214401BC089F802460B463046394600F081F85246C0
S214401BD05B4600F07DF802460B462046294600F05C
S214401BE077F805B0BDE8F08F02460B4600F070F877
S214401BF00022002300F04AFBD9E600200021D6E66A
S214401C000000E0FE422EE63F763C7935EF39EA3D6D
S214401C1044523EDF12F1C23FDE03CB966446C73FD6
S214401C20599322942449D23F935555555555E53FEF
S214401C309FC678D0099AC33FAF788E1DC571CC3FFA
S214401C4004FA97999999D93F555555555555D53FC5
S214401C5000005043FFFFEF7F0000F03F0000E03FF2
S214401C60000050C3204600F081F90FA3D3E90023BB
S214401C708046894600F0E0F90DA3D3E900230446E8
S214401C800D464046494600F0D7F99AE702460B46CD
S214401C905046594600F01CF8DDE9022300F0CCF926
S214401CA014E700BFAFF300800000E0FE422EE63FA0
S214401CB0763C7935EF39EA3D0020704700200149EF
S214401CC0704700BF0000F87F81F0004102E000BF8F
S214401CD083F0004330B54FEA41044FEA430594EAA7
S214401CE0050F08BF90EA020F1FBF54EA000C55EAE2
S214401CF0020C7FEA645C7FEA655C00F0E2804FEAB3
S214401D005454D4EB5555B8BF6D420CDD2C4480EA94
S214401D10020281EA030382EA000083EA010180EAC4
S214401D20020281EA0303362D88BF30BD11F0004F12
S214401D304FEA01314FF4801C4CEA113102D0404248
S214401D4061EB410113F0004F4FEA03334CEA133383
S214401D5002D0524263EB430394EA050F00F0A7809B
S214401D60A4F10104D5F1200E0DDB02FA0EFC22FA96
S214401D7005F2801841F1000103FA0EF2801843FA8A
S214401D8005F359410EE0A5F120050EF1200E012A7B
S214401D9003FA0EFC28BF4CF0020C43FA05F3C018B9
S214401DA051EBE37101F0004507D54FF0000EDCF132
S214401DB0000C7EEB00006EEB0101B1F5801F1BD3DB
S214401DC0B1F5001F0CD349085FEA30004FEA3C0CDF
S214401DD004F101044FEA445212F5800F80F09A80D5
S214401DE0BCF1004F08BF5FEA500C50F1000041EBD9
S214401DF0045141EA050130BD5FEA4C0C404141EBDD
S214401E00010111F4801FA4F10104E9D191F0000F03
S214401E1004BF01460020B1FA81F308BF2033A3F186
S214401E200B03B3F120020CDA0C3208DD02F1140C7D
S214401E30C2F10C0201FA0CF021FA02F10CE002F1B8
S214401E401402D8BFC2F1200C01FA02F120FA0CFCB1
S214401E50DCBF41EA0C019040E41AA2BF01EB0451FA
S214401E60294330BD6FEA04041F3C1CDA0C340EDCF8
S214401E7004F11404C4F1200220FA04F001FA02F33B
S214401E8040EA030021FA04F345EA030130BDC4F1F9
S214401E900C04C4F1200220FA02F001FA04F340EAEE
S214401EA00300294630BD21FA04F0294630BD94F09F
S214401EB0000F83F4801306BF81F480110134013D86
S214401EC04EE77FEA645C18BF7FEA655C29D094EAF7
S214401ED0050F08BF90EA020F05D054EA000C04BF75
S214401EE01946104630BD91EA030F1EBF0021002060
S214401EF030BD5FEA545C05D14000494128BF41F0FF
S214401F00004130BD14F580043CBF01F5801130BD62
S214401F1001F0004545F0FE4141F470014FF00000ED
S214401F2030BD7FEA645C1ABF194610467FEA655C9E
S214401F301CBF0B46024650EA013406BF52EA033540
S214401F4091EA030F41F4002130BD00BF90F0000F2E
S214401F5004BF0021704730B54FF4806404F132046A
S214401F604FF000054FF0000150E700BF90F0000F23
S214401F7004BF0021704730B54FF4806404F132044A
S214401F8010F0004548BF40424FF000013EE700BF1A
S214401F9042004FEAE2014FEA31014FEA02701FBFAA
S214401FA012F07F4393F07F4F81F06051704792F07C
S214401FB0000F14BF93F07F4F704730B54FF46074F6
S214401FC001F0004521F0004120E700BF50EA010241
S214401FD008BF704730B54FF000050AE050EA0102EE
S214401FE008BF704730B511F0004502D5404261EB5E
S214401FF041014FF4806404F132045FEA915C3FF49F
S214402000DCAE4FF003025FEADC0C18BF03325FEA37
S214402010DC0C18BF033202EBDC02C2F1200300FAEC
S21440202003FC20FA02F001FA03FE40EA0E0021FA11
S21440203002F11444C1E600BF70B54FF0FF0C4CF4FB
S214402040E06C1CEA11541DBF1CEA135594EA0C0FB1
S21440205095EA0C0F00F0DEF82C4481EA030621EAEC
S2144020604C5123EA4C5350EA013518BF52EA033527
S21440207041F4801143F4801338D0A0FB02CE4FF0D9
S2144020800005E1FB02E506F00042E0FB03E54FF009
S2144020900006E1FB03569CF0000F18BF4EF0010E01
S2144020A0A4F1FF04B6F5007F64F5407404D25FEAFD
S2144020B04E0E6D4146EB060642EAC62141EA5551B0
S2144020C04FEAC52040EA5E504FEACE2EB4F1FD0CF2
S2144020D088BFBCF5E06F1ED8BEF1004F08BF5FEA70
S2144020E0500E50F1000041EB045170BD06F0004622
S2144020F046EA010140EA020081EA0301B4EB5C04CF
S214402100C2BFD4EB0C0541EA045170BD41F48011C6
S2144021104FF0000E013C00F3AB8014F1360FDEBFEB
S214402120002001F0004170BDC4F10004203C35DAC7
S2144021300C341BDC04F11404C4F1200500FA05F34A
S21440214020FA04F001FA05F240EA020001F00042EB
S21440215021F0004110EBD37021FA04F642EB060161
S2144021605EEA430E08BF20EAD37070BDC4F10C048B
S214402170C4F1200500FA04F320FA05F001FA04F24F
S21440218040EA020001F0004110EBD37041F100013B
S2144021905EEA430E08BF20EAD37070BDC4F1200546
S2144021A000FA05F24EEA020E20FA04F301FA05F2AE
S2144021B043EA020321FA04F001F0004121FA04F256
S2144021C020EA020000EBD3705EEA430E08BF20EA26
S2144021D0D37070BD94F0000F0FD101F00046400060
S2144021E041EB010111F4801F08BF013CF7D041EAE2
S2144021F0060195F0000F18BF704703F000465200E6
S21440220043EB030313F4801F08BF013DF7D043EAB6
S2144022100603704794EA0C0F0CEA135518BF95EA6C
S2144022200C0F0CD050EA410618BF52EA4306D1D1F3
S21440223081EA030101F000414FF0000070BD50EA12
S214402240410606BF1046194652EA430619D094EA9C
S2144022500C0F02D150EA013613D195EA0C0F05D186
S21440226052EA03361CBF104619460AD181EA0301DA
S21440227001F0004141F0FE4141F470014FF0000092
S21440228070BD41F0FE4141F4780170BD70B54FF02D
S214402290FF0C4CF4E06C1CEA11541DBF1CEA1355AD
S2144022A094EA0C0F95EA0C0F00F0A7F8A4EB05048F
S2144022B081EA030E52EA03354FEA013100F0888086
S2144022C04FEA03334FF0805545EA131343EA12634F
S2144022D04FEA022245EA111545EA10654FEA002604
S2144022E00EF000419D4208BF964244F1FD0404F5BD
S2144022F0407402D25B084FEA3202B61A65EB030519
S2144023005B084FEA32024FF480104FF4002CB6EBD5
S214402310020E75EB030E22BFB61A754640EA0C0055
S2144023205B084FEA3202B6EB020E75EB030E22BF95
S214402330B61A754640EA5C005B084FEA3202B6EBD6
S214402340020E75EB030E22BFB61A754640EA9C0095
S2144023505B084FEA3202B6EB020E75EB030E22BF65
S214402360B61A754640EADC0055EA060E18D04FEA23
S214402370051545EA16754FEA06164FEAC30343EAC3
S21440238052734FEAC2025FEA1C1CC0D111F4801F90
S2144023900BD141EA00014FF000004FF0004CB6E789
S2144023A011F4801F04BF01430020B4F1FD0C88BF28
S2144023B0BCF5E06F3FF6AFAEB5EB030C04BFB6EB33
S2144023C0020C5FEA500C50F1000041EB045170BD26
S2144023D00EF0004E4EEA113114EB5C04C2BFD4EB53
S2144023E00C0541EA045170BD41F480114FF0000ED7
S2144023F0013C90E645EA060E8DE60CEA135594EA53
S2144024000C0F08BF95EA0C0F3FF43BAF94EA0C0F55
S2144024100AD150EA01347FF434AF95EA0C0F7FF4CA
S21440242025AF104619462CE795EA0C0F06D152EA1E
S21440243003353FF4FDAE1046194622E750EA410602
S21440244018BF52EA43067FF4C5AE50EA41047FF413
S2144024500DAF52EA43057FF4EBAE12E74FF0FF3C78
S21440246006E000BF4FF0010C02E000BF4FF0010C49
S2144024704DF804CD4FEA410C7FEA6C5C4FEA430CC2
S21440248018BF7FEA6C5C1BD001B050EA410C0CBF11
S21440249052EA430C91EA030F02BF90EA020F002073
S2144024A0704710F1000F91EA030F58BF994208BFDA
S2144024B090422CBFD8176FEAE37040F00100704797
S2144024C04FEA410C7FEA6C5C02D150EA013C07D1EE
S2144024D04FEA430C7FEA6C5CD6D152EA033CD3D039
S2144024E05DF8040B704700BF8446104662468C4633
S2144024F01946634600E000BF01B5FFF7B7FF002866
S21440250048BF10F1000F01BD4DF808EDFFF7F4FF8E
S2144025100CBF012000205DF808FB00BF4DF808ED19
S214402520FFF7EAFF34BF012000205DF808FB00BF3C
S2144025304DF808EDFFF7E0FF94BF012000205DF85E
S21440254008FB00BF4DF808EDFFF7CEFF94BF012013
S21440255000205DF808FB00BF4DF808EDFFF7C4FF0C
S21440256034BF012000205DF808FB00BF4FEA410C55
S2144025707FEA6C5C02D150EA013C0AD14FEA430C38
S2144025807FEA6C5C02D152EA033C02D14FF0000075
S21440259070474FF0010070474FEA4102B2F1E04306
S2144025A024BFB3F5001CDCF1FE5C0DD901F0004CF5
S2144025B04FEAC0024CEA5070B2F1004F40EB830045
S2144025C008BF20F00100704711F0804F21D113F171
S2144025D03872BCBF01F00040704741F480114FEAAA
S2144025E05252C2F11802C2F1200C10FA0CF320FA33
S2144025F002F018BF40F001004FEAC1234FEAD32350
S21440260003FA0CFC40EA0C0023FA02F34FEA4303B9
S214402610CCE77FEA625307D150EA01331EBF4FF042
S214402620FE4040F44000704701F0004040F0FE405D
S21440263040F40000704700BF014B1868704700BF69
S2144026406801402070B50F4E0F4D761BB61018BF70
S214402650002405D0013455F8043B9847A642F9D1EA
S2144026600A4E0B4D761B03F097F8B61018BF0024A1
S21440267006D0013455F8043B9847A642F9D170BDC0
S21440268070BD00BFA4574000A4574000AC57400060
S214402690A45740000FB400B5074983B004AB0868A0
S2144026A053F8042B8168019300F062FA03B05DF89A
S2144026B004EB04B0704700BF68014020844641EAFE
S2144026C0000313F003036DD1403A41D351F8043B65
S2144026D040F8043B51F8043B40F8043B51F8043BB7
S2144026E040F8043B51F8043B40F8043B51F8043BA7
S2144026F040F8043B51F8043B40F8043B51F8043B97
S21440270040F8043B51F8043B40F8043B51F8043B86
S21440271040F8043B51F8043B40F8043B51F8043B76
S21440272040F8043B51F8043B40F8043B51F8043B66
S21440273040F8043B51F8043B40F8043B51F8043B56
S21440274040F8043B51F8043B40F8043B403ABDD2C5
S214402750303211D351F8043B40F8043B51F8043B67
S21440276040F8043B51F8043B40F8043B51F8043B26
S21440277040F8043B103AEDD20C3205D351F8043BF6
S21440278040F8043B043AF9D2043208D0D2071CBFC2
S21440279011F8013B00F8013B01D30B8803806046EB
S2144027A0704700BF082A13D38B078DD010F0030361
S2144027B08AD0C3F10403D21ADB071CBF11F8013BD1
S2144027C000F8013B80D331F8023B20F8023B7BE720
S2144027D0043AD9D3013A11F8013B00F8013BF9D24B
S2144027E00B7803704B7843708B78837060467047E5
S2144027F070B4860746D0541E002A41D0CAB203465B
S21440280002E014F1FF343BD303F8012B9D07F8D1C7
S214402810032C2ED9CDB245EA05250F2C45EA0545B1
S21440282019D903F110022646103E0F2E42F8105CCE
S21440283042F80C5C42F8085C42F8045C02F1100274
S214402840F2D8A4F1100222F00F0204F00F04103266
S214402850032C13440DD91E462246043A032A46F852
S214402860045BFAD8221F22F003020432134404F019
S21440287003042CB1C9B21C4403F8011B9C42FBD193
S21440288070BC704714460346C2E700BF0000000015
S21440289000000000000000000000000000000000F3
S2144028A000000000000000000000000000000000E3
S2144028B000000000000000000000000000000000D3
S2144028C090F800F06DE9024520F007016FF0000C2B
S2144028D010F0070491F820F040F049804FF00004D3
S2144028E06FF00700D1E9002391F840F000F10800AE
S2144028F082FA4CF2A4FA8CF283FA4CF3A2FA8CF3E6
S2144029004BBBD1E9022382FA4CF200F10800A4FA4C
S2144029108CF283FA4CF3A2FA8CF3E3B9D1E90423A0
S21440292082FA4CF200F10800A4FA8CF283FA4CF3D7
S214402930A2FA8CF37BB9D1E9062301F1200182FA91
S2144029404CF200F10800A4FA8CF283FA4CF3A2FA97
S2144029508CF3002BC6D0002A04BF04301A4612BAA5
S214402960B2FA82F2FDE8024500EBD2007047D1E9A8
S214402970002304F00305C4F100004FEAC50514F037
S214402980040F91F840F00CFA05F562EA05021CBF08
S21440299063EA050362464FF00004A9E72DE9F84FC5
S2144029A0DDF828900F46804616461D468A4600E0CB
S2144029B0A2465446484614F801BB01F08BFC5844E6
S2144029C0427812F00802F3D1BBF12D0F4FD0BBF185
S2144029D02B0F04BF94F800B00AF102041DB1102D6D
S2144029E056D0AC4604E0BBF1300F60D00A25AC466A
S2144029F0002A0CBF6FF000494FF000490021B9FB98
S214402A00FCFE08460CFB1E9A05E029D00CFB003065
S214402A10012114F801BBABF13003092B05D9ABF10A
S214402A204103192B0BD8ABF137039D420FDDB1F1B3
S214402A30FF3FEED08645E8D24FF0FF31E9E7ABF1F5
S214402A406103192B03D8ABF157039D42EFDC4B1CB7
S214402A5013D002B1404246B1C1B93760BDE8F88FE5
S214402A609A45D3DA4FF0FF31D3E7BDE8F88F94F8B4
S214402A7000B001220AF10204B0E72223C8F8003071
S214402A80EEB1671E48463760BDE8F88F8146F8E7E6
S214402A90BBF1300FA5D1237803F0DF03582BA0D12C
S214402AA04FF0100C94F801B065460234A0E7237846
S214402AB003F0DF03582BF3D00825AC4698E748468A
S214402AC0BDE8F88F30B5084C084B25686C6B83B072
S214402AD0002C08BF1C46009413460A46014628466A
S214402AE0FFF75CFF03B030BD680140209C054020E6
S214402AF02DE9F84F4B6E9C0493462FD59368126889
S214402B0053B30E46074602F1080919E920045FEA66
S214402B109A0817D0043D002401E0A04510D0324664
S214402B2055F8041F384601F0BBF8431C04F1010475
S214402B30F3D10023CBF80830CBF80430BDE8F88F4B
S214402B40DBF808302AF0030AA3EB0A03CBF8083078
S214402B5009F10809002BD8D10020EAE701F00AFA6B
S214402B600023CBF80830CBF80430BDE8F88F00BF20
S214402B702DE9F04FADB01D468B4690460793069024
S214402B8018B1836B002B00F0F380DBF86430BBF9A0
S214402B900C00DF0781B202D48E0540F1FC808C0425
S214402BA00AD4DBF8643040F4005123F40053ABF809
S214402BB00C10CBF8643089B2080740F1B380DBF8DC
S214402BC01030002B00F0AE8001F01A030A2B00F004
S214402BD0B58000230DF170090B9311931093039366
S214402BE0CDF83C90CA46CDF810B098F80030444630
S214402BF0FBB1252B02D11CE0252B03D014F8013F56
S214402C00002BF9D1A4EB08059DB1109B119ACAF888
S214402C10008001332A44072BCAF8045011921093BF
S214402C207ADD002A40F0B084039B10922B44CA46BB
S214402C3003932378002B00F0E08300204FF000033E
S214402C408DF8373004F1010862780546064603469B
S214402C504FF0FF3408F10108A2F12001582900F294
S214402C60DE82DFE811F02102DC02DC022902DC020F
S214402C70DC02DC02DC02DC02DC0289029502DC02B9
S214402C80A200BD02DC029F01A401A401A401A4018C
S214402C90A401A401A401A401A401DC02DC02DC021C
S214402CA0DC02DC02DC02DC02DC02DC02DC02B2011A
S214402CB0DC02DC02DC02DC02DC02DC02DC02DC02DF
S214402CC0DC02DC029701DC02DC02DC02DC02DC0215
S214402CD09B01DC02DC025302DC02DC02DC02DC028A
S214402CE0DC02DC02DC02DC02DC02DC025A021B02F2
S214402CF0DC02DC02DC026E021B02DC02DC02730237
S214402D00DC02F50182010902D702DC029A02DC02EB
S214402D10A700DC02DC022E020AF1080A039B2B44C1
S214402D20039386E75946069800F0ACFD18BBBBF8FF
S214402D300C1001F01A030A2B7FF44BAFBBF90E3090
S214402D40002BFFF646AFDBF86430DB0705D48F0573
S214402D5003D4DBF8580001F0C7FA2B4642465946E2
S214402D60069800F04DFD039003982DB0BDE8F08F17
S214402D7000F0F4FE09E7DBF86430D90704D4BBF86A
S214402D800C309A0540F1AA844FF0FF330393039822
S214402D902DB0BDE8F08FDBF8580001F0A3FABBF980
S214402DA00C0081B2FBE67642079243F0040398F8A3
S214402DB000204FE708969E0600F150840799DD06EE
S214402DC00A4600F1EF83580640F1EC830E88043142
S214402DD00027012207914FF000018DF8371000259B
S214402DE0611C00F0168123F08001029156EA07012B
S214402DF040F01481002C40F05C83002A40F0B783FA
S214402E0013F00103059300F057840DF1B00B302307
S214402E100BF8413D059BA342B8BF234601930DB135
S214402E2001330193029B13F00203099302D0019BE6
S214402E3002330193029B13F084030A9340F01782F7
S214402E40089B019A9D1A002D40F31182102D40F3E5
S214402E509084109B119AC44ED6461027A246194617
S214402E60069C07E001F1020C0EF1080E0146103DEB
S214402E70102D11DD481C1032072811928EE8C00034
S214402E801090EFDD002A40F0E481103D102D1146F1
S214402E904FF0010CCE46EDDC54466146F2462A44DD
S214402EA007291192CAF80060CAF80450109100F33E
S214402EB0EC829DF837500AF1080A481C002D40F075
S214402EC0DE81099B002B00F0F88102320EA9022316
S214402ED00728119210908AE80A0040F3EA81002AF7
S214402EE040F08C830A9B802B4FF001001146CA4667
S214402EF040F0E781089B019D5E1B002E40F3E18178
S214402F00102E9A4D40F35084D4461027A246069C75
S214402F1007E001F1020E0CF1080C0146103E102E9F
S214402F2011DD481C1032072811928CE8A000109042
S214402F30EFDD002A40F09D82103E102E4FF0010E2D
S214402F401146CC46EDDC5446E2463244BEF1070F0D
S214402F5011928AE86000CDF840E000F369830AF1F8
S214402F60080A0EF101007146ABE1089613F0200204
S214402F7040F08C8313F0100140F01A8313F04002A7
S214402F8000F0168307980A460146043106880791E2
S214402F90002720E7089643F01003E7E7089643F03B
S214402FA0100308E743F0800398F8002052E6A2F1A9
S214402FB03001002618F8012B06EB860601EB460684
S214402FC0A2F130010929F5D946E60896002840F0D6
S214402FD0088443F010039E0600F14C83DD0600F1A2
S214402FE0F382580640F1F082079DB5F900602A4604
S214402FF0F7170432304639460792002871F100022E
S214403000C0F25D83611C9DF837504FF001027FF49B
S214403010EAAE56EA070100F04D820293012A00F01C
S2144030208C82022A40F05C820B98CB46330906F02D
S2144030300F0143EA07733A091E461746435C0BF8EE
S214403040013D56EA0703F1D1A9EB0B030593E1E6F0
S214403050002840F0C083990600F16783DA0600F145
S214403060F1805B0640F1EE80079A136804320792BF
S214403070BDF80C201A80B8E507983D4A08960B9292
S21440308006687822302104308DF8392043F0020358
S214403090079000278DF8381002229CE608960028F4
S2144030A099D08DF8375096E798F80020002D7FF499
S2144030B0D1AD01202025CDE543F0010398F800204E
S2144030C0C8E50896002840F0938329490B919F064F
S2144030D000F1E8820798DE06014600F170825D0640
S2144030E040F16D820431068807910027D80740F1E9
S2144030F0228256EA070100F01E8230218DF83920E0
S21440310043F002038DF83810022264E60896002841
S21440311040F06B8317490B91D9E7079908960A68E0
S2144031208DF848204FF000000A468DF837000432EC
S21440313001200190079205900DF1480B0293002460
S21440314070E643F0400398F8002083E598F80020A6
S2144031506C2A03BF98F8012043F0200308F10108C9
S21440316043F0100376E500BF6456400074564000B6
S214403170485640003456400007990E680A46002ECE
S21440318002F10402FFF60FAE079298F8002061E5C0
S21440319098F8002001202B255CE507990896D1F881
S2144031A000B04FF000028DF837200E1DBBF1000F27
S2144031B000F0E582671C00F0C48222460021584693
S2144031C0019301F0D5FB019B002800F0E582A0EBBF
S2144031D00B020592079602939DF83750002419E695
S2144031E098F800202A2A08F1010700F0E982A2F1A7
S2144031F030010929B8464FF000043FF62DAD18F8C7
S214403200012B04EB840401EB4404A2F130010929AC
S214403210F5D921E543F0200398F800201AE50896F2
S214403220002840F0DB82002A00F0E78001218DF87C
S21440323048204FF0000201918DF8372005910DF19E
S214403240480B7BE7079A136804320792039A1A6082
S214403250CBE40FAA04992046FFF74AFC002840F02A
S21440326039811099119A01F1010CCE46FFE510996B
S214403270119A481C9DF83750002D3FF422AE01327B
S2144032800DF137050121072811921090CAF8005019
S214403290CAF8041040F30881002A40F0BC81099B1C
S2144032A0002B3FF41FAE0EAB022208461C931D9225
S2144032B0CA4601460AF1080A01300A9B802B3FF4B1
S2144032C019AE059BE41A002C2EDD102CB34D1EDDE6
S2144032D0D6461026069FDDF810A006E0881C0EF1A4
S2144032E0080E1946103C102C10DD4B1C1032072BD4
S2144032F011928EE860001093F0DD002A65D1103CF4
S214403300102C4FF001001146CE46EEDCF246224429
S21440331007281192CAF80050CAF80440109000F3EB
S21440332085800AF1080A01300599CAF800B00A44B7
S21440333007281192CAF80410109040F38280002AA1
S21440334040F01881029B1092580735D5089B01998A
S2144033505C1A002C40F3E780CA46102C40F31882D3
S21440336010998F4E069FDDF810B0102506E0881C99
S2144033700AF1080A1946103C102C11DD4B1C10327D
S214403380072B1192CAF80060CAF804501093EEDD7D
S21440339042BB103C102C4FF001001146CA46EDDCF3
S2144033A0224407281192CAF80060CAF804401090D8
S2144033B051DD002A40F09B81039B089A01998A427E
S2144033C0ACBF9B185B1803934EE00FAA5146384695
S2144033D0FFF78EFB002840F03F811099119A481C59
S2144033E0CE467FE70FAA59463846FFF781FB60B9BD
S2144033F01099119A481CCA46BDE7119BDDF810B0DB
S214403400002B40F0D48100231093DBF8643013F097
S214403410010FBBF80C3002D19A0540F1DE805B0606
S2144034203FF5B2AC03982DB0BDE8F08F002A40F0CF
S2144034300681059A1D9201231192CDF870B0109323
S214403440CA460AF1080A029B590704D5089B019907
S2144034505C1A002C81DC039B089901988142ACBF22
S2144034605B181B18039372BB00231093CA46FFF7E2
S214403470BCBB0FAA04992046FFF73AFB50BB1099F5
S214403480119A01F1010ECC4648E5002A40F04081F1
S2144034909DF83710002900F01B8101220DF13701FD
S2144034A010461D921C91CA4601460AF1080A013090
S2144034B007E5029B012A00F09880022A0DD102936C
S2144034C000260027B0E50FAA04990698FFF710FBE0
S2144034D00028C9D0DDF810B097E7029300260027F1
S2144034E0494600E05946F20842EA4772F80806F0B4
S2144034F0070307461646303356EA070201F8013CF2
S21440350001F1FF3BEED1029AD6077FF59DAD302BF9
S2144035103FF49AAD023930230BF8013CA9EB010386
S21440352005938B4676E4039B089A8A42ACBF9B1869
S2144035305B18039398E702224DE4002F08BF0A2E3B
S21440354052D3CB46304639460A22002301F09AFE33
S21440355030320BF8012D3046394600230A2201F05E
S21440356091FE06460F4656EA0703EBD16CE50594F6
S214403570CB464FE40FAA04990698FFF7B9FA0028FD
S214403580A8D1119ACA465EE70FAA04990698FFF793
S214403590AFFA00289ED1CA46FFF7C0BB745640001B
S2144035A0645640000431166807910122002712E451
S2144035B00798014604310668079100270BE40E6819
S2144035C004310791002791E507990E680A46F717D8
S2144035D004320792304639460FE5DBF8580000F0D3
S2144035E083FEBBF80C301AE7029B02930DF1B00B3A
S2144035F0303601230BF8416D05930BE40FAA04996E
S2144036000698FFF775FA00287FF464AF1099119A70
S214403610481CCA4651E60FAA04990698FFF768FA6E
S21440362000287FF457AF1099119A481CCA4648E4C0
S214403630002A40F0918001201146CA4641E60FAA72
S21440364004990698FFF754FA00287FF443AF109881
S214403650119A0130CA4667E6D346D6E6079E073635
S21440366026F0070202F10801D2E90067079101221D
S214403670FFF7B1BB079E073626F00706D6E90001DE
S21440368006F10802079206460F46B6E4079E07363E
S21440369026F0070202F10801D2E9006707910022EE
S2144036A0FFF799BB079E073626F0070101F1080091
S2144036B00790D1E9006719E5CB46FFF7ABBB2D2550
S2144036C0764267EB47078DF837500122FFF788BBF5
S2144036D0099BB3B911460120CA46F2E5DBF858000B
S2144036E000F002FE4FF0FF330393FFF750BB0FAAE4
S2144036F004990698FFF7FCF900287FF4EBAE119A80
S214403700A9E60EAB02221C931D920120CA46D0E5C4
S2144037100FAA04990698FFF7EBF900287FF4DAAE73
S2144037201099119A481CCA46A4E5079A039913684B
S214403730CD170846043229460792C3E90001FFF731
S21440374054BA584607960293FFF7BAF800240590F5
S2144037509DF83750FFF75EBB0FAA04990698FFF70F
S214403760C7F900287FF4B6AE1099119A481CCA468D
S214403770A7E51099119A204E0131FFF790BB062C11
S21440378028BF0624059407960194DFF870B0D5E468
S2144037901098194E013003E605949DF83750079669
S2144037A002930446FFF736BB8646FFF7CEBB069825
S2144037B00FAA5946FFF79CF900283FF424AE24E6AA
S2144037C0079998F801200C68043144EAE474B84636
S2144037D00791FFF73FBA8DF837503CE48DF83750E5
S2144037E021E58DF83750FFF7F4BB8DF8375091E45C
S2144037F08DF8375069E400BF645640005C56400080
S2144038002DE9F0410C46ADF58D6D8989666EE589EA
S214403810199621F002010646E069ADF80C101746ED
S2144038204FF48061626AADF80E5098461AAD002398
S214403830079016A809920693009504950291059163
S21440384000F04CFD43463A4669463046FFF790F94D
S214403850051E07DB3046694600F028F9002818BFE9
S2144038604FF0FF35BDF80C305B0603D5A38943F017
S2144038704003A381169800F033FD28460DF58D6D64
S214403880BDE8F08138B5304B1B6805460C4613B191
S2144038909A6B002A38D0B4F90C2093B218070CD58E
S2144038A02069A8B113F001021ED0636900225B4272
S2144038B0A361A260F0B1002038BDD9063CD55807B8
S2144038C026D4206942F00803A3819BB20028E9D1A0
S2144038D003F42072B2F5007FE4D02846214600F07B
S2144038E033FDA3892069DDE7990758BF6269A26066
S2144038F00028E0D1B4F90C301A06DDD543F0400379
S214403900A3814FF0FF3038BD184600F027F9C2E7D4
S214403910216B51B104F14003994204D0284600F08F
S21440392043FAB4F90C200023236300232069636024
S21440393022F024022060C5E742F0400209232B60B3
S2144039404FF0FF30A28138BD68014020024B13B1D2
S214403950024800F005B8704700000000CD3B40002C
S214403960002301461A46184601F064BBB1F90C30F4
S2144039709AB22DE9F0410D46110780463AD46A685E
S21440398043F40063002AAB816FDDAC6A002C49D05B
S21440399000229BB2D8F80060C8F8002013F480528A
S2144039A067D02A6D5F0705D569682B6B521A0BB135
S2144039B0EB6BD21A0023E9694046A047441C3CD032
S2144039C0B5F90C302A692A6023F400630022AB81E3
S2144039D0DB046A6047D4296BC8F8006011B305F170
S2144039E04003994202D0404600F0DEF900202863AA
S2144039F0BDE8F0812E69AEB12C682E6091070CBFF1
S214403A006B690023A41BAB600AE0234632466F6A0C
S214403A10E9694046B8470028A4EB0004064404DDA4
S214403A20002CF2DC0020BDE8F081AB8943F0400377
S214403A30AB814FF0FF30BDE8F081D8F800401D2C38
S214403A40F3D8194BE340DB4313F00103EDD1B5F94E
S214403A500C206B6022F400632969AB81DA0429608C
S214403A60B9D5002CB7D12865B5E7EA6B002A8CDCBF
S214403A70D8E70123E9694046A047431C024602D0E6
S214403A80AB89AC6A8EE7D8F80030002BF8D01D2BF7
S214403A9001D0162B02D1C8F80060C3E7AB8943F0CB
S214403AA04003AB81BDE8F0810100402038B50D46AB
S214403AB0044608B1836BBBB1B5F90C0088B16B6E98
S214403AC0DB0701D4810517D520462946FFF74EFF70
S214403AD06B6EDA07044602D4AB899B0507D52046B1
S214403AE038BD0446204638BD00F038F8E4E7A86DF7
S214403AF000F0FAFB204638BDA86D00F0F3FBE3E784
S214403B00014900F0AFBB00BF1D51400010B5002377
S214403B1004468181C28103604360836043660361DB
S214403B2043618361194608225C30FEF761FE074810
S214403B300749084A084B2062E4616162A262E36278
S214403B4004F15800BDE8104000F0C8BB614E40008C
S214403B50854E4000C14E4000E14E400010B5044640
S214403B60124800F0BFFBA26BD2B904F53B73104875
S214403B70C4F8E8320321C4F8E022E063C4F8E41253
S214403B8060680421FFF7C2FF01220921A068FFF701
S214403B90BDFF02221221E068FFF7B8FF0123A363AE
S214403BA00248BDE8104000F09FBB00BF18B6432057
S214403BB0013B4000014800F095BB00BF2CB64320B7
S214403BC0014800F091BB00BF2CB6432038B50A4CE4
S214403BD00A4D641BA4100AD004F18043013B05EB58
S214403BE08305013C55F804399847002CF9D1BDE8C7
S214403BF0384001F0DBBD00BFBC574000B85740001E
S214403C002DE9F04782B080468946144600F054FBC2
S214403C10012836D04A4604F15C0301A9404601F02B
S214403C20BBF9421C064625D0A8B39DF804E0002503
S214403C300DF1040A09E023685A1C226083F800E06C
S214403C400135B54227D215F80AE0A368013B002BA0
S214403C50A360F0DAA769BB4271462246404602DBC3
S214403C60BEF10A0FE7D101F03FF9431CE8D102B09C
S214403C70BDE8F087A38943F04003A38102B0BDE8C6
S214403C80F08709F1FF33FE2BC4D85FFA89FE06465B
S214403C908DF804E0CBE7484602B0BDE8F08700BFA9
S214403CA030B5536E13F0010FB2F90C30144683B0A2
S214403CB005469AB201D190051CD5900406D4626E92
S214403CC043F4005342F40052A381626628462246DB
S214403CD0FFF796FF636EDA07054602D4A3899B0575
S214403CE002D5284603B030BDA06D00F0FDFA284648
S214403CF003B030BDA06D019100F0F4FAB4F90C3079
S214403D0001999AB2D9E700BFF8B5244F0C4606464B
S214403D1000F0E2FEBB685D68C4F57E610F3125F0B9
S214403D200305294421F47F6121F00F01A1F5805459
S214403D30B4F5805F07DB0021304601F07FF8BB68B2
S214403D402B44984204D0304600F0CCFE0020F8BD0C
S214403D506142304601F072F801300DD0104BBA681F
S214403D6019682D1B45F001053046091B5560196042
S214403D7000F0B8FE0120F8BD0021304601F05EF8A4
S214403D80BA68831A0F2BDEDD064C0549246843F0DB
S214403D900103001B53600860D5E700BF08074020BA
S214403DA040B54320100B4020002944D02DE9F04177
S214403DB00D46804600F090FE55F8047C694927F091
S214403DC00103A5F10804E2188E685068B24220F05C
S214403DD003005ED0FE0750600BD455F8087CE41B09
S214403DE001F1080EA56875453B446DD0E768EF6065
S214403DF0BD6015186D68ED073ED543F00102626060
S214403E00E350B3F5007F17D2DB08581C9A104D6874
S214403E1051F83070A7600123934001EBC0022B435A
S214403E20083AE2604B6041F83040FC604046BDE8EE
S214403E30F04100F057BE70475A0A042A52D89A09F1
S214403E4002F13907FF0002F13805C819CA59083887
S214403E5090424FD0516821F003018B4232D2926893
S214403E609042F7D1C368A060E3609C60C46040465F
S214403E70BDE8F04100F036BE95683B4FBD42034476
S214403E8040D0D068E86043F0010285606260E3504D
S214403E90B7E7FF07034407D455F8082CA41A134481
S214403EA0A068E268C2609060304A126843F0010041
S214403EB0934260608C60B9D32D4B40461968FFF73B
S214403EC023FFB3E71046CDE711184968C90744D425
S214403ED09168D268CA60034443F001009160606014
S214403EE0E350A3E7142A16D802F15C07FF0002F15C
S214403EF05B05AAE7AA1001234D6893402B434B600D
S214403F000346B0E743F001024C610C61E560A560F2
S214403F106260E3508AE7542A06D81A0B02F16F070C
S214403F20FF0002F16E0590E7B2F5AA7F06D8DA0BDD
S214403F3002F17807FF0002F1770586E740F2545019
S214403F40824206D89A0C02F17D07FF0002F17C05FA
S214403F507BE74FF47E777E2577E743F0010161608B
S214403F60136063E70807402010074020140B4020EA
S214403F7070B543209368002B73D02DE9F04F8B89A2
S214403F8083B00C4619070090164626D5226922B300
S214403F9013F0020035682CD04FF00009B04FC846E9
S214403FA0B246B84543464A4628BF3B460098B8F115
S214403FB0000F50D0E169666AB047002858DDDAF84D
S214403FC008301B1A8144A8EB0008CAF80830002BBA
S214403FD0E7D1002003B0BDE8F08F21460098FFF7F8
S214403FE051FC002840F03381A389356813F0020065
S214403FF0D2D113F0010945D14F46019637B39A0501
S214404000D4F8088040F183804745C346C0F0AB8073
S21440401013F4906F40F0AC802068BA465A46494642
S21440402000F0F6FCA2682368A2EB08025B44A2609C
S2144040302360019A9368A3EB0A03D144A7EB0A07CF
S2144040409360002BC5D0A389002FD8D1D5F8009017
S2144040506F680835D2E7D5F80090D5F80480083563
S2144040609FE70020704721460098FFF71FFD70B37A
S214404070B4F90C3043F040034FF0FF30A38103B057
S214404080BDE8F08F814633464E46A8469A464D4692
S2144040904EB380B3206823696269B145CB4628BFDA
S2144040A0B34698425F4604D9A36813449B4500F341
S2144040B0A68093454BDB1346676AE16900982A461B
S2144040C0B847071ED4DDB9EB0709CCD00120DAF893
S2144040D00830DB1B3D44F61BCAF80830002B3FF483
S2144040E078AF002ED5D108F1080313E96000984652
S2144040F00833002EF9D032460A21284600F038FC14
S214404100002800F0A1800130A0EB0509C2E7206836
S2144041102369984202D863699F425DD2B84528BF5A
S214404120B8464246494600F073FCA3682268A3EBB3
S21440413008034244A36022600BB1C24679E7214699
S2144041400098FFF7B3FC002892D1C24671E75A4662
S214404150294600F05DFCA2682368A2EB0B025B4494
S214404160A2602360AFE72068B846BA46BB4655E72C
S21440417062692068216902EB4208A0EB010A08EB5D
S214404180D8780AF101004FEA68083844404542466C
S21440419084BF804642465B0544D51146009800F0F1
S2144041A01DF98346002855D052462169FEF786FA07
S2144041B0A38923F4906343F08003A3810BEB0A00AA
S2144041C0A8EB0A03C4F810B0C4F814802060A360BB
S2144041D0B846BA46BB4621E76FF00041B94228BF11
S2144041E039464A4691FBF3F10098666A03FB01F3B1
S2144041F0E169B047B0F1000A3FF71BAF38E71A460F
S2144042002946019300F004FC2268019B00981A445A
S21440421022602146FFF74AFC019B00287FF428AF26
S2144042201F4650E7009800F063FC83460028C5D13F
S214404230009D21692846FFF7B7FDB4F90C300C22E3
S21440424023F080032A6015E706F1010922E74FF0C4
S214404250FF30BFE6009A0C231360B4F90C3009E730
S21440426000FCFF7F2DE9F84310F538771FD08846CD
S21440427006464FF000097D68BC68013D11D4A3890D
S214404280012B05F1FF3508D9B4F90E30013321462C
S214404290304602D0C04749EA00096B1C04F1680466
S2144042A0EDD13F68002FE6D14846BDE8F883B946D1
S2144042B04846BDE8F88300BF044B054A1B685B6B65
S2144042C0002B08BF134693F828017047680140202A
S2144042D09C054020D0F8EC00704700BF704700BFF8
S2144042E0704700BF704700BF704700BF70B50C46B0
S2144042F0B1F90E10002990B015461E4614DB01AAEF
S21440430000F06EFF00280FDB029A02F47042A2F51E
S2144043100052B2FA82F252094FF480634FF40060C2
S21440432032602B6010B070BDA289002312F080006E
S214404330336004D0402218462A6010B070BD4FF457
S21440434080632B6010B070BD8A8992070B4606D5F5
S21440435001F1430201211A601A6159617047F0B5B4
S21440436083B001AB6A460C460646FFF7BFFF00998E
S2144043700546304600F032F8B4F90C30D8B1019A10
S214404380154F0099F76343F08003A38120602061B6
S21440439061611AB92B43A38103B0F0BD3046B4F92E
S2144043A00E1000F031FFA0B1A38923F0030343F0C1
S2144043B001031BB2EEE79A05EED423F0030304F1A3
S2144043C0430243F002030121A3812260226161611E
S2144043D0E2E7B4F90C30DDE7013B40002DE9F04F51
S2144043E001F10B06162E83B0054640F29E8036F04D
S2144043F0070600F1BD80B14200F2BA8000F06CFBC7
S214404400B6F5FC7FC0F09382730A00F0B880042BA8
S21440441000F27981B30903F1390003F1380EC30085
S214404420BF4F3B44A3F108015C68A14206D10CE0B3
S214404430002A80F2AA80E468A14206D0636823F08E
S21440444003039A1B0F2AF3DD70463C69DFF8E4E26B
S214404450744500F0AB81636823F003039A1B0F2A70
S21440446000F39081002AC7F814E0C7F810E080F205
S2144044709D80B3F5007F80F06181DB0803F1010C7D
S21440448099107A6857F83C80C4F8088001238B401E
S21440449007EBCC0113430839E1607B6047F83C40AA
S2144044A0C8F80C408210012494409C4200F28B8055
S2144044B01C4206D120F0030064001C4200F10400B8
S2144044C0FAD007EBC009CC468046DCF80C309C4559
S2144044D007D16DE1002A80F27B81DB689C4500F0C5
S2144044E06781596821F003018A1B0F2AF2DDD3F851
S2144044F00CC0D3F8088000939C19284646F0010665
S21440450042F001055E60C8F80CC0CCF808807C61BB
S2144045103C61C4F80CE0C4F808E065605A5000F00E
S214404520E1FA009B03F108041EE0102920D800F0B1
S214404530D3FA102618230220794F3B44A3F10802F1
S2144045405C68944200F03D816368E168A66823F0A9
S2144045500303234428465A68F16042F001028E6005
S2144045605A6000F0BFFA0834204603B0BDE8F08F2A
S21440457000240C2320462B6003B0BDE8F08F40207B
S2144045804FF400734FF03F0E4AE72344E1685A6801
S214404590A66842F00102F16028468E605A6000F03C
S2144045A0A1FA0834204603B0BDE8F08F23442846DD
S2144045B05A6842F001025A6000F094FA08342046E5
S2144045C003B0BDE8F08FBC68636823F00308B045CD
S2144045D004D3A8EB06030F2B00F38580DFF8589131
S2144045E0504BD9F800201B680132334404EB080ACC
S2144045F000F0558103F580530F3323F47F6B2BF087
S2144046000F0B5946284600F019FC411C024600F0A4
S214404610FC80824500F2F780434B19685944196084
S21440462000F04D81D9F8000001301BBFA2EB0A0A0A
S2144046305144C9F80020196012F0070100F01581B6
S214404640C1F10800C1F580510244083102EB0B0964
S214404650C9F30B09A1EB0909494628460193009284
S21440466000F0ECFB431C9DE80C0000F04381801AF0
S214404670484440F001001968BA604944BC42506062
S214404680196017D0B8F10F0F40F2FB806068A8F1B0
S2144046900C0222F0070204EB020E00F001004FF07D
S2144046A0050C10430F2A6060CEF804C0CEF808C050
S2144046B000F217811D4BBC681A68914288BF19608A
S2144046C01B4B1A689142626888BF196022F0030249
S2144046D09642A2EB060301D80F2B04DC284600F0D6
S2144046E001FA002440E7A21943F0010346F0010610
S2144046F066602846BA60536000F0F4F908342046F5
S21440470003B0BDE8F08F142B71D9542B00F2A38070
S214404710330B03F16F0003F16E0EC30080E600BF5B
S2144047200807402070B5432040B5432068B5432075
S2144047306CB5432010074020100B40205A0A042A2C
S2144047405BD9142A00F2AE8002F15C01C9005B32EC
S21440475007EB010C7958ACF1080C8C4500F08880CA
S2144047604A6822F00302934273D289688C45F7D197
S214404770DCF80C207B68E260C4F808C09460CCF893
S2144047800C408FE6A11946F0010C42F00106C4F831
S21440479004C0284679613961C1F80CE0C1F808E0E8
S2144047A04E60E25000F09EF90834DDE67B6879E61C
S2144047B008F1010818F0030F0CF1080C7FF485AEE1
S2144047C02DE0DC68A34208BF02303FF43EAEBBE6B5
S2144047D019441C464A68DB6854F8086F42F00102E8
S2144047E04A602846F3609E6000F07CF9BCE603F120
S2144047F05C0003F15B0EC30012E69A0902F1390130
S214404800C9003832A4E7BC4254D0BC68626822F083
S21440481003025DE759F80839994540F0868010F064
S214404820030F00F1FF30F5D17B6823EA04037B6079
S21440483064009C423FF6C7AE002C3FF4C4AE1C4218
S21440484040467FF43EAE64001C4200F10400FAD0BD
S21440485037E68C468CE7B3F5AA7F15D8F30B03F101
S214404860780003F1770EC300DAE54FF48051EDE6A9
S2144048707B689210012101FA02F213437B60624684
S21440488079E70123536029E740F25452934222D8F5
S214404890B30C03F17D0003F17C0EC300C0E503F1C9
S2144048A0100BAEE6542A29D81A0B02F16F01C90044
S2144048B06E324DE7204B196859441960B2E6CAF388
S2144048C00B0000287FF4AEAE08EB0B03BA6843F04B
S2144048D001035360EEE67F204FF47E734FF07E0E6A
S2144048E09EE504F1080128460093FFF75DFA009B19
S2144048F01968DFE601204FF00009BCE6B2F5AA7F52
S21440490005D8DA0B02F17801C900773220E740F289
S21440491054518A4205D89A0C02F17D01C9007C3276
S21440492016E74FF47E717E2212E77B6880E7F00838
S21440493006F1080300E600BF40B5432082B049B107
S2144049405AB16BB113780B601278101C18BF012057
S21440495002B0704701A9002AF3D1104602B0704752
S2144049606FF00100F4E700BF000000000000000008
S21440497001F0FF01102A2BDB10F0070F08D010F8CB
S214404980013B013A8B422DD010F0070F42B3F6D1CF
S214404990F0B441EA012141EA014122F007047FF0E8
S2144049A000070023F0E80256083C85EA010586EA3F
S2144049B0010685FA47F5A3FA87F586FA47F6A5FA7B
S2144049C087F68EB9EED1F0BC01F0FF0102F0070287
S2144049D032B110F8013B013A83EA010313B1F8D132
S2144049E00020704701387047002D06BF3546033813
S2144049F0073815F0010F07D1013015F4807F02BF4C
S214404A00013015F4C03F0130F0BC0138704700BF9C
S214404A108842F0B50DD98B1898420AD28418002ADD
S214404A2051D0224613F8014D02F8014D9942F9D172
S214404A30F0BD0F2A48D941EA00039B0746D100F152
S214404A40100401F11003154653F8106C44F8106C2E
S214404A5053F80C6C44F80C6C53F8086C44F8086C2B
S214404A60103D53F8046C44F8046C0F2D03F110030A
S214404A7004F11004E8D8A2F1100323F00F0302F06B
S214404A800F0E1033BEF1030F1944034421D91E1FE5
S214404A900D467446043C55F8047B46F8047F032CC8
S214404AA0F8D8AEF1040424F003040434214423442B
S214404AB002F0030262B1013B0A4411F8014B03F8CD
S214404AC0014F8A42F9D1F0BD0346F3E70346F2E7C9
S214404AD0F0BD7246EEE700BF0148FFF703BC00BFDB
S214404AE01CB643200148FFF7FFBB00BF1CB643205F
S214404AF0002900F095802DE9F04F0D46164683B00C
S214404B00804606F10B07FFF7E7FF55F804EC162F33
S214404B102EF00304A5F108093CD810221746BE42E1
S214404B203DD8944243DAC44B996809EB0400884266
S214404B3000F0B480436823F0010101444968C90786
S214404B404CD51EF0010F00F09B8031464046FFF7E3
S214404B5045FC064600283AD055F8043C23F00103AD
S214404B604B44A0F108029A4200F02181221F242AD9
S214404B7000F20781132A00F2DB8003462A461168BA
S214404B8019605168596092689A6029464046FFF716
S214404B900BF91CE027F00707002F3A46BFDA00263D
S214404BA00C233046C8F8003003B0BDE8F08F2E46E0
S214404BB0E31B0F2B1ED8D9F8043003F00103234320
S214404BC04C44C9F80430636843F0010363604046D0
S214404BD0FFF788FF304603B0BDE8F08F23F00303AD
S214404BE0E11891421FDBC36882682E46D3600C46AC
S214404BF09A60DDE7D9F8042009EB070102F00102CC
S214404C004C4443F001031743C9F804704B60636893
S214404C1043F00103083163604046FFF7C5F8D6E726
S214404C201146FFF7DBBB1EF0010F8ED155F8081C6E
S214404C30A9EB010ADAF8041021F003010B442344DF
S214404C40934225DBC26881685646CA609160DAF8AE
S214404C500C1056F8080F221F242AC160886000F204
S214404C609480132A6FD92968CAF808106968CAF868
S214404C700C101B2A00F2A28008350AF1100263E0ED
S214404C8055F8083CA9EB030ADAF8041021F00301B2
S214404C9063189342FFF659AF5646D8E7416821F06D
S214404CA0030BA34407F11000834556DA1EF0010FAC
S214404CB07FF44BAF55F8081CA9EB010ADAF804104C
S214404CC021F003018B445845E2DC5646DAF80C10D6
S214404CD056F8080F221F242AC160886000F28F8091
S214404CE0132A40F28A802968CAF808106968CAF808
S214404CF00C101B2A00F28A8008350AF11002296837
S214404D00116069685160A96891600AEB0701ABEBD6
S214404D10070242F0010299604A60DAF8043003F074
S214404D2001031F434046CAF80470FFF7DBFE51E715
S214404D302B6803606B6843601B2A2DD800F108037C
S214404D4005F108021BE73246296811606968516020
S214404D50A96891601C46D1462AE709EB0701ABEBF0
S214404D60070B4BF0010299604A6055F8043C03F08B
S214404D7001031F43404645F8047CFFF7B3FE2E462A
S214404D8028E72946FFF744FEFFE6294630461C46FC
S214404D90D146FFF73DFE0BE7AB688360EB68C36028
S214404DA0242A17D000F1100305F11002E7E650F868
S214404DB0043C23F003031C442E46F9E6A968CAF8CF
S214404DC01010E968CAF81410242A0CD010350AF1DD
S214404DD01802B9E72B6903616B69436105F1180254
S214404DE000F11803CBE62A69CAF818206A69CAF89F
S214404DF01C2018350AF12002A6E732467FE72946EE
S214404E0030460193FFF704FE019B7EE7A968CAF887
S214404E101010E968CAF81410242A03D010350AF195
S214404E2018026CE72A69CAF818206A69CAF81C2072
S214404E3018350AF1200262E70807402038B5074CCB
S214404E400023054608462360FCF74EF9431C00D075
S214404E5038BD2368002BFBD02B6038BD30B64320CE
S214404E6010B50C46B1F90E1000F0F6F9002803DB39
S214404E70236D0344236510BDA38923F48053A38187
S214404E8010BD00BF2DE9F0411646B1F90C201F4673
S214404E90D3050C46054607D500220223B1F90E106D
S214404EA000F0C4F9B4F90C20B4F90E1022F4805284
S214404EB0A2813B4632462846BDE8F04100F0A4B801
S214404EC010B50C46B1F90E1000F0B0F9A389421C9B
S214404ED00EBF23F4805343F480532065A38110BD56
S214404EE0B1F90E1000F008B9F8B50D46144606465E
S214404EF010B1836B002B4BD0B4F90C20A369A36090
S214404F0091B2080739D52369002B36D0EDB2890413
S214404F102F4615D522686169D31A8B421CDA0133B5
S214404F20A168501C0139A1602060157062699A42E0
S214404F301AD0A389DB0701D50A2D15D03846F8BD0F
S214404F40616E42F4005221F40051A28122686166EB
S214404F506169D31A8B42E2DB21463046FEF7A6FD56
S214404F6040B922680123DBE721463046FEF79EFD26
S214404F700028E3D04FF0FF37E0E721463046FEF703
S214404F8081FC0028F6D1B4F90C20236991B2BDE724
S214404F90FEF7E4FDB0E700BFF0B5064685B01F4615
S214404FA089B1104C104D2468646B002C08BF2C4609
S214404FB0D4F8E040A047431C03D100228A233A603D
S214404FC0336005B0F0BD0C460649074A0968496B90
S214404FD0002908BF11462246D1F8E04001A9A04763
S214404FE0E9E700BF680140209C05402021B1FF2A28
S214404FF004D80A7001207047084670478A23036029
S2144050004FF0FF30704700BF70B50D46084C114654
S21440501006461A46284600232360FBF753F9431CEE
S21440502000D070BD2368002BFBD0336070BD00BF3E
S21440503030B643202DE9F8432C4D0646286898465E
S2144050400F469146FFF74EF9294B1C68D4F8483175
S214405050002B3ED05A681F2A1CDC02F1010E76B1A6
S21440506003EB82010124C1F88890D3F8880194406C
S2144050702043022EC3F88801C1F8088123D00232AB
S214405080C3F804E0286843F82270FFF72DF90020A3
S214405090BDE8F883174B0BB34FF4C870AFF30080EE
S2144050A00346D8B1D4F848210260002141600A4640
S2144050B0C4F848014FF0010EC0F88811C0F88C11B2
S2144050C0002EDCD0CCE7D3F88C110C43C3F88C41CF
S2144050D0D5E704F5A673C4F84831BBE72868FFF760
S2144050E003F94FF0FF30BDE8F88300BF9805402035
S2144050F0305640000000000038B5074C00230546F7
S21440510008462360FCF70CF8431C00D038BD2368E3
S214405110002BFBD02B6038BD30B6432070B559B15C
S21440512005460C4610B1836B002B3CD0636ED80707
S21440513005D5B4F90C302BB90026304670BDA3898E
S21440514099053CD521462846FEF710FCE36A0646FC
S21440515033B1E169284698470028B8BF4FF0FF367C
S214405160A3891A0622D4216B41B104F14003994227
S21440517002D02846FEF718FE00232363616C21B157
S2144051802846FEF711FE00236364FEF713FD636EA8
S2144051900022DB07A2810ED5A06DFFF7A1F8FEF72F
S2144051A00FFD304670BDFEF7D9FCBFE721692846A3
S2144051B0FEF7FAFDD7E7A06DFFF796F8ECE7A06D8F
S2144051C0FFF790F8B4F90C30002BBBD1666E16F0A2
S2144051D00106B1D1A06DFFF787F8304670BD00BF1D
S2144051E038B50B46074C0546114618460023236043
S2144051F0FBF799FF431C00D038BD2368002BFBD03B
S2144052002B6038BD30B6432038B5074C00230546E2
S21440521008462360FBF78CFF431C00D038BD23684C
S214405220002BFBD02B6038BD30B6432070B50D4602
S214405230084C114606461A46284600232360FBF7CC
S21440524079FF431C00D070BD2368002BFBD0336031
S21440525070BD00BF30B6432070B50D46084C1146B1
S21440526006461A46284600232360FBF70DF8431CE3
S21440527000D070BD2368002BFBD0336070BD00BFEC
S21440528030B6432053B94AB9002908BF00281CBF8E
S2144052904FF0FF314FF0FF3000F07AB9ADF1080C17
S2144052A06DE904CE00F006F8DDF804E0DDE90223FF
S2144052B004B070472DE9F0478C460D460446089EDC
S2144052C0002B51D18A4217466DD9B2FA82FEBEF102
S2144052D0000F0BD0CEF1200C01FA0EF520FA0CFC94
S2144052E002FA0EF74CEA050C00FA0EF44FEA174A9B
S2144052F0250CBCFBFAF81FFA87F90AFB18CC45EADE
S2144053000C4508FB09F3AB420AD9ED1908F1FF3208
S21440531080F02381AB4240F22081A8F102083D4450
S214405320ED1AA4B2B5FBFAF00AFB105544EA054460
S21440533000FB09F9A14509D9E41900F1FF3380F0D3
S2144053400A81A14540F2078102383C44A4EB090497
S21440535040EA08400021002E61D024FA0EF40023D3
S21440536034607360BDE8F0878B4207D9002E54D076
S214405370002186E821000846BDE8F087B3FA83F1AD
S214405380002940F08E80AB4202D3824200F2FA807F
S214405390841A65EB03050120AC46002E3FD086E814
S2144053A01010BDE8F08712B90127B7FBF2F7B7FA3D
S2144053B087FEBEF1000F34D1EB1B3A0C1FFA87FC78
S2144053C00121B3FBF2F8250C02FB183345EA0345EE
S2144053D00CFB08F3AB4207D9ED1908F1FF3002D2B7
S2144053E0AB4200F2D1808046ED1AA3B2B5FBF2F094
S2144053F002FB105543EA05440CFB00FCA44507D9C4
S214405400E41900F1FF3302D2A44500F2B8801846F2
S214405410A4EB0C0440EA08409DE731463046BDE820
S214405420F087CEF1200405FA0EF307FA0EF720FABD
S21440543004F83A0C25FA04F448EA0308B4FBF2F1FF
S2144054404FEA184502FB11441FFA87FC45EA04451B
S21440545001FB0CF3AB4200FA0EF409D9ED1901F149
S214405460FF3080F08A80AB4240F2878002393D446C
S214405470EB1A1FFA88F5B3FBF2F002FB103345EA4D
S214405480034500FB0CF3AB4207D9ED1900F1FF389A
S2144054906FD2AB426DD902383D44EB1A40EA014127
S2144054A08FE7C1F1200722FA07F88B4005FA01F48E
S2144054B048EA030320FA07FE4FEA134CFD404EEA43
S2144054C0040EB5FBFCF94FEA1E440CFB19551FFAB7
S2144054D083F844EA054509FB08F4AC4202FA01F2B7
S2144054E000FA01FA08D9ED1809F1FF3043D2AC4270
S2144054F041D9A9F102091D442D1B1FFA8EFEB5FBAA
S214405500FCF00CFB10554EEA054400FB08F8A0459D
S21440551007D9E41800F1FF3529D2A04527D902382B
S2144055201C4440EA0940A4EB0804A0FB02894C4511
S214405530C6464D4615D312D056B1BAEB0E0364EBB1
S214405540050404FA07F7CB401F43CC40376074602D
S2144055500021BDE8F0871846F8E69046E0E6C245EA
S214405560EAD2B8EB020E69EB03050138E4E72846B9
S214405570D7E7404691E78146BEE7014678E70238DE
S2144055803C4445E7084608E7A8F102083D442BE7B7
S214405590704700BF6B616B616B61200A00000000C2
S2144055A04154000041542B524553455400000000DE
S2144055B041542B4E414D455365727665720000004E
S2144055C041542B524F4C453000000000686D31303E
S2144055D05F7365727665725F696E6974000000007D
S2144055E0496E696369616C697A616E646F2E2E2EAE
S2144055F00D0A0000436F6E666967204843303520C9
S2144056005365727665722E2E2E0D0A00616E746595
S21440561073000000566F6C756D65000053747269B8
S2144056206E6700005B0000005D2000006C6F670046
S21440563070014020303132333435363738394142C4
S2144056404344454600000000303132333435363767
S214405650383961626364656600000000286E756CC8
S2144056606C290000202020202020202020202020E0
S2144056702020202030303030303030303030303025
S2144056803030303043000000504F5349580000003F
S2144056902E00000000202020202020202020282827
S2144056A0282828202020202020202020202020209D
S2144056B020202020208810101010101010101010DD
S2144056C0101010101004040404040404040404100D
S2144056D0101010101010414141414141010101019B
S2144056E00101010101010101010101010101010165
S2144056F01010101010104242424242420202020271
S2144057000202020202020202020202020202020234
S21440571010101010200000000000000000000000E4
S2144057200000000000000000000000000000000034
S2144057300000000000000000000000000000000024
S2144057400000000000000000000000000000000014
S2144057500000000000000000000000000000000004
S21440576000000000000000000000000000000000F4
S21440577000000000000000000000000000000000E4
S21440578000000000000000000000000000000000D4
S2144057900000000000000000F8B500BFF8BC08BCE0
S2144057A09E4670474D39400065014000F8B500BF41
S2104057B0F8BC08BC9E4670474101400013
S20C4057BCF8FAFF7F010000002F
S2144057C4BFF35F8F0138FBD17047010000093D00ED
S2144057D4C00B402001000000C0D4010000000000BF
S2144057E4000000000000000039114000536F66744A
S2144057F46E696E67000000000000000000000000B4
S214405804000000000000000000000000000000004F
S214405814000000000000000000000000000000003F
S214405824000000000000000000000000000000002F
S214405834000000000000000000000000000000001F
S214405844000000000000000000000000000000000F
S214405854D9114000486172645F636C697070696E08
S2144058646700000000000000000000000000000088
S21440587400000000000000000000000000000000DF
S21440588400000000000000000000000000000000CF
S21440589400000000000000000000000000000000BF
S2144058A400000000000000000000000000000000AF
S2144058B4000000000000000099114000566F6C750F
