:020000040040BA
:10000000502B4020D11A4000811B4000811B400032
:10001000811B4000811B4000811B4000000000004C
:10002000000000000000000000000000811B4000F4
:10003000811B400000000000811B40001D22400089
:10004000811B4000811B4000811B4000811B400040
:10005000811B4000811B4000811B4000811B400030
:10006000811B40000000000089164000A1164000DE
:10007000B9164000811B4000811B4000811B4000DD
:10008000D1164000E9164000811B4000811B400052
:10009000811B4000811B4000811B40004D2140001E
:1000A000811B4000811B4000811B4000811B4000E0
:1000B000811B40000D034000811B4000811B40005C
:1000C000811B4000811B4000811B4000811B4000C0
:1000D00000000000811B400000000000811B400068
:1000E00025034000811B4000811B4000811B400014
:1000F000811B4000811B4000811B4000811B400090
:10010000811B4000811B4000811B4000811B40007F
:10011000811B400000000000000000000000000003
:10012000811B4000811B4000811B4000811B40005F
:10013000811B400000000000811B4000811B40002B
:1001400010B5054C237833B9044B13B10448AFF311
:1001500000800123237010BDC00940200000000072
:100160000C7640000C4B43B10C480D4910B5AFF371
:1001700000800C48036823B910BD0A48036833B9EE
:100180007047094B002BF7D0BDE810401847064BCD
:10019000002BF5D0184700BF000000000C7640008F
:1001A000C40940200C7640000000000080B483B0F9
:1001B00000AF78607B681B6B18460C37BD465DF856
:1001C000047B704780B483B000AF78607B68DB6AE3
:1001D00018460C37BD465DF8047B704780B483B089
:1001E00000AF78607B68094A934201D1012306E0A1
:1001F0007B68074A934201D1002300E000231846A0
:100200000C37BD465DF8047B704700BF00400640D8
:1002100000C0034080B582B000AF03463960FB7177
:10022000FB790A491A013B68134451F82330002B2B
:1002300007D0FB7905491A013B68134451F8233074
:10024000984700BF0837BD4680BD00BF9C0A4020CC
:1002500090B587B000AF78607868284B984704461F
:100260007868274B984703462340FB607868254B06
:100270009847386100237B6139E07B690B2B0FD8ED
:1002800001227B6902FA03F31A46FB681340002B34
:100290002AD03B69DBB2796918461B4B984723E0AB
:1002A0007B690E2B10D87B690C33012202FA03F311
:1002B0001A46FB681340002B16D03B69DBB2796904
:1002C0001846114B98470FE07B690F33012202FA61
:1002D00003F31A46FB681340002B05D03B69DBB2E1
:1002E00079691846084B98477B6901337B617B69C4
:1002F0000F2BC2D900BF1C37BD4690BDAD014000D9
:10030000C5014000DD0140001502400080B500AF8E
:100310000248034B984700BF80BD00BF00C00340A8
:100320005102400080B500AF0248034B984700BF20
:1003300080BD00BF004006405102400080B483B041
:1003400000AF78607B6801221A6000BF0C37BD46A1
:100350005DF8047B704780B483B000AF786039608B
:100360003B68012B01D9012305E001223B689A403B
:100370007B681A61002318460C37BD465DF8047B84
:10038000704780B487B000AFF860B9607A60FA68EF
:10039000BB689B0113447B617B6902221A607B6905
:1003A0004FF0FF329A627B691B6A7B697A685A60F8
:1003B00000BF1C37BD465DF8047B704780B483B036
:1003C00000AF786039607A683B689B01134405226E
:1003D0001A6000BF0C37BD465DF8047B704780B4DF
:1003E00085B000AFF860B9607A60FA68BB689B01BD
:1003F000134414337A681A6000BF1437BD465DF8A1
:10040000047B704780B485B000AFF860B9607A6053
:10041000FA68BB689B0113441C337A681A6000BFFA
:100420001437BD465DF8047B704780B485B000AFDB
:10043000786039607A683B689B011344FB60FB6815
:100440001B6A18461437BD465DF8047B704780B4BC
:100450008DB000AFF860B9607A603B6002233B6109
:1004600008237B612023BB618023FB61BB6BDB0B1B
:100470003B620023FB621AE0FB6A9B0007F130023B
:10048000134453F8203CBA68B2FBF3F3BB62BB6A77
:100490001B0C7B62FA68BB6A9A4201D9002323E0F5
:1004A000FA687B6A9A4206D2FB6A0133FB62FB6AF6
:1004B000042BE1D900E000BFFB6A042B01D9002323
:1004C00012E07B68002B08D0FB6A9B0007F130022A
:1004D000134453F8202C7B681A603B68002B02D031
:1004E0003B68FA6A1A60012318463437BD465DF846
:1004F000047B704780B489B000AFF860B9607A605F
:10050000BB681A017B689A4202D81023FB6101E0A4
:100510000823FB617B68DA00FB69B96801FB03F320
:100520005B081A44FB69B96801FB03F3B2FBF3F300
:10053000BB61BB69DB087B61BB6903F007033B61FF
:100540007B69002B03D07B69B3F5803F01D3012386
:100550000FE0FB69082B05D1FB685B6843F40022C0
:10056000FB685A603B691A047B691A43FB681A628C
:10057000002318462437BD465DF8047B7047000011
:1005800080B582B000AF786078680D4B98477B6883
:1005900000225A607B6800225A627B6800229A62BD
:1005A0007868084B98477868074B98477868074BF6
:1005B00098477868064B984700BF0837BD4680BD0E
:1005C0006107400073064000A7064000C1064000D6
:1005D000DD06400080B584B000AFF860B9607A6095
:1005E000F8681A4B98471A4B00221A60BB68002B18
:1005F00009D0BB681B687A681946F868154B98479C
:100600000346002B01D001231BE0BB685A68BB687E
:100610009B681A43BB681B691A43BB68DB681A43B3
:100620000B4B1B6813430A4A1360094B1B68084AAB
:100630001360FB685A68064B1B681A43FB685A60D4
:10064000002318461037BD4680BD00BF810540001D
:10065000DC094020F504400080B483B000AF78602E
:100660007B6840221A6000BF0C37BD465DF8047BF2
:10067000704780B483B000AF78607B6888221A60CE
:1006800000BF0C37BD465DF8047B704780B483B073
:1006900000AF78607B6810221A6000BF0C37BD463F
:1006A0005DF8047B704780B483B000AF78607B68EE
:1006B00024221A6000BF0C37BD465DF8047B7047EA
:1006C00080B483B000AF78607B684FF480721A60AA
:1006D00000BF0C37BD465DF8047B704780B483B023
:1006E00000AF78607B684FF400221A6000BF0C37BF
:1006F000BD465DF8047B704780B483B000AF78607E
:1007000039607B685B6903F00203002B01D1012390
:1007100005E03B68C3F308027B68DA6100231846F2
:100720000C37BD465DF8047B704780B483B000AFE2
:10073000786039607B685B6903F00103002B01D1AD
:10074000012306E07B689B69C3F308023B681A60DB
:10075000002318460C37BD465DF8047B7047000047
:1007600080B483B000AF78607B68044AC3F8E420AB
:1007700000BF0C37BD465DF8047B70470041535500
:1007800080B582B000AF78600B46FB707B68364A5C
:1007900093420AD100BFFB7819467868334B9847DB
:1007A0000346002BF7D101235AE07B68304A93427D
:1007B0000AD100BFFB78194678682C4B984703464E
:1007C000002BF7D101234BE07B682A4A93420AD1E0
:1007D00000BFFB7819467868244B98470346002BE6
:1007E000F7D101233CE07B68234A93420AD100BF42
:1007F000FB78194678681D4B98470346002BF7D1C4
:1008000001232DE07B681D4A93420AD100BFFB788B
:10081000194678681A4B98470346002BF7D10123F5
:100820001EE07B68174A93420AD100BFFB78194645
:100830007868134B98470346002BF7D101230FE04C
:100840007B68114A93420AD100BFFB781946786849
:100850000B4B98470346002BF7D1012300E0002300
:1008600018460837BD4680BD00080E4021094000EB
:10087000000A0E40001A0E40001C0E4000400240CC
:10088000F90640000080024000C0024080B584B0FC
:1008900000AFF860B9607A600BE0BB681B7819465E
:1008A000F868084B98477B68013B7B60BB68013365
:1008B000BB607B68002BF0D1002318461037BD4683
:1008C00080BD00BF8107400080B485B000AF786074
:1008D00039600023FB607B68AC221A603B681A68B1
:1008E0003B685B68B2FBF3F31B09FB60FB68002B02
:1008F00003D0FB68B3F5803F01D301230AE07B6896
:10090000FA681A623B689A687B685A607B68502272
:100910001A60002318461437BD465DF8047B704703
:1009200080B483B000AF78600B46FB707B685B6976
:1009300003F00203002B01D1012303E0FA787B6866
:10094000DA61002318460C37BD465DF8047B70471A
:1009500080B582B000AF78607B68072B31D801A2E8
:1009600052F823F0C1094000850940008D0940007C
:10097000950940009D094000A5094000AD094000CF
:10098000B70940000020114B98471AE001200F4B97
:10099000984716E000200E4B984712E010200C4BB1
:1009A00098470EE020200A4B98470AE03E2100209D
:1009B000084B984705E03E210120064B984700E090
:1009C00000BF00BF0837BD4680BD00BF0118400012
:1009D0006D184000DD18400080B582B000AF78602F
:1009E0007B68072B26D801A252F823F00D0A40009D
:1009F000110A4000110A4000230A4000230A400067
:100A0000230A4000230A4000230A4000012312E089
:100A10000B4B98470346002B14BF01230023DBB286
:100A200009E0084B98470346002B14BF012300231D
:100A3000DBB200E0002318460837BD4680BD00BF8A
:100A4000391840005519400080B483B000AF786079
:100A50007B68072B25D801A252F823F07D0A4000BD
:100A6000830A4000890A40008F0A4000930A400030
:100A7000970A40009B0A40009F0A40004FF4FA4347
:100A800010E04FF400430DE04FF400430AE0084B40
:100A900008E0084B06E0084B04E0074B02E0064B79
:100AA00000E0002318460C37BD465DF8047B704714
:100AB00000093D0000127A00001BB70080B582B02B
:100AC00000AF0346FB7100BFFB791846054B984702
:100AD000034683F00103DBB2002BF5D100BF0837DA
:100AE000BD4680BDD909400080B586B000AFF86032
:100AF0007A603B600B46FB727B68002B07D13B683A
:100B0000002B04D1FB684FF470021A6019E0FB7AE5
:100B100018460E4B984702467B68B2FBF3F37B61A5
:100B20007B693A6802FB03F37B613B68013B1A0473
:100B3000074B13407A68D2B2134343F47C52FB68EC
:100B40001A6000BF1837BD4680BD00BF490A40008B
:100B50000000FF0780B582B000AF786039603B6865
:100B6000002B08D1094B9847094A7B681B6843F062
:100B70000053936205E0064A7B681B6843F48033A8
:100B8000D36100BF0837BD4680BD00BF711940006A
:100B900000060E4080B582B000AF78607B68002B05
:100BA00003D1054B9847034602E0044B98470346A0
:100BB00018460837BD4680BD8D194000A919400070
:100BC00080B582B000AF0346FB71FB79033B042B79
:100BD00008D8FB791846064B9847FB791846054B11
:100BE000984700E000BF00BF0837BD4680BD00BF8A
:100BF00051094000BD0A400080B582B000AF786066
:100C000000BF7868044B98470346002BF9D00023B7
:100C100018460837BD4680BD950B400080B500AF33
:100C20000620054B9847024613469B0013449A0042
:100C30001344184680BD00BF490A400080B500AF8C
:100C4000024B98470346184680BD00BF1D0C40006C
:100C500090B583B000AF1348134B98470620134B51
:100C60009847381D192301220621114CA0473B1D2E
:100C7000002118460F4B984700200F4B9847022041
:100C80000E4B984700200E4B98470E4B98470E4B43
:100C9000984703461846044B984700BF0C37BD469B
:100CA00090BD00BF00A3E111F11C4000C10B40004A
:100CB000E90A4000550B4000F90B400001174000C5
:100CC0007D174000891B40003D0C400080B582B07C
:100CD00000AF78607868034B984700BF0837BD467F
:100CE00080BD00BFC519400080B500AF0A20084B89
:100CF00098470B20064B98470C20054B984710202F
:100D0000034B98471120024B984700BF80BD00BF9E
:100D1000CD0C400080B489B000AF78607B68FB6187
:100D2000FB69BB61BB695A09FB697B617B6903F0A5
:100D30001F03012101FA03F33A61FB603B69BB60C9
:100D4000BA68064B13445B021A46FB68536000BF47
:100D50002437BD465DF8047B704700BF07072000BD
:100D600080B48DB000AF786039607B68FB623B680F
:100D7000BB62FB6A7B627B6A5A09FB6A3B623B6A25
:100D800003F01F03012101FA03F3FA61BB61BB6A9F
:100D90007B61FB693B613A69374B13445B02FB6043
:100DA0007B6903F00803002B03D0FB68BA695A661D
:100DB00002E0FB68BA691A667B6903F01003002B36
:100DC00004D0FB68BA69C3F8942003E0FB68BA69F1
:100DD000C3F890207B6903F02003002B03D0FB684D
:100DE000BA691A6502E0FB68BA695A657B6903F063
:100DF000C003002B03D0FB68BA691A6202E0FB68EB
:100E0000BA695A627B6903F08003002B04D0FB6847
:100E1000BA69C3F8842003E0FB68BA69C3F880208C
:100E20007B6903F00103002B06D0FB681A6FBB69D6
:100E30001A43FB681A6706E0FB681A6FBB69DB435D
:100E40001A40FB681A677B6903F00203002B06D087
:100E5000FB685A6FBB691A43FB685A6706E0FB6878
:100E60005A6FBB69DB431A40FB685A6700BF3437CF
:100E7000BD465DF8047B70470707200080B48DB045
:100E800000AF78600B46FB707B68FB62FB7887F8ED
:100E90002B30FB6A7B627B6A3B623B6A5B09FB61CE
:100EA000FA69174B13445B02BB6197F82B30012B97
:100EB00009D1FB6A7B617B6903F01F0301229A4021
:100EC000BB691A610CE097F82B30002B08D1FB6A44
:100ED0003B613B6903F01F0301229A40BB695A61E1
:100EE000FB6AFB60FB6803F01F0301229A40BB69A9
:100EF000C3F8A02000BF3437BD465DF8047B7047BF
:100F00000707200080B48BB000AF78600B46FB7001
:100F10007B687B62FB7887F823307B6AFB61FB6927
:100F2000BB61BB695B097B617A69104B13445B024F
:100F30003B6197F82330002B09D07B6AFB60FB688C
:100F400003F01F0301229A403B691A6308E07B6AA1
:100F5000BB60BB6803F01F0301229A403B695A63E0
:100F600000BF2C37BD465DF8047B704707072000A3
:100F700080B48DB000AF78600B46FB707B68FB627D
:100F8000FB7887F82B30FB6A7B627B6A5A09FB6A25
:100F90003B623B6A03F01F03012101FA03F3FA618C
:100FA000BB6197F82B30FB75FB693B613A69234BBA
:100FB00013445B02FB60FB7D013B032B2ED801A297
:100FC00052F823F0F90F40000B104000D50F4000FD
:100FD000E70F4000FB68BA69C3F8C420FB68BA6930
:100FE000C3F8D0201FE0FB68BA69C3F8C420FB68CF
:100FF000BA69C3F8D42016E0FB68BA69C3F8C02008
:10100000FB68BA69C3F8D0200DE0FB68BA69C3F881
:10101000C020FB68BA69C3F8D42004E0FB68BA6951
:10102000C3F8B42003E0FB68BA69C3F8B02000BF7E
:101030003437BD465DF8047B704700BF07072000CA
:1010400080B400AFBFF34F8FBFF36F8F0C4A0C4BD0
:10105000D3F8903223F00103C2F89032084A084BCB
:10106000D3F8943223F00103C2F89432BFF34F8FC8
:10107000BFF36F8F00BFBD465DF8047B704700BFB4
:1010800000ED00E080B500AF1C4B4FF400425A6009
:101090001B4B1C4A5A601A4B1B4A5A601B4B984701
:1010A0001B4B9847012148201A4B984701214820A3
:1010B000194B984700210B20164B984788210B208D
:1010C000164B984702210B20154B984700211520FD
:1010D000124B98471520134B9847134A124BD3F8DD
:1010E000143143F01003C2F81431032124200B4BB8
:1010F000984724200B4B984700BF80BD50180E40E6
:10110000000C0E400C08005A0C07005A4110400019
:10111000E90C40007D0E4000050F4000610D4000CD
:10112000710F4000150D40000080084080B485B06C
:1011300000AFF860B9607A607B68002B03D0FB6871
:10114000BA685A6602E0FB68BA681A6600BF1437CC
:10115000BD465DF8047B704780B487B000AFF8608F
:10116000B9607A60BB68B3F1405F03D0BB68B3F18C
:10117000605F03D1FB689B6B7B6102E0FB68DB6B0C
:101180007B617A697B681340002B01D1002300E06A
:10119000012318461C37BD465DF8047B704780B4B8
:1011A00087B000AFF860B9607A60FB687A685A640B
:1011B000BB68B3F1C05F4AD0B3F1C05F08D8B3F1E8
:1011C000006F16D0B3F1805F2CD0002B69D064E0A3
:1011D000B3F1205F65D0B3F1205F03D8B3F1005FB6
:1011E0004AD05AE0B3F1405F5BD0B3F1605F58D0B2
:1011F00053E0FB681B6F7B61FB681A6F7B68D94308
:101200007B690B401A40FB681A67FB685B6F7B6168
:10121000FB685A6F7B68D9437B690B401A40FB68B7
:101220005A673AE0FB681B6F7B617A687B691A43F7
:10123000FB681A67FB685B6F7B61FB685A6F7B68B2
:10124000D9437B690B401A40FB685A6725E0FB686D
:101250001B6F7B61FB681A6F7B68D9437B690B400E
:101260001A40FB681A67FB685B6F7B617A687B6971
:101270001A43FB685A6710E0FB681B6F7B617A6852
:101280007B691A43FB681A67FB685B6F7B617A684E
:101290007B691A43FB685A6700BFFB687A685A602B
:1012A00000E000BF1C37BD465DF8047B70470000BE
:1012B00080B584B000AFF860B9607A60B968F8684A
:1012C000194B98477B6803F001031A46B968F86820
:1012D000164B98477B6803F00A03002B03D0FB688A
:1012E000BA681A6202E0FB68BA685A627B6803F067
:1012F0000203002B04D0FB68BA68C3F8802008E022
:101300007B6803F00803002B03D0FB68BA68C3F8BE
:101310008420FB68BA685A61FB68BA681A6000BF2B
:101320001037BD4680BD00BFE91440002D114000BC
:1013300080B584B000AFF860B9607A603B60B9688E
:10134000F868124B9847BA69B968F868104B984723
:101350003B68002B03D0FB68BA681A6502E0FB68A3
:10136000BA685A657B68002B03D0FB68BA681A63B9
:1013700002E0FB68BA685A63FB68BA681A61FB68E6
:10138000BA681A6000BF1037BD4680BDE91440003E
:101390002D11400090B587B002AFF860B9607A6057
:1013A0003B60BB68B3F1005F16D0B3F1005F09D8B2
:1013B000B3F1805F10D0B3F1C05F0DD0B3F1006F17
:1013C0000AD03DE0B3F1405F1AD0B3F1605F17D0AF
:1013D000B3F1205F0ED033E07A68B968F8681C4B2F
:1013E00098473B6803F001031A467968F868194B7F
:1013F000984727E03A687968F868174B984721E0E2
:10140000BB68B3F1605F0CBF01230023DBB21A4657
:101410003B6803F00403002B14BF01230023DBB25D
:1014200019463B6803F00103002B14BF012300237E
:10143000DBB200930B467968F868084CA04701E0DE
:10144000002300E0012318461437BD4690BD00BFBD
:101450009F1140002D114000B11240003113400097
:1014600080B485B000AFF860B9607A607B6803F043
:101470001003002B20D0FB68BA68C3F8B0207B684B
:1014800003F02003002B04D0FB68BA68C3F8D42013
:1014900003E0FB68BA68C3F8D0207B6803F0400320
:1014A000002B04D0FB68BA68C3F8C02008E0FB68D2
:1014B000BA68C3F8C42003E0FB68BA68C3F8B42074
:1014C00000BF1437BD465DF8047B704780B483B01D
:1014D00000AF786039607B683A681A6400BF0C37E7
:1014E000BD465DF8047B704780B483B000AF786080
:1014F00039607B683A685A6400BF0C37BD465DF8B6
:10150000047B704780B483B000AF78607B68DB6C8D
:1015100018460C37BD465DF8047B704780B483B035
:1015200000AF78607B689B6C18460C37BD465DF851
:10153000047B704780B584B000AF7860396078680C
:10154000264B9847F8607868254B98470246FB6819
:101550001340FB60FB68002B3CD00023BB6034E0F1
:10156000204ABB681B0113441A683B689A4226D183
:101570001C4ABB681B01134404331A68FB68134000
:10158000002B1CD0174ABB681B0113440C331B688B
:101590001449BA6812010A4410681249BA68120163
:1015A0000A4404321268114698470E4ABB681B0170
:1015B000134404331B68DB43FA681340FB60BB68C9
:1015C0000133BB60BB68062B03D8FB68002BC7D177
:1015D00000E000BF00BF1037BD4680BD05154000CC
:1015E0001D154000E009402080B586B000AFF860CE
:1015F000B9607A603B60214B1B68062B01D901233F
:1016000038E00023FB7511E0FB7D1B011C4A1344ED
:101610003B613B691A68BB689A4204D13B695A68CE
:101620007B689A4208D0FB7D0133FB75FA7D134B32
:101630001B689A42E8D900E000BF3B69BA681A60AB
:101640003B697A685A603B693A689A603B693A6AD2
:10165000DA60FA7D094B1B6801339A4204D1074BCB
:101660001B680133054A13603A687968F868054BCE
:101670009847002318461837BD4680BD500A4020C1
:10168000E00940206114400080B500AF0A21024803
:10169000024B984700BF80BD000E0E40351540003C
:1016A00080B500AF0B210248024B984700BF80BDB8
:1016B00000100E403515400080B500AF0C210248E7
:1016C000024B984700BF80BD00120E403515400008
:1016D00080B500AF10210248024B984700BF80BD83
:1016E00000140E403515400080B500AF11210248AE
:1016F000024B984700BF80BD00160E4035154000D4
:1017000080B483B000AF78607B68013B032B1AD8AC
:1017100001A252F823F000BF291740002F17400004
:10172000371740003F17400000237B600EE04FF466
:1017300080737B600AE04FF440737B6006E04FF4F7
:1017400000737B6002E000237B6000BF0A490A4B04
:101750001B6B23F440727B6813430B6300BF064B83
:101760009B6E03F00803002BF9D000BF0C37BD4679
:101770005DF8047B704700BF00060E4080B485B062
:1017800000AF78601D491D4B1B6B23F070027B6816
:1017900013430B634FF48053FB6007E0FB68002B9F
:1017A00001D1012323E0FB68013BFB60134B9B6EDF
:1017B00003F00803002BF1D0104A104B1B6B23F0F1
:1017C000030343F0020313634FF48053FB6007E00D
:1017D000FB68002B01D1012309E0FB68013BFB60A2
:1017E000064B9B6E03F00803002BF1D00023184634
:1017F0001437BD465DF8047B704700BF00060E40FD
:1018000080B483B000AF78607B68012B05D10749B5
:10181000064B9A68064B13438B60044B054A1A60CB
:1018200000BF0C37BD465DF8047B704710180E40B2
:10183000000010A5080000A580B400AF094B5B694B
:1018400003F08003002B07D0074B9B6E03F080034F
:10185000002B01D0012300E000231846BD465DF8AF
:10186000047B704710180E4000060E4080B483B011
:1018700000AF78601549154B1A6A154B13430B627C
:1018800000BF124B9B6E03F40033002BF9D00F49BD
:101890000E4B1A6A0F4B13407A68134343F45C13E0
:1018A0000B6200BF094B9B6E03F40033002BF9D091
:1018B0000649064B1A6A084B134043F45C130B624B
:1018C00000BF0C37BD465DF8047B704700060E4034
:1018D000080037008FFFC8FFFFFFC8FE80B483B049
:1018E00000AF786039607B68002B08D01349134B38
:1018F0001B6A134A1A40134B13430B6218E00F493B
:101900000E4B1A6A104B13403A68120292B21A43F5
:101910000E4B13430B6200BF084B9B6E03F0010399
:10192000002BF9D00549054B1A6A094B13430B628A
:1019300000BF0C37BD465DF8047B704700060E40C3
:10194000FCFFC8FE02003701FCFFC8FF01003700A2
:101950000000370180B400AF044B9B6E03F480336A
:101960001846BD465DF8047B704700BF00060E4078
:1019700080B400AF044B4FF000529A6200BFBD46E6
:101980005DF8047B704700BF00060E4080B400AFD6
:10199000044B9B6E03F002031846BD465DF8047BC2
:1019A000704700BF00060E4080B400AF044B9B6E32
:1019B00003F040031846BD465DF8047B704700BF46
:1019C00000060E4080B483B000AF78607B683F2B88
:1019D00001D901232FE07B681F2B13D8194B9A697B
:1019E00001217B6801FA03F31A4001217B6801FAA7
:1019F00003F39A421ED0134A01217B6801FA03F3D4
:101A0000136117E07B68203B7B600E4BD3F8082105
:101A100001217B6801FA03F31A4001217B6801FA76
:101A200003F39A4206D0074A01217B6801FA03F3C7
:101A3000C2F80031002318460C37BD465DF8047B20
:101A4000704700BF00060E4080B483B000AFEFF3D4
:101A500010837B607B68002B0CBF01230023DBB26B
:101A60003B6072B6BFF35F8F044B00221A703B6875
:101A700018460C37BD465DF8047B70470A004020CD
:101A800080B483B000AF78607B68002B14BF012363
:101A90000023DBB218460C37BD465DF8047B704767
:101AA00080B582B000AF78607868074B98470346EE
:101AB000002B05D0054B01221A70BFF35F8F62B671
:101AC00000BF0837BD4680BD811A40000A00402093
:101AD00080B584B000AF1E4BFB601E4BBB60FA6844
:101AE000BB689A420CD007E0BB681A1DBA60FA685E
:101AF000111DF96012681A60BB68174A9342F3D34C
:101B0000164BBB6004E0BB681A1DBA6000221A6065
:101B1000BB68134A9342F6D3124BFB60124AFB6830
:101B200023F07F039360114B98477860104A104B65
:101B30001B6843F470031360BFF34F8FBFF36F8FC5
:101B400078680C4B98470C4B98470C4B9847FEE72E
:101B50000C76400000004020C0094020C009402011
:101B60004C0B40200000400000ED00E0491A40000E
:101B700088ED00E0A11A4000692C40004127400098
:101B800080B400AFFEE7000080B400AF524B1B6B87
:101B900003F00303012B14D0012B02D3022B38D006
:101BA0007AE04E4B5B6903F08003002B04D04C4B72
:101BB0004FF400421A606FE0494B4FF4FA421A604A
:101BC0006AE0454B1B6A03F08073002B03D0444B43
:101BD000444A1A6060E0424B434A1A603E4B1B6A1B
:101BE00003F07003102B04D0202B08D0002B0ED054
:101BF0000EE03B4B1B685B00394A136008E0384B32
:101C00001A6813465B001344354A136000E000BFB6
:101C100042E0314B1B6A03F08073002B03D0304B42
:101C2000304A1A601CE02E4B2F4A1A602A4B1B6A5E
:101C300003F07003102B04D0202B08D0002B0ED003
:101C40000EE0274B1B685B00254A136008E0244B1D
:101C50001A6813465B001344214A136000E000BF7A
:101C60001D4B1B6B03F00303022B14D11A4B9B6A11
:101C70001B0CC3F30A030133194A126802FB03F376
:101C8000174A1360144B9B6ADBB2154A1268B2FB09
:101C9000F3F3134A136000BF0F4B1B6B03F0700389
:101CA000702B08D10E4B1B68104AA2FB03235B0864
:101CB0000B4A13600AE0084B1B6B1B0903F0070378
:101CC000074A126822FA03F3054A136000BFBD46B3
:101CD0005DF8047B704700BF00060E4010180E40F0
:101CE0000C004020001BB70000093D00ABAAAAAAC7
:101CF00080B483B000AF78607B681D4A934204D8FB
:101D00001C4B4FF080621A602BE07B681A4A9342AA
:101D100003D8184B194A1A6023E07B68184A93428B
:101D200003D8144B174A1A601BE07B68164A93428B
:101D300003D8104B154A1A6013E07B68144A93428B
:101D400004D80C4B4FF004221A600AE07B68114A59
:101D5000934203D8074B104A1A6002E0054B0F4A22
:101D60001A6000BF0C37BD465DF8047B704700BFAA
:101D7000BFF35E01000C0E407FE7BD0200010004CE
:101D80003FDB1C0400020004FFCE7B0500030004BF
:101D9000BFC2DA067FB63908000500040006000459
:101DA00080B485B000AF7860104BFB60104B1B68AF
:101DB000002B02D10E4B0F4A1A600D4B1B68BB6003
:101DC000BA687B681A44FB689A4202DD4FF0FF3321
:101DD00006E0074B1A687B681344054A1360BB682A
:101DE00018461437BD465DF8047B7047FCFF45205C
:101DF000540A4020502D402080B483B000AF0346E9
:101E0000FB71094997F907305B09FA7902F01F0263
:101E1000012000FA02F241F8232000BF0C37BD4632
:101E20005DF8047B704700BF00E100E080B483B040
:101E300000AF03463960FB7197F90730002B0BDACE
:101E40000D49FB7903F00F03043B3A68D2B252010B
:101E5000D2B20B441A7609E0084997F907303A687C
:101E6000D2B25201D2B20B4483F8002300BF0C3728
:101E7000BD465DF8047B704700ED00E000E100E046
:101E800080B582B000AF78607B68013BB3F1807FA2
:101E900001D301230FE00A4A7B68013B536007210D
:101EA0004FF0FF30074B9847054B00229A60044BD8
:101EB00007221A60002318460837BD4680BD00BFC0
:101EC00010E000E02D1E400080B483B000AF7860C9
:101ED0007B68072B25D801A252F823F0FD1E400095
:101EE000031F4000091F40000F1F4000131F400048
:101EF000171F40001B1F40001F1F40004FF4FA43F4
:101F000010E04FF400430DE04FF400430AE0084BAB
:101F100008E0084B06E0084B04E0074B02E0064BE4
:101F200000E0002318460C37BD465DF8047B70477F
:101F300000093D0000127A00001BB70080B500AF19
:101F40000620054B9847024613469B0013449A000F
:101F50001344184680BD00BFC91E400080B500AFC5
:101F6000024B98470346184680BD00BF3D1F400006
:101F700080B500AF024B984703465B08184680BD0A
:101F80003D1F400080B582B000AF78607868034B99
:101F9000984700BF0837BD4680BD00BFC519400047
:101FA00080B500AF0A20084B98470B20064B984796
:101FB0000C20054B98471020034B98471120024BEB
:101FC000984700BF80BD00BF851F400080B58CB022
:101FD00000AF786039604F4B984703467B623B689F
:101FE0001B68BB623B689B68FB623B681B68FB60CD
:101FF0003B685B683B613B689B687B613B68DB6877
:10200000BB610023FB617B68434A934208D10720F0
:10201000424B984707F1240319467868404B98478C
:102020007B68404A934208D108203C4B984707F10F
:102030002403194678683A4B98477B683A4A93429A
:1020400008D12C20354B984707F1240319467868AE
:10205000334B98477B68354A934208D12D202F4B4C
:10206000984707F12403194678682D4B98477B68F9
:102070002F4A934208D12E20284B984707F124037A
:1020800019467868264B98477B682A4A934211D1B3
:102090000D20224B98471F4B9847024607F10C032F
:1020A00019467868244B98477868244B9847786895
:1020B000234B98477B68234A934211D10E20174B3C
:1020C0009847144B9847024607F10C031946786865
:1020D000194B98477868194B98477868184B984778
:1020E0007B68194A934211D10F200C4B9847094B3A
:1020F0009847024607F10C03194678680E4B98473B
:1021000078680E4B984778680D4B984700BF30377A
:10211000BD4680BD711F400000080E40851F400075
:10212000C9084000000A0E40001A0E40001C0E4074
:10213000001E0E4000400240D505400059064000F8
:102140008D0640000080024000C0024080B582B091
:1021500000AF00210448054B984703467B607B682D
:1021600000BF0837BD4680BD00C000402B044000C2
:1021700090B58BB002AFF860B9607A603B60204BDD
:102180009847F8610123BB61BB6818461D4B98470F
:10219000386807F1100107F11402FB6900930B4640
:1021A000F969194CA04701233B6179683B6943F405
:1021B0001C231A46F868154B984779687B69FA69B9
:1021C000B2FBF3F23B68B2FBF3F3DB081A46F868A4
:1021D0000F4B984779687B69FA69B2FBF3F23B6869
:1021E000B2FBF3F31B091A46F8680A4B98477B6861
:1021F0001946F868084B984700BF2437BD4690BD84
:102200005D1F4000C51940004F044000830340009B
:1022100005044000DF034000BD03400080B400AF70
:10222000044B1B680133034A136000BFBD465DF8D1
:10223000047B7047580A402080B582B000AF7860B8
:1022400039603868054B984703461A4639687868FC
:10225000034B984700BF0837BD4680BDC12D4000E5
:102260008D08400080B588B000AFF860B9607A6032
:102270003B60174B1B68BB610023FB6110E007F15B
:1022800014031946F868134B98470346002B07D1EF
:10229000FB695A1CFA61BA6813447A69D2B21A709F
:1022A0000B4B1A68BB69D21A3B689A4205D27B680D
:1022B000013B1A46FB699A42E1D8BA68FB691344AC
:1022C00000221A70FB6918462037BD4680BD00BF4A
:1022D000580A40202B07400090B585B000AFF86049
:1022E000B9607A603B603968F868064B98473B6A8A
:1022F0007A68B968F868044CA04700BF1437BD4637
:1023000090BD00BF392240006522400080B582B0F8
:1023100000AF786039600C490C480D4B98477968DC
:102320000A480B4B98470B490848094B98473968AE
:102330000648074B984708490448054B984700BF93
:102340000837BD4680BD00BF5C724000008002407F
:1023500039224000607240006472400080B584B051
:1023600000AF0E200D4B98474FF4E1333B60C02384
:102370007B604FF40063BB600023FB603B46194663
:102380000748084B98470648074B98470448074BAF
:10239000984700BF1037BD4680BD00BF851F400075
:1023A00000800240CD1F4000590640008D064000CD
:1023B00090B585B000AF4FF416533B60C0237B60EF
:1023C0004FF40063BB600023FB603B4619460E4898
:1023D0000E4B98470C480E4B98470B480D4B9847AF
:1023E00000234FF080524FF000610B480B4CA04788
:1023F00000234FF080424FF000610748074CA04790
:1024000000BF1437BD4690BD001C0E40CD1F4000DC
:10241000590640008D06400000140E409513400000
:1024200090B5A3B002AF3946C8230093404B4FF498
:102430007A724048404CA0473946C82300933C4B31
:102440004FF47A723B483C4CA0473946C82300936E
:10245000374B4FF47A723748374CA04739464FF420
:10246000C8730093354B4FF47A723248324CA04710
:1024700039464FF4C8730093314B4FF47A722D48AC
:102480002D4CA0473B4619462E482F4B98473946BE
:102490004FF4C87300932D4B4FF47A722548264CA5
:1024A000A0473B4619462748274B984739464FF4E3
:1024B000C8730093264B4FF47A721E481E4CA047F7
:1024C0003B4619461F48204B984739464FF44873FE
:1024D00000931A4B4FF47A721648174CA0473B46AC
:1024E00019461848184B984739464FF47A730093A9
:1024F000184B4FF47A720F480F4CA0473B461946D1
:102500001048114B984739464FF47A730093124B99
:102510004FF47A720748084CA0473B4619460948D1
:10252000094B984700BF18468437BD4690BD00BF91
:1025300068724000001C0E40D92240006C724000BE
:1025400078724000887240000D2340009C72400069
:10255000A8724000B4724000C072400090B583B0D1
:1025600002AF1020104B984709224FF480010F480A
:102570000F4B98474FF480010C480E4B98470E4B79
:10258000009301234FF48002102108480B4CA04710
:1025900010200B4B9847012110200A4B984700BF91
:1025A0000437BD4690BD00BFC519400000140E4061
:1025B000B1124000CD144000C9254000E91540008B
:1025C000F91D40002D1E400080B58EB000AF786030
:1025D0003960214B1A6807F10C0320491846204B3B
:1025E000984707F10C0319461E481F4B98474FF4B4
:1025F00080024FF020511D481D4B98470346DBB227
:10260000FB724FF400124FF020511848184B9847B6
:102610000246FB7ADBB29A4209D00F4B1B68632B50
:102620000EDC0D4B1B6801330B4A136008E00A4BAC
:102630001B68002B04DD084B1B68013B064A136036
:102640000C4B01221A60FB7ADBB21A460A4B1A6065
:1026500000BF3837BD4680BD5C0A4020D4724000C0
:10266000552D4000008002403922400000140E40E9
:1026700059114000600A40201C0B402090B583B0E7
:1026800002AF0A20104B984709224FF400610F480F
:102690000F4B98474FF400610C480E4B98470E4B78
:1026A000009350234FF400620A2108480B4CA047C6
:1026B0000A200B4B984701210A200A4B984700BF7C
:1026C0000437BD4690BD00BFC5194000000E0E4046
:1026D000B1124000CD144000E9264000E915400049
:1026E000F91D40002D1E400080B590B000AF78600D
:1026F00039600C490C480D4B98470D4B01221A606C
:102700000B4B1A6807F108030A4918460A4B984709
:1027100007F1080319460948044B984700BF4037A2
:10272000BD4680BDEC724000001C0E4039224000C6
:10273000640A4020F0724000552D400000800240A5
:102740002DE9F04FADF2144D02AF5A4B98475A4B5A
:1027500098475A4B98475A4B4FF400425A60594B8E
:1027600098470246584BA3FB02239B091846574B38
:102770009847574B984757495748584B9847584997
:102780005548564B9847574B9847574B98474FF4E7
:1027900080024FF020515548554B98470246554B03
:1027A0001A60554B9847554B9847554B00221A6075
:1027B000544B00221A60544B01221A600A20534BDA
:1027C0009847002300930023002201215048514CD8
:1027D000A04701224FF080514D484F4B98471E2093
:1027E0004E4B98474E484F4B984700214C484E4B14
:1027F00098474E4B002217214D484E4CA047314B75
:102800009847034619464FF000020B4614464FEA1C
:10281000441B4BEAD36B4FEA431A53465C465B1AA0
:1028200064EB02044FEA840949EA93794FEA83088A
:1028300043464C465B1844EB0204A2007A607A6877
:1028400042EA93727A609B003B60D7E900341946F4
:10285000224641F22B734FF00004CD1842EB0406E0
:1028600028463146344C41F22C724FF00003A04709
:1028700003460C461846314B984731491648174BCA
:102880009847204B1A6807F108032E4918462E4B2B
:10289000984707F1080319462C482D4B984707F134
:1028A000080319462B480D4B9847174B00221A6016
:1028B000A5E700BF85104000510C4000A11F40005B
:1028C00050180E405D1F4000D34D6210811E400025
:1028D0005D23400000734000008002403922400028
:1028E00014734000B12340002124400000140E4026
:1028F000591140001C0B40205D2540007D26400002
:10290000580A40205C0A4020600A4020C519400057
:10291000000E0E40311340009F114000851F400003
:10292000000004403D03400057034000A086010022
:1029300000C00040712140005929400001004020A2
:102940002C7340003C734000552D40004C734000F8
:102950000D234000001C0E4053B94AB9002908BF9E
:1029600000281CBF4FF0FF314FF0FF3000F07AB964
:10297000ADF1080C6DE904CE00F006F8DDF804E0D6
:10298000DDE9022304B070472DE9F0478C460D467F
:102990000446089E002B51D18A4217466DD9B2FADF
:1029A00082FEBEF1000F0BD0CEF1200C01FA0EF525
:1029B00020FA0CFC02FA0EF74CEA050C00FA0EF4B1
:1029C0004FEA174A250CBCFBFAF81FFA87F90AFBF5
:1029D00018CC45EA0C4508FB09F3AB420AD9ED19BE
:1029E00008F1FF3280F02381AB4240F22081A8F150
:1029F00002083D44ED1AA4B2B5FBFAF00AFB1055EB
:102A000044EA054400FB09F9A14509D9E41900F19C
:102A1000FF3380F00A81A14540F2078102383C442F
:102A2000A4EB090440EA08400021002E61D024FAFA
:102A30000EF4002334607360BDE8F0878B4207D941
:102A4000002E54D0002186E821000846BDE8F0871A
:102A5000B3FA83F1002940F08E80AB4202D3824268
:102A600000F2FA80841A65EB03050120AC46002EC3
:102A70003FD086E81010BDE8F08712B90127B7FBF8
:102A8000F2F7B7FA87FEBEF1000F34D1EB1B3A0C18
:102A90001FFA87FC0121B3FBF2F8250C02FB183367
:102AA00045EA03450CFB08F3AB4207D9ED1908F1E1
:102AB000FF3002D2AB4200F2D1808046ED1AA3B2C1
:102AC000B5FBF2F002FB105543EA05440CFB00FC99
:102AD000A44507D9E41900F1FF3302D2A44500F25E
:102AE000B8801846A4EB0C0440EA08409DE7314644
:102AF0003046BDE8F087CEF1200405FA0EF307FA60
:102B00000EF720FA04F83A0C25FA04F448EA030810
:102B1000B4FBF2F14FEA184502FB11441FFA87FC9F
:102B200045EA044501FB0CF3AB4200FA0EF409D967
:102B3000ED1901F1FF3080F08A80AB4240F28780CE
:102B400002393D44EB1A1FFA88F5B3FBF2F002FBA1
:102B5000103345EA034500FB0CF3AB4207D9ED19EE
:102B600000F1FF386FD2AB426DD902383D44EB1A09
:102B700040EA01418FE7C1F1200722FA07F88B40B4
:102B800005FA01F448EA030320FA07FE4FEA134C62
:102B9000FD404EEA040EB5FBFCF94FEA1E440CFB67
:102BA00019551FFA83F844EA054509FB08F4AC42BD
:102BB00002FA01F200FA01FA08D9ED1809F1FF3022
:102BC00043D2AC4241D9A9F102091D442D1B1FFA81
:102BD0008EFEB5FBFCF00CFB10554EEA054400FBE5
:102BE00008F8A04507D9E41800F1FF3529D2A0451F
:102BF00027D902381C4440EA0940A4EB0804A0FB92
:102C000002894C45C6464D4615D312D056B1BAEB93
:102C10000E0364EB050404FA07F7CB401F43CC40D6
:102C2000376074600021BDE8F0871846F8E69046EA
:102C3000E0E6C245EAD2B8EB020E69EB03050138C3
:102C4000E4E72846D7E7404691E78146BEE70146DC
:102C500078E702383C4445E7084608E7A8F102084F
:102C60003D442BE7704700BF70B50F4E0F4D761BEC
:102C7000B61018BF002405D0013455F8043B98471E
:102C8000A642F9D10A4E0B4D761B04F0A9FCB610F2
:102C900018BF002406D0013455F8043B9847A642DB
:102CA000F9D170BD70BD00BFEC754000EC754000FF
:102CB000F4754000EC75400070B4860746D0541E91
:102CC000002A41D0CAB2034602E014F1FF343BD3DC
:102CD00003F8012B9D07F8D1032C2ED9CDB245EA7C
:102CE00005250F2C45EA054519D903F110022646A2
:102CF000103E0F2E42F8105C42F80C5C42F8085C63
:102D000042F8045C02F11002F2D8A4F1100222F0A1
:102D10000F0204F00F041032032C13440DD91E4689
:102D20002246043A032A46F8045BFAD8221F22F00E
:102D300003020432134404F003042CB1C9B21C444E
:102D400003F8011B9C42FBD170BC7047144603463C
:102D5000C2E700BF0EB4F0B59CB021AB0F4953F8E9
:102D6000042B019305466FF00044086802954FF468
:102D700002774FF6FF7602A90695ADF81470049419
:102D80000794ADF8166000F089F8029B00221A70D3
:102D90001CB0BDE8F04003B0704700BF10004020F9
:102DA0000000000000000000000000000000000023
:102DB0000000000000000000000000000000000013
:102DC00090F800F06DE9024520F007016FF0000C6B
:102DD00010F0070491F820F040F049804FF0000413
:102DE0006FF00700D1E9002391F840F000F10800EE
:102DF00082FA4CF2A4FA8CF283FA4CF3A2FA8CF326
:102E00004BBBD1E9022382FA4CF200F10800A4FA8C
:102E10008CF283FA4CF3A2FA8CF3E3B9D1E90423E0
:102E200082FA4CF200F10800A4FA8CF283FA4CF317
:102E3000A2FA8CF37BB9D1E9062301F1200182FAD1
:102E40004CF200F10800A4FA8CF283FA4CF3A2FAD7
:102E50008CF3002BC6D0002A04BF04301A4612BAE5
:102E6000B2FA82F2FDE8024500EBD2007047D1E9E8
:102E7000002304F00305C4F100004FEAC50514F077
:102E8000040F91F840F00CFA05F562EA05021CBF48
:102E900063EA050362464FF00004A9E72DE9F04F0D
:102EA000C3B00C460B9192460F930C9002F00CFAB3
:102EB00003681A931846FFF783FFA3891990190630
:102EC00003D52369002B01F0038000230DF1C8090D
:102ED0001393159314932793269318931B93099395
:102EE000CDF89490C846169317939AF8003054463C
:102EF000E3B1252B02D119E0252B03D014F8013FB3
:102F0000002BF9D1A4EB0A0585B1269B279AC8F8B6
:102F100000A001332A44072BC8F8045027922693B7
:102F20007FDC08F10808099B2B4409932378002BC8
:102F30007FD000231A468DF8773019460D939B46B3
:102F40004FF0FF3063780A9004F1010A0AF1010A98
:102F5000A3F12000582800F2C183DFE810F0380206
:102F6000BF03BF034002BF03BF03BF03BF03BF03D1
:102F7000BF0345020302BF035D006B02BF0386026D
:102F80009D039D039D039D039D039D039D039D0341
:102F90009D03BF03BF03BF03BF03BF03BF03BF0343
:102FA000BF03BF03BF0337035703BF035703BF0369
:102FB000BF03BF03BF039803BF03BF03AD03BF033A
:102FC000BF03BF03BF03BF035902BF03BF031E03F9
:102FD000BF03BF03BF03BF03BF03BF03BF03BF03E1
:102FE000BF03BF03C602DB025703570357038B021D
:102FF000DB02BF03BF039002BF039D02CC01B402FA
:103000000802BF03E101BF037E00BF03BF030D023F
:103010000D980F9340420D904BF0040B9AF800303E
:1030200094E725AA0B990C9803F014F840B9C84608
:1030300079E7279B23B10C980B9925AA03F00AF88E
:103040000B9B9B8913F0400F099B18BF4FF0FF3378
:103050000993099843B0BDE8F08F1BF0200F11933E
:1030600040F0DD810F9A1BF0100F134640F06E8583
:103070001BF0400F00F06A851488043200250123FC
:103080000F9200278DF877700A994A1C00F065822C
:103090002BF08002079254EA050240F06482002976
:1030A00040F03C84002B40F0D7841BF001030E93CA
:1030B00000F0048642AE302306F8413D0A9B0E9A8A
:1030C0009342B8BF134608930023129317B1089B8D
:1030D00001330893079B13F00203109302D0089B5F
:1030E00002330893079B13F0840540F00E830D9B79
:1030F000089AA3EB020BBBF1000F40F30683BBF170
:10310000100F279C269A29DD43462146A846102702
:103110000C9C0B9D06E0ABF1100BBBF1100F03F103
:10312000080318DD0132B74826921031072A27918B
:1031300083E88100EFDD25AA2946204602F08AFFB8
:1031400000287FF47DAFABF1100BBBF1100F279976
:10315000269A4B46E6DC45460C4698460132A94B7A
:1031600026925C44072A279488E8080800F398848C
:103170009DF8777008F1080877B1269B0133013478
:103180000DF177010122072B2794269388E806008A
:1031900000F3DB8308F10808109B6BB1269B013319
:1031A00002341EA90222072B2794269388E80600E2
:1031B00000F3D68308F10808802D00F015830A9BE0
:1031C0000E9A9F1A002F36DD102F269B8E4D27DD7D
:1031D00042462146B0464FF0100B2E460C9C0B9DEC
:1031E00004E0103F102F02F1080215DD0133103109
:1031F000072B2791269382E84008F2DD25AA29466D
:10320000204602F027FF00287FF41AAF103F102F4E
:103210002799269B4A46E9DC35460C4646469046A9
:1032200001333C44072B2794269388E8A00000F341
:10323000818308F10808079BDF0500F16882269B5F
:103240000E99C8F8006001330C44072B2794C8F886
:103250000410269300F34D8308F10808079B5B07D1
:103260003AD50D9B089A9D1A002D35DD102D269B11
:1032700020DD10260C9FDDF82CB004E0103D102D51
:1032800008F1080816DD01335E4A26931034072B37
:10329000279488E84400F1DD25AA5946384602F013
:1032A000D9FE00287FF4CCAE103D102D279C269B24
:1032B000C846E8DC0133534A26932C44072B279455
:1032C00088E8240008DD25AA0B990C9802F0C2FEBC
:1032D00000287FF4B5AE279C099B0D9A08998A4275
:1032E000ACBF9B185B180993002C40F00D830023A2
:1032F0002693C846F9E511931BF0200340F0E381C3
:103300001BF0100240F02E841BF0400300F02A84D2
:103310000F9913460A4604320C880F920025B0E636
:103320000F9A1193166800248DF87740151D002E12
:1033300000F0A7860A9A531C00F009862146304601
:1033400002F086FA002800F0E186831B0E930A94AF
:103350000F95CDF81CB023EAE373089312949DF8FF
:103360007770B3E69AF8003001222B21EEE54BF09E
:10337000200B9AF80030E9E51193002A40F0958778
:10338000224B18931BF0200F40F011810F9A1BF075
:10339000100F134640F0E1831BF0400F00F0DD8377
:1033A000043314880F9300251BF0010F00F00C81EB
:1033B00054EA050300F0088130239DF844208DF87D
:1033C00078308DF879204BF0020B022359E69AF8F9
:1033D000003000297FF4BAAD01222021B6E54BF080
:1033E000010B9AF80030B1E50F9C23680D93184645
:1033F0000028234603F10403FFF60AAE0F939AF860
:103400000030A3E59C734000AC7340007C73400027
:103410004BF0100B1BF0200F11933FF423AE0F9DC8
:10342000073525F0070303F10802D3E900450F92A1
:10343000012326E69AF800302A2B0AF1010400F055
:103440002787A3F130000928A24600F2AD860023A9
:103450001C461AF8013B04EB840400EB4404A3F17E
:1034600030000928F5D90A9472E54BF0800B9AF8E0
:1034700000306BE54BF0400B9AF8003066E59AF8A7
:1034800000306C2B03BF9AF801304BF0200B0AF18F
:10349000010A4BF0100B59E5002A40F011871BF090
:1034A000200F40F0F9841BF0100F40F0AC841BF0AB
:1034B000400F00F0A8840F9A136804320F92BDF8F1
:1034C00024201A8011E50F99B34B0C681893302211
:1034D000782304318DF8793011934BF0020B0F9162
:1034E00000258DF878200223CBE50F9911930A6807
:1034F0008DF8A02000230A461F468DF8773004324D
:1035000001230893CDF81CB00A9712970F920E93DF
:1035100028AEDFE51193002A40F0EA861BF0200F69
:103520005DD11BF0100F40F008831BF0400F00F03E
:1035300004830F99B1F900400431E51722462B4668
:103540000F91002A73F1000358DB0A999DF87770F8
:103550004A1C4FF001037FF49BAD54EA050200F0D2
:10356000DF81CDF81CB0012B00F07B82022B40F0F4
:10357000068218984E46230904F00F0143EA0573AA
:103580002A091C461546435C06F8013D54EA05032A
:10359000F1D1A9EB06030E9390E51193002A40F0B8
:1035A000A3867E4B18931BF0200F3FF4EFAE0F9DC8
:1035B000073525F0070303F108021BF0010F0F92F6
:1035C000D3E900457FF4F4AE02235AE51193002AB3
:1035D00040F086864BF0100B1BF0200FA1D00F9D02
:1035E000073525F00705D5E90023002A05F1080174
:1035F0001D4673F100030F911446A6DA2D2764428D
:1036000065EB45058DF8777001233DE51193002AA0
:1036100040F062860F9D073525F0070303F108028D
:103620000F921A6815925B681493149B159D23F0F2
:103630000044284621464FF0FF32594B03F0D0FD9D
:10364000002840F04A83284621464FF0FF32544B71
:1036500003F0A8FD002840F0408315A80DC8149978
:1036600003F096FD002840F030859DF877704D4EB0
:103670004D4B2BF0800007901198032200210892F7
:103680000A914728D8BF1E460E9212911EE54BF0B4
:10369000080B9AF8003059E4A3F1300000231C46CF
:1036A0001AF8013B04EB840400EB4404A3F130005E
:1036B0000928F5D90D944BE44BF0100B11931BF036
:1036C00020033FF41DAE0F9D073525F0070303F1DE
:1036D0000802D3E900450F920023D2E41193002A97
:1036E00040F0E785119A002A3FF4A3AC00230121A2
:1036F0001F4608918DF8A020CDF81CB08DF87730CA
:103700000A9312930E9128AEE4E4279C34E5119BB2
:10371000652B40F3A78015A80DC8149903F02EFD62
:10372000002800F05081269B204AC8F80020013371
:1037300001340122072B27942693C8F8042000F3B4
:103740006A8308F108081F9B139A279C934203DBA6
:10375000079BDD077FF582AD269B19991A9AC8F859
:10376000002001330C44072BC8F80410279426933B
:1037700000F39E8308F10808139B5E1E002E7FF75E
:103780006DAD102E269B0A4D40F3F5812246102781
:10379000DDF830B00B9C13E07C7340006873400090
:1037A000FFFFEF7F5C734000587340009873400048
:1037B000AC73400008F10808103E102E40F3DA8187
:1037C00001331032072B2792269388E8A000F1DD01
:1037D00025AA2146584602F03DFC00287FF430AC73
:1037E000279A269BC846E7E70D9B089A9F1A002F49
:1037F0007FF7E5AC102F269BB64D27DD42462146CC
:10380000B0464FF0100B2E460C9C0B9D04E0103F71
:10381000102F02F1080215DD01331031072B27911B
:10382000269382E84008F2DD25AA2946204602F0C8
:1038300011FC00287FF404AC103F102F2799269B21
:103840004A46E9DC35460C464646904601333C4440
:10385000072B2794269388E8A00000F3328208F112
:103860000808ACE4139B269F012B40F3FE8101372F
:1038700001340123072F27942697C8F80060C8F861
:10388000043000F3038208F10808199A1A9BC8F85B
:10389000003001371444072F27942697C8F80420D6
:1038A00000F3008208F1080815A80DC8149903F068
:1038B00065FC139B002840F00181013B0137013674
:1038C0001C44072F26972794C8F80060C8F80430D6
:1038D00000F3278108F108081B9AC8F80420013773
:1038E000144421AB072F27942697C8F800307FF7A0
:1038F000B3AC25AA0B990C9802F0ACFB00287FF41E
:103900009FAB279CC846A9E425AA0B990C9802F006
:10391000A1FB00283FF4EBACFFF792BBDDF81CB035
:10392000012B00F03481022B25D1CDF81CB00024EE
:1039300000251EE625AA0B990C9802F08BFB0028A7
:103940007FF47EAB279CC84675E425AA0B990C989A
:1039500002F080FB00287FF473AB279CC8461BE471
:1039600025AA0B990C9802F075FB00287FF468AB30
:10397000279CC84620E4CDF81CB000240025494609
:1039800000E03146E20842EA4572E80804F0070325
:1039900005461446303354EA050201F8013C01F1B2
:1039A000FF36EED1079AD2077FF5F3AD302B3FF407
:1039B000F0AD0239302306F8013CA9EB01030E9368
:1039C0000E46FFF77BBB1F99002940F32E82129B06
:1039D000139A9342A8BF1346002B1F460DDD269B6A
:1039E000C8F8006001333C44072B2794C8F80470E2
:1039F000269300F31F8308F10808129B002FA8BF2D
:103A0000DB1B002B1F4640F3D680102F269B314D29
:103A100040F3ED8142462146B0464FF0100B2E4652
:103A20000C9C0B9D04E00832103F102F40F3DB810B
:103A300001331031072B2791269382E84008F2DDED
:103A400025AA2946204602F005FB00287FF4F8AAA3
:103A50002799269B4A46E7E70A9B0E934E46FFF7B7
:103A60002DBB002D08BF0A2CC0F08F804E4620468B
:103A700029460A220023FEF76FFF303206F8012D97
:103A80002046294600230A22FEF766FF04460D461B
:103A900054EA0503EBD1A9EB06030E93FFF70EBB27
:103AA00025AA0B990C9802F0D5FA00287FF4C8AA31
:103AB0009DF87770279CC846FFF75EBB5E1E002E00
:103AC0007FF70AAF102E034D22DD22464FF0100B78
:103AD0000C9C06E0AC734000103E102E08F1080864
:103AE00015DD01371032072F2792269788E8200826
:103AF000F2DD25AA0B99204602F0ACFA00287FF4EB
:103B00009FAA103E102E279A269FC846E9DC14462D
:103B100001373444072F2794269788E860007FF701
:103B2000D9AE25AA0B990C9802F094FA00287FF4DC
:103B300087AA279C269FC846CEE60F9A146813468C
:103B40000433E5170F9322462B46FAE404321C682F
:103B50000F9201230025FFF794BA1C6804330F93DA
:103B6000002521E40F990A4604320C680F920025C3
:103B7000FFF787BA144601333444072B2794269362
:103B800088E860007FF768ABB3E6DDF81CB0CDF8DD
:103B90001CB042AE3034012306F8414D0E93FFF7BE
:103BA0008DBA25AA0B990C9802F054FA00287FF4DC
:103BB00047AA279CC8461F9A139B9A4244DB079B3F
:103BC000D90741D4139B12989A1A1D1A9542A8BF7F
:103BD0001546002D0EDD2699C8F804500131064423
:103BE0002C440729C8F800602794269100F33B82F3
:103BF00008F10808002DACBF561B1646002E7FF7B3
:103C00002DAB102E269BB04DB5DD22461027DDF8DA
:103C100030B00B9C04E008F10808103E102EA9DD1E
:103C200001331032072B2792269388E8A000F2DD9B
:103C300025AA2146584602F00DFA00287FF400AA72
:103C4000279A269BC846E8E7269B19981A99C8F830
:103C5000001001330444072B2794C8F8040026936E
:103C600000F3F58108F10808ACE7079BDA073FF598
:103C7000FEAD013701340123072F27942697C8F89A
:103C80000060C8F804307FF725AE4AE725AA0B99F3
:103C90000C9802F0DFF900287FF4D2A9279C269F18
:103CA000C846F2E525AA0B990C9802F0D3F9002832
:103CB0007FF4C6A9279C269FC846F5E54E46FFF728
:103CC000FDB925AA0B990C9802F0C4F900287FF4DD
:103CD000B7A9279CC846FFF772BA159C2246204612
:103CE000149C2346214603F07BFA002840F086828C
:103CF0000A9B0133119B23F020030E9300F0E28115
:103D0000472B00F01E814BF480730793149B1F1EFA
:103D1000159B0893BBBF3B4603F1004700232D23AF
:103D20001093119B662B00F0BB81462B00F0DF80C7
:103D30000E9B089A452B0CBF0A9B0A9D23A820A91D
:103D400008BF5D1C049003911FA802213B4602900E
:103D5000019500910C9800F073FB119B672B0646B0
:103D600040F0E0811BF0010F00F046827419169AB2
:103D70000898179B394603F001FA002840F0658146
:103D8000239BA34206D230215A1C23921970239BF5
:103D90009C42F9D89B1B13930E9B472B00F0E980A4
:103DA000119B652B40F3CD81119B662B1F9B1293BA
:103DB00000F09E81139B129A1946914200F38A816A
:103DC0001BF0010F40F0138222EAE273089367238D
:103DD0000E921193109B002B40F0C4800A939DF823
:103DE0007770FFF773B935460C4646469046013367
:103DF0003C44072B2794269388E8A0003FF7D1AED8
:103E000008F10808D7E60F9A136804320F92099A4E
:103E10001A60FFF76AB825AA0B990C9802F01AF9F4
:103E200000287FF40DA9C8468DE4269B274AC8F8D0
:103E30000020013301340122072B27942693C8F870
:103E4000042072DC08F1080829B9139B1BB9079BF1
:103E5000D8077FF503AA269B19981A9AC8F800205C
:103E6000013302462244072B2792C8F80400269308
:103E700000F38D8108F108080029C0F265811399CB
:103E8000C8F8006001338C18072B27942693C8F8D4
:103E900004107FF7E1A92CE50F9A09991368CD1753
:103EA0000846043229460F92C3E90001FFF71DB806
:103EB00025AA0B990C9802F0CDF800287FF4C0A831
:103EC000279CC84658E400BFAC734000987340007C
:103ED00040210C9801F00AFA0B9A1060106100283A
:103EE00000F0F2810B9A40235361FEF7EEBF23A846
:103EF00020A90A9C049003911FA803210290089A0C
:103F000001943B4600910C9800F09AFA254606462B
:103F1000119B462B06EB05047FF429AF3378302B39
:103F200000F078811F9D2C4421E725AA0B990C985D
:103F300002F090F800287FF483A81F99279CC846B8
:103F400082E70A9B002B08BF01230A93DBE6304679
:103F50000A94FEF735FF0F950E90CDF81CB003467E
:103F6000FFF7F9B92D2700238DF877700A93FFF733
:103F7000AEB81F9B12931A46033304DB0A9B194603
:103F80009142BFF617AF119B023B11939DF844304D
:103F90008DF88430129B013B002B1F93BDBF129BF9
:103FA000C3F101032D222B22092B8DF8852040F32C
:103FB00016810DF193042046AB4D00E0104685FBC1
:103FC0000312D917C1EBA20101EB8102A3EB42025C
:103FD0003032092900F8012C0B4600F1FF32EDDCEC
:103FE00030330238D9B2844202F8011C40F26581B4
:103FF0000DF18600134601E013F8011B00F8011BC8
:10400000A342F9D101339B1A0DF18602134421AA70
:104010009B1A139A1B93012A13440E9340F31981A0
:104020000E9B199A13440E9323EAE373089300231B
:104030001293CFE625AA0B990C9802F00BF80028F2
:104040007EF4FEAF279CC846D7E42346A2E625AA05
:104050000B990C9801F0FEFF00287EF4F1AF1F9A37
:10406000279CC846AEE525AA0B990C9801F0F2FFF3
:1040700000287EF4E5AF1F9A139B279C9A1AC84626
:10408000B8E50A9B1296062B28BF06230A963746E8
:1040900008930F95CDF81CB00E93744EFFF716B829
:1040A00023A820A90A9D049003911FA80321029030
:1040B000089A01953B4600910C9800F0C1F906461C
:1040C00044192BE706230A931DE62D278DF87770F8
:1040D000FFF7CDBA199A139B1344129A0E93002A34
:1040E00040F3B08023EAE37308936723119371E6EA
:1040F000002B40F3C3800A9A002A40F099801BF0FD
:10410000010F40F0958008930E9363E60A9B089395
:104110000E930A900F95CDF81CB012909DF8777011
:10412000FEF7D4BF119B472B7FF420AE1BF0010F8D
:104130007FF4EEAE239B9B1B13930E9B472B3FF408
:1041400018AF1F9B129321E74F421031484D2FDAD1
:104150001024DDF830B004E008F10808103F102FFB
:1041600026DD01331032072B27922693C8F8005022
:10417000C8F80440F0DD25AA0B99584601F06AFF03
:1041800000287EF45DAF279A269BC846E6E725AA5D
:104190000B990C9801F05EFF00287EF451AF1F9937
:1041A000279A269BC84667E600200A90FEF7D0BEF5
:1041B00001333A44072B88E8A0002792269308F1A0
:1041C00008087FF75CAE25AA0B990C9801F042FF16
:1041D00000287EF435AF279A269BC8464FE6303339
:1041E00030228DF887308DF8862022AB0FE7129BA6
:1041F000199A13440E9375E7239BCBE5149B1D4E30
:10420000002BB6BF2D279DF877708DF877701A4B6D
:10421000FFF72FBA169A0898179B394602F0AEFF9F
:1042200000287FF47FAEC5F101051F952C449EE563
:10423000129B199A13440A9A1A4422EAE2730E92C4
:104240000893C7E5129B0E9AC3F101031A44134663
:10425000D0E71BF0010312937FF4E2AE0E9B23EA3A
:10426000E3730893B6E500BF676666669073400027
:10427000AC73400064734000607340000A9B13B944
:104280001BF0010F02D0199B0133D4E701233AE759
:104290000F9D9AF80130286840EAE0700A9028469D
:1042A0000430A2460F90FEF751BE8DF87710FFF74D
:1042B00067B88DF87710FFF715BA0DF18603A6E6FB
:1042C0008DF87710FFF7EBB80C9A0C2313604FF0C2
:1042D000FF330993FEF7BDBE8DF87710FFF79AB94B
:1042E0008DF87710FFF776B98DF87710FFF759B989
:1042F0008DF87710FFF712B9024B13B1024800F0A6
:1043000005B87047000000009552400000230146A8
:104310001A46184601F01CBF02690B69934200F36C
:104320008D802DE9F04F03F1FF3801F1140700F102
:10433000140B57F828205BF828304FEA880483B024
:104340000132B3FBF2F90BEB0403009407EB040A10
:104350000193B9F1000F39D000252E46BC46DE4648
:104360005CF8044BDEF80030A2B209FB0255220CC7
:104370002C0C09FB0242ADB2751B96B2C6EB13467C
:1043800015FA83F306EB23469BB243EA0643E24564
:104390004FEA12454EF8043B4FEA2646E0D2009B16
:1043A0005BF8033093B9019C231F9B450CD254F852
:1043B000043C4BB9A4F1080302E01A68043B1AB9A3
:1043C0009B4508F1FF38F8D3C0F81080044601F08F
:1043D00033FD00282EDB09F101095D46002357F863
:1043E000041B28688AB29A1A0B0C12FA80F2C3EBEB
:1043F000104303EB224392B242EA0342BA4545F826
:10440000042B4FEA2343EAD25BF828200BEB880306
:1044100082B91A1F93450BD253F8042C42B9083BBA
:1044200002E01A68043B1AB99B4508F1FF38F8D33B
:10443000C4F81080484603B0BDE8F08F00207047F4
:104440002DE9F04F016C9BB00446279E92469B4697
:1044500041B1426C4A60012393408B6001F014FB30
:1044600000232364BBF1000F5D4635DB002333607E
:104470009D4BAB4315D0504659460022002302F015
:104480007DFE804600282DD0269A01231360289BAC
:10449000002B00F0BD809548186001381BB0BDE8C6
:1044A000F08F269A42F20F731360BAF1000F0DD10C
:1044B000C5F3130555B9289B8D48002BEED000F1AC
:1044C0000803289A13601BB0BDE8F08F289B894829
:1044D000002BE3D0C31CF4E701232BF0004533602D
:1044E000AB46C5E718AA19AB0192009352465B464A
:1044F000204601F041FD2B0D814671D0CBF3130214
:1045000042F07F51189FCDF850805046A3F2FF36FD
:1045100041F440110022784B02F014FA6CA3D3E965
:10452000002302F0C3FB6CA3D3E9002302F00CFAD2
:10453000CDE90201304602F053FB69A3D3E9002321
:1045400002F0B4FB02460B46DDE9020102F0FCF981
:10455000CDE9040102F05AFE002202900023DDE9B9
:10456000040102F015FE002840F07381029D162D13
:1045700000F25D81614B03EBC503D3E900015246B4
:104580005B4602F023FE002800F0C5816B1E0293FB
:1045900000230E93BF1B7B1E069300F15481002362
:1045A0000893029B002BC0F24581069A0D93114699
:1045B0001944002306910C93249B092B2AD8052B20
:1045C00040F35B86043B24930025249B023B032B92
:1045D00000F24286DFE813F0D403C902DF0361046E
:1045E000189F199E3E4406F23243202B40F38E81E1
:1045F000C3F1400306F212409D402AFA00F028431E
:1046000002F0DEFA0123013EA1F1F871149381E773
:104610003B4843E7002161642046259101F00EFAF2
:104620004FF0FF330A93259A0F93012304902064DF
:1046300024920B93199B002BC0F2D980029A0E2A68
:1046400000F3D5802D4B03EBC203D3E90023CDE962
:104650000823259B002BC0F2BA83DDE9085650469B
:104660002A463346594602F04BFC02F0CFFD804605
:1046700002F0B6FA2A46334602F018FB0B46024611
:104680005946504602F05EF9049D08F130032B7044
:104690000A9B012B06460F4605F1010568D0002252
:1046A000184B02F003FB0022002306460F4602F0DF
:1046B00065FD002840F08880CDF82C904FF0000A6E
:1046C000DFF840B00C94DDE9088928E0AFF3008002
:1046D00061436F63A787D23FB3C8608B288AC63F08
:1046E000FB799F501344D33F0000F07F9973400043
:1046F000BC734000C87340000000F83FF8734000EE
:10470000987340000000244002F0D0FA00220023F9
:1047100006460F4602F032FD002840F0C1834246B3
:104720004B463046394602F0EBFB02F06FFD044683
:1047300002F056FA42464B4602F0B8FA02460B46E1
:104740003046394602F0FEF804F1300E049E05F8BA
:1047500001EBA5EB060E0A9EB645CDE906015246D1
:104760005B46D1D1A046DDF82C900C9C06460F4646
:1047700032463B463046394602F0E6F806460F46DA
:1047800002460B46DDE9080102F002FD48B9324657
:104790003B46DDE9080102F0F1FCA8B118F0010F79
:1047A00012D015F8018C049A6B1E04E09A4200F0B6
:1047B000018413F8018DB8F1390F03F10105F5D02B
:1047C00008F1010883F800804946204601F05CF9B1
:1047D0000022029B2A70269A01331360289B002B2B
:1047E00000F09E8304981D601BB0BDE8F08F0B9A0B
:1047F000002A3ED0249A012A40F311830A9B0C9A86
:104800005F1EBA42C0F28F83D71B0A9B002BC0F2F7
:104810008B84089D0A9B089A1A440892069A0121E3
:104820001A442046069201F0C9F9064624E0012305
:104830000E93AFE6089A029BD21A5B420C930023B8
:1048400008920D93B8E6C7F101030893002306937D
:10485000A7E6029D284602F0C3F902460B46DDE9B1
:10486000040102F08BFC00287FF480AE6B1E0293E3
:104870007CE60C9F089D0B9E002D0CDD06990029FF
:104880000B4608DDA942089AA8BF2B46D21AED1A9A
:10489000CB1A089206930C9BD3B10B9B002B00F014
:1048A000B782002F10DD31463A46204601F022FA49
:1048B0004A4601460646204601F08AF949468046A6
:1048C000204601F0E1F8C1460C9BDA1B40F0A182C2
:1048D0000121204601F072F90D9B002B80461CDD62
:1048E00001461A46204601F005FA249B012B80461A
:1048F00040F3548200230C93D8F8103008EB830364
:10490000186901F00BF9C0F1200010E0C3F1200597
:104910000AFA05F074E60E903CE6249B012B40F366
:10492000878200230C930D9B0120002BE4D1069A73
:10493000104410F01F0000F0A180C0F12003042BF0
:1049400040F39E84089BC0F11C0003440893134667
:10495000034405440693089B002B05DD49461A468F
:10496000204601F017FA8146069B002B05DD4146E3
:104970001A46204601F00EFA80460E9B002B40F0AE
:1049800086800A9B002B40F366820B9B002B00F075
:104990009880002D05DD31462A46204601F0FAF9BF
:1049A00006460C9B002B40F0378306960A9B049A20
:1049B000DDF818B0013BD3180B930AF001030C93F8
:1049C0001746C24651464846FFF7A6FC3146054603
:1049D000484601F031FA5A460A905146204601F005
:1049E00047FAC268804605F13003002A40F02B8266
:1049F00001464846089301F01FFA414606902046BA
:104A000001F042F8069A089B32B9249921B90C9A10
:104A1000002A00F0EF83249A0A990029C0F29F82AD
:104A200005D1249919B90C99002900F09882002A1F
:104A300000F306830B9A3B7007F101089742454645
:104A400000F00C83494600230A22204601F026F894
:104A50005E45814631464FF000034FF00A02204682
:104A600000F0EB8101F01AF85946064600230A22AD
:104A7000204601F013F847468346A3E71C20089B15
:104A800003440893069B03440544069363E74146A9
:104A9000484601F0D1F90028BFF673AF029F49469E
:104AA00000230A222046013F029700F0F7FF0B9BEC
:104AB0008146002B40F0B6830F9B002B40F3BF8351
:104AC0000A93DDF810B00A9F5D4602E000F0E6FFB1
:104AD000814641464846FFF71FFC00F1300A05F8C1
:104AE00001ABA5EB0B03BB424FF00A024FF00003F2
:104AF00049462046EADB049B0A9A012AACBF9B1870
:104B000001331D464FF0000B49460122204601F0BB
:104B100041F94146814601F08FF9002840F33D827A
:104B200015F8012C04996B1E04E08B4200F0AE8155
:104B300013F8012D392A03F10105F6D001321A705C
:104B40004146204600F0A0FF002E3FF43DAEBBF1F1
:104B5000000F05D0B34503D05946204600F094FF1E
:104B60003146204600F090FF2EE600230B93029B77
:104B7000259A13440F930133012B1F461E460A93B7
:104B8000B8BF01270021172F61640AD9012204232D
:104B90005B0003F114008742114602F10102F7D2D3
:104BA0006164204600F04AFF0E2E049020643FF618
:104BB00041AD002D3FF43EAD02990029CDE910AB87
:104BC00040F30282B84B01F00F020D1103EBC20358
:104BD000E906D3E9006740F1AE81B44B504659462F
:104BE000D3E9082302F08CF9CDE9120105F00F0595
:104BF0004FF0030A8DB1DFF8B482EA0709D53046D9
:104C00003946D8E9002302F051F80AF1010A0646B4
:104C10000F466D1008F10808EFD13B463246DDE93A
:104C2000120102F06DF9074688460E9B43B100223F
:104C30009F4B3846414602F0ABFA002840F086828E
:104C4000504601F0CDFF3A46434602F02FF8994B0B
:104C5000002201F079FE0A9B0546A1F15076002B57
:104C600000F03E81029B15930A9B12930B9B002B35
:104C700000F0FA81129A8C4B8F4903EBC20353E97F
:104C80000223002002F03CF92A46334601F05AFE86
:104C900082468B463846414602F0B8FA054601F096
:104CA0009FFF02460B463846414601F04BFE303529
:104CB0005FFA85F8049D06460F4685F80080024697
:104CC0000B4650465946013502F080FA002854D16F
:104CD00032463B460020764901F034FE02460B4640
:104CE0005046594602F072FA002840F07082129A3B
:104CF000012A00F01181129B049ACDF848901344C8
:104D000099460DE000206A4901F01CFE52465B46C0
:104D100002F03EFA002840F058824D4500F0FA803B
:104D2000504659460022654B01F0C0FF0022634BFC
:104D300082468B463046394601F0B8FF0F4606469C
:104D400002F064FA804601F04BFF02460B46304603
:104D5000394601F0F7FD08F130085FFA88F852464D
:104D60005B4605F8018B06460F4602F011FA324603
:104D70003B460028C6D0DDF84890159B029323E5FA
:104D800000230B93259B002B40F3DC801F461E461F
:104D90000F930A93F6E601230B93F3E7BAF1000FA2
:104DA0007FF4A8ADCBF31303002B7FF4BAAD2BF047
:104DB00000473F0D3F05002F00F00D82089B013397
:104DC0000893069B0133069301230C93ABE50A9BE2
:104DD000002B3FF742AC40F021820022384BDDE946
:104DE000080101F063FF52465B4602F0E5F9DDF889
:104DF00028804646002841D0259B049DDB43029332
:104E00004146204600F040FE002E3FF4DDACA7E610
:104E10000C9A4946204600F06DFF814658E5149AE9
:104E2000002A00F0878103F233430C9F089DF2E4CF
:104E3000BAF1000F7FF475ADB4E700F02FFE4746DE
:104E400006468346BEE501462046069300F01CFE5A
:104E50000122069BE0E5249B022B7FF796AD0A9B7F
:104E6000002BC9D141460522204600F017FE01461D
:104E70008046484600F0E0FF0028BDDD029A049914
:104E80003123013202920B704D1CB9E7029A0132B4
:104E90000292049A3123137052E601230B9366E6C3
:104EA000DDF82C900C9C8FE4F8734000D073400028
:104EB0000000F03F00001C400000E03F00002440E4
:104EC00000001440504601F08BFE3A46434601F084
:104ED000EDFE0022C14B01F037FD0546A1F15076F1
:104EE00041460022BE4B384601F02CFD2A4633468F
:104EF00082468B4602F06AF98046002840F0108115
:104F00002A4606F100435046594602F041F918B1CD
:104F1000464671E7DDF84890DDE910ABFFF78ABB44
:104F20000498FFF7BBBA0C9B0D9A0C97FB1A1A4416
:104F30000D92002769E4DDE910234FF0020ACDE964
:104F4000122357E60021012361642046259300F0D7
:104F500075FD259B049020640A930F9329E6002A8F
:104F6000D046CDF818B09A4611DD494601222046B8
:104F700000F010FF4146814600F05EFF002840F33C
:104F80004681BAF1390F00F0068105F1310AB346C6
:104F900087F800A07D1C069ED2E504D11AF0010F0F
:104FA00001D0BDE5154615F8013C302B05F1FF3267
:104FB000F8D0C5E5049930220A70029A15F8018CE0
:104FC00001320292FFF7FCBB00F0BB80029B5D4206
:104FD000844B05F00F0203EBC203D3E90023DDE9A4
:104FE000100101F063FE2D110746884600F02C8168
:104FF0007D4E4FF0020AEB0709D538464146D6E907
:10500000002301F053FE0AF1010A074688466D109D
:1050100006F10806EFD108E67168204600F00EFDA3
:10502000336902339A00054606F10C010C3000F09A
:105030005FFC29460122204600F0ACFE0690B5E454
:10504000392BCDF818B0D04600F0A58003F1010A45
:10505000B34687F800A07D1C069E71E55A46D046EF
:10506000B3469A4616464FE5129B5E4901EBC301D3
:105070002A46334651E9020101F018FECDE9160136
:105080003846414602F0C2F8054601F0A9FD0B463C
:1050900002464146384601F055FC129B0F460499E2
:1050A0003035012B0D70064601F1010526D0129B0B
:1050B000049ADFF83CB1CDF8489013444FF0000A51
:1050C000994652465B463046394601F0EFFD0F46A1
:1050D000064602F09BF8804601F082FD08F1300898
:1050E00002460B463046394601F02CFC05F8018B90
:1050F0004D4506460F46E4D1DDF848903B4B002273
:10510000DDE9160101F020FC32463B4602F040F892
:10511000002846D0159B029315F8018CFFF743BB7E
:105120004FF000084646A9E6089B0A9A9D1A0023FC
:10513000FFF771BB189B0C9F089DC3F13603FFF767
:105140006ABBDDE910784FF0020A6EE50A9B002B7E
:105150003FF4B8AE0F9B002B7FF7DEAE0022244B4E
:105160003846414601F0A2FD074688460AF1010093
:1051700001F036FD3A46434601F098FD0022174BF8
:1051800001F0E2FB029A0F9B1293013A0546A1F14E
:10519000507615926AE53922B3463A70069E7D1C18
:1051A000C0E4DDE916230020104901F0CBFB3246B4
:1051B0003B4602F00BF808B9AEE6154615F8013C7F
:1051C000302B05F1FF32F8D0D7E5DDF84890159B7C
:1051D0000293FFF7E8BA0C97FFF7A5BB00001C404D
:1051E00000001440F8734000D07340000000E03F1E
:1051F00000002440392BCDF818B0D046DDF828B097
:105200009A46C8D0BBF1000F3FF7BFAEBFE67FF4B0
:10521000BEAE1AF0010F3FF4BAAEB2E64FF000088E
:105220004646E9E5314600230A22204600F036FCD6
:105230000F9B002B06460ADD0A93FFF7AABB249BAF
:10524000022B23DC0F9B3BE44FF0020AEDE4249B8E
:10525000022B1BDC0F9BEFE70025656429462046E7
:1052600000F0ECFB4FF0FF330A930F9301230490FF
:10527000259520640B93FFF7DDB90125FFF7A5B94C
:105280003FF469ABC0F13C00FFF7F9BB0F9B0A93F9
:10529000E5E500BF38B50A4C0A4D641BA4100AD0DE
:1052A00004F18043013B05EB8305013C55F80439CB
:1052B0009847002CF9D1BDE8384002F09BB900BFF7
:1052C0000476400000764000044A054B1268506B9B
:1052D000002808BF1846F030704700BF100040207B
:1052E00054084020704700BF704700BF2DE9F04FC1
:1052F00001F10B06162E83B0054640F29E8036F073
:10530000070600F1BD80B14200F2BA8000F08AFBCE
:10531000B6F5FC7FC0F09382730A00F0B880042BCE
:1053200000F27981B30903F1390003F1380EC300AB
:10533000BF4F3B44A3F108015C68A14206D10CE0D9
:10534000002A80F2AA80E468A14206D0636823F0B4
:1053500003039A1B0F2AF3DD70463C69DFF8E4E291
:10536000744500F0AB81636823F003039A1B0F2A96
:1053700000F39081002AC7F814E0C7F810E080F22B
:105380009D80B3F5007F80F06181DB0803F1010CA3
:1053900099107A6857F83C80C4F8088001238B4044
:1053A00007EBCC0113430839E1607B6047F83C40D0
:1053B000C8F80C408210012494409C4200F28B807B
:1053C0001C4206D120F0030064001C4200F10400DE
:1053D000FAD007EBC009CC468046DCF80C309C457F
:1053E00007D16DE1002A80F27B81DB689C4500F0EB
:1053F0006781596821F003018A1B0F2AF2DDD3F877
:105400000CC0D3F8088000939C19284646F001068A
:1054100042F001055E60C8F80CC0CCF808807C61E1
:105420003C61C4F80CE0C4F808E065605A5000F034
:10543000FFFA009B03F108041EE0102920D800F0B9
:10544000F1FA102618230220794F3B44A3F10802F9
:105450005C68944200F03D816368E168A66823F0CF
:105460000303234428465A68F16042F001028E602B
:105470005A6000F0DDFA0834204603B0BDE8F08F32
:1054800000240C2320462B6003B0BDE8F08F4020A1
:105490004FF400734FF03F0E4AE72344E1685A6827
:1054A000A66842F00102F16028468E605A6000F062
:1054B000BFFA0834204603B0BDE8F08F23442846E5
:1054C0005A6842F001025A6000F0B2FA08342046ED
:1054D00003B0BDE8F08FBC68636823F00308B045F3
:1054E00004D3A8EB06030F2B00F38580DFF8589157
:1054F000504BD9F800201B680132334404EB080AF2
:1055000000F0558103F580530F3323F47F6B2BF0AC
:105510000F0B5946284600F08BFD411C024600F057
:10552000FC80824500F2F780434B196859441960AA
:1055300000F04D81D9F8000001301BBFA2EB0A0A30
:105540005144C9F80020196012F0070100F01581DC
:10555000C1F10800C1F580510244083102EB0B098A
:10556000C9F30B09A1EB09094946284601930092AA
:1055700000F05EFD431C9DE80C0000F04381801AA2
:10558000484440F001001968BA604944BC42506088
:10559000196017D0B8F10F0F40F2FB806068A8F1D6
:1055A0000C0222F0070204EB020E00F001004FF0A3
:1055B000050C10430F2A6060CEF804C0CEF808C076
:1055C00000F217811D4BBC681A68914288BF1960B0
:1055D0001B4B1A689142626888BF196022F003026F
:1055E0009642A2EB060301D80F2B04DC284600F0FC
:1055F0001FFA002440E7A21943F0010346F0010618
:1056000066602846BA60536000F012FA08342046FB
:1056100003B0BDE8F08F142B71D9542B00F2A38096
:10562000330B03F16F0003F16E0EC30080E600BF81
:1056300044044020980A4020680A4020900A4020F4
:10564000940A40204C0440204C0840205A0A042A66
:105650005BD9142A00F2AE8002F15C01C9005B3212
:1056600007EB010C7958ACF1080C8C4500F08880F0
:105670004A6822F00302934273D289688C45F7D1BD
:10568000DCF80C207B68E260C4F808C09460CCF8B9
:105690000C408FE6A11946F0010C42F00106C4F857
:1056A00004C0284679613961C1F80CE0C1F808E00E
:1056B0004E60E25000F0BCF90834DDE67B6879E624
:1056C00008F1010818F0030F0CF1080C7FF485AE07
:1056D0002DE0DC68A34208BF02303FF43EAEBBE6DB
:1056E00019441C464A68DB6854F8086F42F001020E
:1056F0004A602846F3609E6000F09AF9BCE603F128
:105700005C0003F15B0EC30012E69A0902F1390155
:10571000C9003832A4E7BC4254D0BC68626822F0A9
:1057200003025DE759F80839994540F0868010F08A
:10573000030F00F1FF30F5D17B6823EA04037B609F
:1057400064009C423FF6C7AE002C3FF4C4AE1C423E
:1057500040467FF43EAE64001C4200F10400FAD0E3
:1057600037E68C468CE7B3F5AA7F15D8F30B03F127
:10577000780003F1770EC300DAE54FF48051EDE6CF
:105780007B689210012101FA02F213437B606246AA
:1057900079E70123536029E740F25452934222D81B
:1057A000B30C03F17D0003F17C0EC300C0E503F1EF
:1057B000100BAEE6542A29D81A0B02F16F01C9006A
:1057C0006E324DE7204B196859441960B2E6CAF3AE
:1057D0000B0000287FF4AEAE08EB0B03BA6843F071
:1057E00001035360EEE67F204FF47E734FF07E0E90
:1057F0009EE504F108012846009300F08BFD009B14
:105800001968DFE601204FF00009BCE6B2F5AA7F77
:1058100005D8DA0B02F17801C900773220E740F2AF
:1058200054518A4205D89A0C02F17D01C9007C329C
:1058300016E74FF47E717E2212E77B6880E7F0085E
:1058400006F1080300E600BF680A402000000000DF
:1058500001F0FF01102A2BDB10F0070F08D010F821
:10586000013B013A8B422DD010F0070F42B3F6D125
:10587000F0B441EA012141EA014122F007047FF03E
:1058800000070023F0E80256083C85EA010586EA95
:10589000010685FA47F5A3FA87F586FA47F6A5FAD1
:1058A00087F68EB9EED1F0BC01F0FF0102F00702DD
:1058B00032B110F8013B013A83EA010313B1F8D188
:1058C0000020704701387047002D06BF3546033869
:1058D000073815F0010F07D1013015F4807F02BFA2
:1058E000013015F4C03F0130F0BC0138704700BFF3
:1058F000844641EA000313F003036DD1403A41D3DB
:1059000051F8043B40F8043B51F8043B40F8043B99
:1059100051F8043B40F8043B51F8043B40F8043B89
:1059200051F8043B40F8043B51F8043B40F8043B79
:1059300051F8043B40F8043B51F8043B40F8043B69
:1059400051F8043B40F8043B51F8043B40F8043B59
:1059500051F8043B40F8043B51F8043B40F8043B49
:1059600051F8043B40F8043B51F8043B40F8043B39
:1059700051F8043B40F8043B51F8043B40F8043B29
:10598000403ABDD2303211D351F8043B40F8043BC9
:1059900051F8043B40F8043B51F8043B40F8043B09
:1059A00051F8043B40F8043B103AEDD20C3205D3D9
:1059B00051F8043B40F8043B043AF9D2043208D0D1
:1059C000D2071CBF11F8013B00F8013B01D30B8843
:1059D00003806046704700BF082A13D38B078DD021
:1059E00010F003038AD0C3F10403D21ADB071CBFF3
:1059F00011F8013B00F8013B80D331F8023B20F85D
:105A0000023B7BE7043AD9D3013A11F8013B00F895
:105A1000013BF9D20B7803704B7843708B7883701D
:105A2000604670470148FFF75DBC00BF340B402063
:105A30000148FFF759BC00BF340B4020C36C70B560
:105A400005460C464BB153F8240080B1026843F878
:105A5000242000230361C36070BD2122042100F0D3
:105A6000D9FBE86403460028EDD1002070BD012178
:105A700001FA04F6721D2846920000F0CBFB0028C4
:105A8000F3D044608660E4E731B1C36C4A6853F8F0
:105A90002200086043F82210704700BFF0B50C697F
:105AA00083B00D46064601F1140E0027DEF8000013
:105AB00081B202FB0133010C180C02FB01019BB205
:105AC000013703EB0143BC424EF8043B4FEA11435C
:105AD000ECDC3BB1AA68944207DA05EB840201349E
