S01D0000424C5545544F4F54485F5032505F4558414D504C452E73726563B5
S214400000F02B4020ED2140009D2240009D224000E4
S2144000109D2240009D2240009D224000000000009E
S2144000200000000000000000000000009D2240008C
S2144000309D224000000000009D224000612C4000B0
S2144000409D2240009D2240009D2240009D2240006F
S2144000509D2240009D2240009D2240009D2240005F
S2144000609D22400000000000A51D4000BD1D400030
S214400070D51D40009D2240009D2240009D2240000C
S214400080ED1D4000051E40009D2240009D22400080
S2144000909D2240009D2240009D224000F9294000BC
S2144000A09D2240009D2240009D2240009D2240000F
S2144000B09D224000190A40009D2240009D2240009B
S2144000C09D2240009D2240009D2240009D224000EF
S2144000D0000000009D224000000000009D224000DD
S2144000E0310A40009D2240009D2240009D22400053
S2144000F09D2240009D2240009D2240009D224000BF
S2144001009D2240009D2240009D2240009D224000AE
S2144001109D2240000000000000000000000000009B
S2144001209D2240009D2240009D2240009D2240008E
S2144001309D224000000000009D2240009D2240007D
S21440014010B5054C237833B9044B13B10448AFF3CC
S21440015000800123237010BDC0094020000000002D
S214400160C49B40000C4B43B10C480D4910B5AFF34F
S21440017000800C48036823B910BD0A48036833B9A9
S2144001807047094B002BF7D0BDE810401847064B88
S214400190002BF5D0184700BF00000000C49B40006D
S2144001A0C4094020C49B40000000000080B586B0D3
S2144001B000AFF860B9607A6000237B61FB68002B73
S2144001C012D04FF0FF3313E00B4B1B680B4A1268FC
S2144001D0B96810469847BB680133BB607B690133FA
S2144001E07B617B68013B7B607B68002BECDC7B693A
S2144001F018461837BD4680BDB80A4020C00A402081
S21440020080B586B000AFF860B9607A6000237B6145
S214400210FB68012B1ED0FB68022B1BD0FB68032B10
S21440022018D04FF0FF3319E00E4B1A680E4B186883
S214400230BB68591CB9601B78194690470346002B8B
S21440024002DA4FF0FF3309E07B6901337B617B685C
S214400250013B7B607B68002BE6D17B6918461837EC
S214400260BD4680BDBC0A4020C00A402080B483B052
S21440027000AF0346FB71094997F907305B09FA79E5
S21440028002F01F02012000FA02F241F8232000BFCC
S2144002900C37BD465DF8047B704700BF00E100E0C8
S2144002A080B483B000AF0346FB71094997F9073025
S2144002B05B09FA7902F01F02012000FA02F260336D
S2144002C041F8232000BF0C37BD465DF8047B7047DD
S2144002D000E100E080B483B000AF03463960FB71B4
S2144002E097F90730002B0BDA0D49FB7903F00F0323
S2144002F0043B3A68D2B25201D2B20B441A7609E0B5
S214400300084997F907303A68D2B25201D2B20B4444
S21440031083F8002300BF0C37BD465DF8047B70476A
S21440032000ED00E000E100E080B483B000AFEFF302
S21440033010837B607B68002B0CBF01230023DBB25D
S2144003403B6072B6BFF35F8F044B00221A703B6867
S21440035018460C37BD465DF8047B70470A004020BF
S21440036080B483B000AF78607B68002B14BF012355
S2144003700023DBB218460C37BD465DF8047B704759
S21440038080B582B000AF78607868074B98470346E0
S214400390002B05D0054B01221A70BFF35F8F62B663
S2144003A000BF0837BD4680BD610340000A004020BC
S2144003B080B483B000AF78600B467B8000BF0C37BC
S2144003C0BD465DF8047B704780B483B000AF78606C
S2144003D07B681B6B18460C37BD465DF8047B704740
S2144003E080B483B000AF78607B68DB6A18460C3711
S2144003F0BD465DF8047B704780B584B000AF0346C9
S214400400FB71FB790A4AD35CFF2B00D1FEE7094B10
S2144004109847F860FB79064AD25C0132D1B2044A6A
S214400420D154F868044B984700BF1037BD4680BD8E
S214400430B00A4020290340008103400080B483B0C6
S21440044000AF78607B68072B25D801A252F823F0CE
S21440045071044000770440007D044000830440005F
S214400460870440008B0440008F0440009304400003
S2144004704FF4FA4310E04FF400430DE04FF40043CE
S2144004800AE0084B08E0084B06E0084B04E0074B40
S21440049002E0064B00E0002318460C37BD465DF8E8
S2144004A0047B704700093D0000127A00001BB7002D
S2144004B080B500AF0620054B9847024613469B0082
S2144004C013449A001344184680BD00BF3D044000C4
S2144004D080B500AF024B98470346184680BD00BF24
S2144004E0B104400080B483B000AF78607B68094AAE
S2144004F0934201D1012306E07B68074A934201D12B
S214400500002300E0002318460C37BD465DF8047B08
S214400510704700BF0040064000C0034080B483B030
S21440052000AF78607B68094A934201D1282306E0F1
S2144005307B68074A934201D11D2300E01D231846DD
S2144005400C37BD465DF8047B704700BF0040064050
S21440055000C0034080B485B000AF786039600023A7
S214400560FB603B68DB7C002B02D04FF0004200E093
S21440057000223B6859683B689B68B1FBF3F3013B3C
S2144005801B029BB21A433B681B7C1B0603F070633E
S2144005901A433B685B7C1B0703F040531A433B6897
S2144005A0DB68134343F40003FB607B68FA685A60D9
S2144005B03B681B7D002B02D04FF0807200E000228B
S2144005C03B681B681A433B685B7D002B02D04FF0AC
S2144005D0007300E000231A437B689A603B689B7D6B
S2144005E01B0203F4407343F00C027B68C3F894206C
S2144005F000BF1437BD465DF8047B704780B586B0B3
S21440060000AFF8600B467A607B817B891946F868B4
S2144006101E4B984700237B61FB681B6E7B617B8982
S214400620012202FA03F3DB437A6913407B617B685D
S2144006301B78002B04D07B89012202FA03F300E0EA
S21440064000237A6913437B61FB687A691A66FB6804
S2144006505B6D7B617B895B00032202FA03F3DB431D
S2144006607A6913407B617B685B781A467B895B00BE
S21440067002FA03F31A467B6913437B61FB687A6987
S2144006805A6500BF1837BD4680BD00BFB103400065
S21440069080B485B000AF786039600023FB603B686B
S2144006A01B78002B01D0012300E000233A685278E3
S2144006B01343FB607B68FA681A673B685B881A4698
S2144006C03B689B881B041A437B685A6700BF1437F5
S2144006D0BD465DF8047B704780B582B000AF786059
S2144006E07B6800221A60124B984702467B685A6025
S2144006F07B68104A9A607B684FF48022DA607B6899
S21440070002221A747B6801225A747B6801229A740A
S2144007107B680022DA747B6801221A757B680122A6
S2144007205A757B6801229A7500BF0837BD4680BD62
S214400730D1044000808D5B0080B483B000AF786009
S2144007407B6800221A707B6801225A7000BF0C3703
S214400750BD465DF8047B704780B483B000AF7860D8
S2144007607B6800221A707B6820225A707B68FF22C2
S2144007705A807B6840F6FF729A8000BF0C37BD46B1
S2144007805DF8047B7047000080B584B000AF7860A9
S214400790396078681D4B9847034603F08073B3F181
S2144007A0807F01D119232CE07B6801221A603968CA
S2144007B07868174B98477B68164A93420DD10023BA
S2144007C0FB6007E0144AFB68002142F82310FB68F0
S2144007D00133FB60FB680F2BF4D97B680F4A9342CA
S2144007E00ED10023FB6008E00B4AFB681033002163
S2144007F042F82310FB680133FB60FB680F2BF3D9EC
S214400800002318461037BD4680BD00BFC9034000D0
S2144008105505400000C00340C40A40200040064042
S21440082080B586B000AFF860B9607A60FB70F86853
S214400830174B9847786117497B691A01BB68134480
S2144008407A6841F823207B69002B0BD11D20124B80
S2144008509847FB7819461D20104B98471D20104B93
S21440086098470DE07B69012B0AD128200A4B984710
S214400870FB7819462820094B98472820084B98476C
S214400880B968F868074B984700BF1837BD4680BD23
S214400890E5044000C40A4020A1024000D5024000C2
S2144008A06D024000A908400080B483B000AF786075
S2144008B039603B68194A934203D17B68174A5A62AB
S2144008C026E03B680B2B0FD83B680B2B04D17B688C
S2144008D04FF400625A621BE001223B6802FA03F3BF
S2144008E01A467B685A6213E03B680E2B08D83B6872
S2144008F00C33012202FA03F31A467B685A6207E079
S2144009003B680F33012202FA03F31A467B685A62A9
S2144009100C37BD465DF8047B704700BFFF0F0047AD
S21440092080B582B000AF03463960FB71FB790A4957
S2144009301A013B68134451F82330002B07D0FB794B
S21440094005491A013B68134451F82330984700BFC5
S2144009500837BD4680BD00BFC40A402090B587B06A
S21440096000AF78607868284B984704467868274BED
S214400970984703462340FB607868254B9847386184
S21440098000237B6139E07B690B2B0FD801227B6902
S21440099002FA03F31A46FB681340002B2AD03B6941
S2144009A0DBB2796918461B4B984723E07B690E2BD0
S2144009B010D87B690C33012202FA03F31A46FB680F
S2144009C01340002B16D03B69DBB279691846114BB1
S2144009D098470FE07B690F33012202FA03F31A4669
S2144009E0FB681340002B05D03B69DBB2796918469B
S2144009F0084B98477B6901337B617B690F2BC2D9D3
S214400A0000BF1C37BD4690BDC9034000E10340000F
S214400A10E50440002109400080B500AF0248034B82
S214400A20984700BF80BD00BF00C003405D0940003E
S214400A3080B500AF0248034B984700BF80BD00BF5B
S214400A40004006405D09400080B584B000AF786045
S214400A507868064B9847F860F868054B9847022038
S214400A60044B984700BF1037BD4680BD1D0540006B
S214400A70E1204000F903400080B485B000AFF86044
S214400A80B9607A60FA687B6806339B001344BA689C
S214400A905A6000BF1437BD465DF8047B704780B48B
S214400AA087B000AFF860B9607A60FA68BB689B01AF
S214400AB013447B617B6902221A607B694FF0FF32E8
S214400AC09A627B691B6A7B697A685A6000BF1C37EA
S214400AD0BD465DF8047B704780B483B000AF786055
S214400AE039607A683B689B01134405221A6000BF50
S214400AF00C37BD465DF8047B704780B485B000AFC8
S214400B00F860B9607A60FA68BB689B011344143396
S214400B107A681A6000BF1437BD465DF8047B70479C
S214400B2080B485B000AFF860B9607A60FA68BB6898
S214400B309B0113441C337A681A6000BF1437BD46C5
S214400B405DF8047B704780B485B000AF786039604C
S214400B507A683B689B011344FB60FB681B6A184637
S214400B601437BD465DF8047B704780B48DB000AF47
S214400B70F860B9607A603B6002233B6108237B6182
S214400B802023BB618023FB61BB6BDB0B3B620023F6
S214400B90FB621AE0FB6A9B0007F13002134453F8ED
S214400BA0203CBA68B2FBF3F3BB62BB6A1B0C7B62A9
S214400BB0FA68BB6A9A4201D9002323E0FA687B6A46
S214400BC09A4206D2FB6A0133FB62FB6A042BE1D9E8
S214400BD000E000BFFB6A042B01D9002312E07B68CB
S214400BE0002B08D0FB6A9B0007F13002134453F8F1
S214400BF0202C7B681A603B68002B02D03B68FA6A60
S214400C001A60012318463437BD465DF8047B7047AA
S214400C1080B489B000AFF860B9607A60BB681A01EA
S214400C207B689A4202D81023FB6101E00823FB61EF
S214400C307B68DA00FB69B96801FB03F35B081A447A
S214400C40FB69B96801FB03F3B2FBF3F3BB61BB6915
S214400C50DB087B61BB6903F007033B617B69002BC4
S214400C6003D07B69B3F5803F01D301230FE0FB69D6
S214400C70082B05D1FB685B6843F40022FB685A608A
S214400C803B691A047B691A43FB681A6200231846BC
S214400C902437BD465DF8047B7047000080B582B0BF
S214400CA000AF786078680D4B98477B6800225A60A2
S214400CB07B6800225A627B6800229A627868084BFA
S214400CC098477868074B98477868074B98477868FE
S214400CD0064B984700BF0837BD4680BD7D0E400096
S214400CE08F0D4000C30D4000DD0D4000F90D400063
S214400CF080B584B000AFF860B9607A60F8681A4B87
S214400D0098471A4B00221A60BB68002B09D0BB6874
S214400D101B687A681946F868154B98470346002BB7
S214400D2001D001231BE0BB685A68BB689B681A4326
S214400D30BB681B691A43BB68DB681A430B4B1B68CE
S214400D4013430A4A1360094B1B68084A1360FB6842
S214400D505A68064B1B681A43FB685A6000231846BD
S214400D601037BD4680BD00BF9D0C4000DC094020CA
S214400D70110C400080B483B000AF78607B6840229E
S214400D801A6000BF0C37BD465DF8047B704780B4E0
S214400D9083B000AF78607B6888221A6000BF0C374B
S214400DA0BD465DF8047B704780B483B000AF786082
S214400DB07B6810221A6000BF0C37BD465DF8047B86
S214400DC0704780B483B000AF78607B6824221A6096
S214400DD000BF0C37BD465DF8047B704780B483B0D7
S214400DE000AF78607B684FF480721A6000BF0C37A3
S214400DF0BD465DF8047B704780B483B000AF786032
S214400E007B684FF400221A6000BF0C37BD465DF881
S214400E10047B704780B483B000AF786039607B68ED
S214400E205B6903F00203002B01D1012305E03B6818
S214400E30C3F308027B68DA61002318460C37BD46C8
S214400E405DF8047B704780B483B000AF786039604B
S214400E507B685B6903F00103002B01D1012306E0A8
S214400E607B689B69C3F308023B681A6000231846F8
S214400E700C37BD465DF8047B7047000080B483B0F5
S214400E8000AF78607B68044AC3F8E42000BF0C37A4
S214400E90BD465DF8047B70470041535580B582B02F
S214400EA000AF78600B46FB707B68364A93420AD1A7
S214400EB000BFFB7819467868334B98470346002BAB
S214400EC0F7D101235AE07B68304A93420AD100BFEB
S214400ED0FB78194678682C4B98470346002BF7D189
S214400EE001234BE07B682A4A93420AD100BFFB7835
S214400EF019467868244B98470346002BF7D10123C0
S214400F003CE07B68234A93420AD100BFFB781946EF
S214400F1078681D4B98470346002BF7D101232DE0F8
S214400F207B681D4A93420AD100BFFB781946786811
S214400F301A4B98470346002BF7D101231EE07B68E7
S214400F40174A93420AD100BFFB7819467868134B7C
S214400F5098470346002BF7D101230FE07B68114AE0
S214400F6093420AD100BFFB78194678680B4B9847E6
S214400F700346002BF7D1012300E00023184608372C
S214400F80BD4680BD00080E403D104000000A0E40A1
S214400F90001A0E40001C0E4000400240150E400055
S214400FA00080024000C0024080B584B000AFF860C8
S214400FB0B9607A600BE0BB681B781946F868084B46
S214400FC098477B68013B7B60BB680133BB607B68AE
S214400FD0002BF0D1002318461037BD4680BD00BF19
S214400FE09D0E400080B485B000AF78603960002325
S214400FF0FB607B68AC221A603B681A683B685B689B
S214401000B2FBF3F31B09FB60FB68002B03D0FB68C5
S214401010B3F5803F01D301230AE07B68FA681A6281
S2144010203B689A687B685A607B6850221A60002347
S21440103018461437BD465DF8047B704780B483B0CD
S21440104000AF78600B46FB707B685B6903F0020379
S214401050002B01D1012303E0FA787B68DA61002394
S21440106018460C37BD465DF8047B704780B582B0A5
S21440107000AF78607B68072B31D801A252F823F086
S214401080DD104000A1104000A9104000B110400003
S214401090B9104000C1104000C9104000D3104000B5
S2144010A00020114B98471AE001200F4B984716E056
S2144010B000200E4B984712E010200C4B98470EE04D
S2144010C020200A4B98470AE03E210020084B9847CC
S2144010D005E03E210120064B984700E000BF00BFD8
S2144010E00837BD4680BD00BF1D1F4000891F400019
S2144010F0F91F400080B582B000AF78607B68072B50
S21440110026D801A252F823F0291140002D114000A4
S2144011102D1140003F1140003F1140003F1140005C
S2144011203F1140003F114000012312E00B4B98470F
S2144011300346002B14BF01230023DBB209E0084B13
S21440114098470346002B14BF01230023DBB200E080
S214401150002318460837BD4680BD00BF551F4000D7
S2144011607120400080B483B000AF78607B68072B66
S21440117025D801A252F823F0991140009F11400053
S214401180A5114000AB114000AF114000B311400024
S214401190B7114000BB1140004FF4FA4310E04FF443
S2144011A000430DE04FF400430AE0084B08E0084BCC
S2144011B006E0084B04E0074B02E0064B00E0002345
S2144011C018460C37BD465DF8047B704700093D0065
S2144011D000127A00001BB70080B582B000AF03460D
S2144011E0FB7100BFFB791846054B9847034683F0D2
S2144011F00103DBB2002BF5D100BF0837BD4680BDEA
S214401200F510400080B586B000AFF8607A603B606D
S2144012100B46FB727B68002B07D13B68002B04D142
S214401220FB684FF470021A6019E0FB7A18460E4BC2
S214401230984702467B68B2FBF3F37B617B693A686A
S21440124002FB03F37B613B68013B1A04074B1340E8
S2144012507A68D2B2134343F47C52FB681A6000BFEC
S2144012601837BD4680BD00BF651140000000FF072F
S21440127080B582B000AF786039603B68002B08D1FB
S214401280094B9847094A7B681B6843F000539362B2
S21440129005E0064A7B681B6843F48033D36100BF91
S2144012A00837BD4680BD00BF8D20400000060E407A
S2144012B080B582B000AF78607B68002B03D1054BC9
S2144012C09847034602E0044B9847034618460837BB
S2144012D0BD4680BDA9204000C520400080B582B0F4
S2144012E000AF0346FB71FB79033B042B08D8FB7920
S2144012F01846064B9847FB791846054B984700E03A
S21440130000BF00BF0837BD4680BD00BF6D1040001F
S214401310D911400080B582B000AF786000BF7868D1
S214401320044B98470346002BF9D00023184608374D
S214401330BD4680BDB112400080B500AF0620054BCB
S2144013409847024613469B0013449A001344184697
S21440135080BD00BF6511400080B500AF024B984786
S2144013600346184680BD00BF3913400090B583B091
S21440137000AF1348134B98470620134B9847381D29
S214401380192301220621114CA0473B1D0021184677
S2144013900F4B984700200F4B984702200E4B98471C
S2144013A000200E4B98470E4B98470E4B98470346E7
S2144013B01846044B984700BF0C37BD4690BD00BF4B
S2144013C000A3E1110D244000DD124000051240004C
S2144013D071124000151340001D1E4000991E40002B
S2144013E0A52240005913400080B582B000AF786017
S2144013F07868034B984700BF0837BD4680BD00BF9E
S214401400E120400080B500AF0A20084B98470B20EB
S214401410064B98470C20054B98471020034B98479F
S2144014201120024B984700BF80BD00BFE913400023
S21440143080B489B000AF78607B68FB61FB69BB61B4
S214401440BB695A09FB697B617B6903F01F03012175
S21440145001FA03F33A61FB603B69BB60BA68064B2E
S21440146013445B021A46FB68536000BF2437BD46F0
S2144014705DF8047B704700BF0707200080B48DB03E
S21440148000AF786039607B68FB623B68BB62FB6A92
S2144014907B627B6A5A09FB6A3B623B6A03F01F0326
S2144014A0012101FA03F3FA61BB61BB6A7B61FB6908
S2144014B03B613A69374B13445B02FB607B6903F040
S2144014C00803002B03D0FB68BA695A6602E0FB6843
S2144014D0BA691A667B6903F01003002B04D0FB68D8
S2144014E0BA69C3F8942003E0FB68BA69C3F8902051
S2144014F07B6903F02003002B03D0FB68BA691A65AA
S21440150002E0FB68BA695A657B6903F0C003002BAA
S21440151003D0FB68BA691A6202E0FB68BA695A628D
S2144015207B6903F08003002B04D0FB68BA69C3F8DC
S214401530842003E0FB68BA69C3F880207B6903F027
S2144015400103002B06D0FB681A6FBB691A43FB6881
S2144015501A6706E0FB681A6FBB69DB431A40FB68F4
S2144015601A677B6903F00203002B06D0FB685A6FAC
S214401570BB691A43FB685A6706E0FB685A6FBB694B
S214401580DB431A40FB685A6700BF3437BD465DF8F8
S214401590047B70470707200080B48DB000AF7860AA
S2144015A00B46FB707B68FB62FB7887F82B30FB6A48
S2144015B07B627B6A3B623B6A5B09FB61FA69174B5D
S2144015C013445B02BB6197F82B30012B09D1FB6AB1
S2144015D07B617B6903F01F0301229A40BB691A6155
S2144015E00CE097F82B30002B08D1FB6A3B613B6937
S2144015F003F01F0301229A40BB695A61FB6AFB60F5
S214401600FB6803F01F0301229A40BB69C3F8A02081
S21440161000BF3437BD465DF8047B7047070720009F
S21440162080B48BB000AF78600B46FB707B687B6203
S214401630FB7887F823307B6AFB61FB69BB61BB693B
S2144016405B097B617A69104B13445B023B6197F8F8
S2144016502330002B09D07B6AFB60FB6803F01F0336
S21440166001229A403B691A6308E07B6ABB60BB680C
S21440167003F01F0301229A403B695A6300BF2C3790
S214401680BD465DF8047B70470707200080B48DB0E8
S21440169000AF78600B46FB707B68FB62FB7887F890
S2144016A02B30FB6A7B627B6A5A09FB6A3B623B6A69
S2144016B003F01F03012101FA03F3FA61BB6197F8B7
S2144016C02B30FB75FB693B613A69234B13445B0245
S2144016D0FB60FB7D013B032B2ED801A252F823F082
S2144016E01517400027174000F1164000031740002A
S2144016F0FB68BA69C3F8C420FB68BA69C3F8D0204F
S2144017001FE0FB68BA69C3F8C420FB68BA69C3F82F
S214401710D42016E0FB68BA69C3F8C020FB68BA69F3
S214401720C3F8D0200DE0FB68BA69C3F8C020FB6858
S214401730BA69C3F8D42004E0FB68BA69C3F8B42099
S21440174003E0FB68BA69C3F8B02000BF3437BD4633
S2144017505DF8047B704700BF0707200080B400AFE9
S214401760BFF34F8FBFF36F8F0C4A0C4BD3F89032BA
S21440177023F00103C2F89032084A084BD3F894325B
S21440178023F00103C2F89432BFF34F8FBFF36F8F3D
S21440179000BFBD465DF8047B704700BF00ED00E02B
S2144017A080B500AF1C4B4FF400425A601B4B1C4A9E
S2144017B05A601A4B1B4A5A601B4B98471B4B98471C
S2144017C0012148201A4B984701214820194B984739
S2144017D000210B20164B984788210B20164B984724
S2144017E002210B20154B984700211520124B984795
S2144017F01520134B9847134A124BD3F8143143F035
S2144018001003C2F81431032124200B4B98472420A0
S2144018100B4B984700BF80BD50180E40000C0E4042
S2144018200C08005A0C07005A5D174000051440008B
S21440183099154000211640007D1440008D1640004A
S214401840311440000080084080B485B000AFF86096
S214401850B9607A607B68002B03D0FB68BA685A662A
S21440186002E0FB68BA681A6600BF1437BD465DF8EA
S214401870047B704780B487B000AFF860B9607A6088
S214401880BB68B3F1405F03D0BB68B3F1605F03D180
S214401890FB689B6B7B6102E0FB68DB6B7B617A6974
S2144018A07B681340002B01D1002300E0012318463B
S2144018B01C37BD465DF8047B704780B487B000AFE8
S2144018C0F860B9607A60FB687A685A64BB68B3F1BE
S2144018D0C05F4AD0B3F1C05F08D8B3F1006F16D0EE
S2144018E0B3F1805F2CD0002B69D064E0B3F1205F69
S2144018F065D0B3F1205F03D8B3F1005F4AD05AE019
S214401900B3F1405F5BD0B3F1605F58D053E0FB6803
S2144019101B6F7B61FB681A6F7B68D9437B690B4002
S2144019201A40FB681A67FB685B6F7B61FB685A6FFF
S2144019307B68D9437B690B401A40FB685A673AE09C
S214401940FB681B6F7B617A687B691A43FB681A6782
S214401950FB685B6F7B61FB685A6F7B68D9437B692A
S2144019600B401A40FB685A6725E0FB681B6F7B619B
S214401970FB681A6F7B68D9437B690B401A40FB684B
S2144019801A67FB685B6F7B617A687B691A43FB6802
S2144019905A6710E0FB681B6F7B617A687B691A4365
S2144019A0FB681A67FB685B6F7B617A687B691A43E2
S2144019B0FB685A6700BFFB687A685A6000E000BF61
S2144019C01C37BD465DF8047B7047000080B584B088
S2144019D000AFF860B9607A60B968F868194B984704
S2144019E07B6803F001031A46B968F868164B9847B7
S2144019F07B6803F00A03002B03D0FB68BA681A62C0
S214401A0002E0FB68BA685A627B6803F00203002B68
S214401A1004D0FB68BA68C3F8802008E07B6803F00F
S214401A200803002B03D0FB68BA68C3F88420FB6821
S214401A30BA685A61FB68BA681A6000BF1037BD467C
S214401A4080BD00BF051C40004918400080B584B0EA
S214401A5000AFF860B9607A603B60B968F868124BCE
S214401A609847BA69B968F868104B98473B68002BA6
S214401A7003D0FB68BA681A6502E0FB68BA685A6524
S214401A807B68002B03D0FB68BA681A6302E0FB68E9
S214401A90BA685A63FB68BA681A61FB68BA681A6023
S214401AA000BF1037BD4680BD051C400049184000A9
S214401AB090B587B002AFF860B9607A603B60BB68AB
S214401AC0B3F1005F16D0B3F1005F09D8B3F1805F81
S214401AD010D0B3F1C05F0DD0B3F1006F0AD03DE037
S214401AE0B3F1405F1AD0B3F1605F17D0B3F1205F17
S214401AF00ED033E07A68B968F8681C4B98473B6864
S214401B0003F001031A467968F868194B984727E0AE
S214401B103A687968F868174B984721E0BB68B3F194
S214401B20605F0CBF01230023DBB21A463B6803F01C
S214401B300403002B14BF01230023DBB219463B6885
S214401B4003F00103002B14BF01230023DBB20093F4
S214401B500B467968F868084CA04701E0002300E08F
S214401B60012318461437BD4690BD00BFBB18400041
S214401B7049184000CD1940004D1A400080B485B049
S214401B8000AFF860B9607A607B6803F01003002B02
S214401B9020D0FB68BA68C3F8B0207B6803F0200307
S214401BA0002B04D0FB68BA68C3F8D42003E0FB6877
S214401BB0BA68C3F8D0207B6803F04003002B04D0FB
S214401BC0FB68BA68C3F8C02008E0FB68BA68C3F888
S214401BD0C42003E0FB68BA68C3F8B42000BF1437DB
S214401BE0BD465DF8047B704780B483B000AF786034
S214401BF039607B683A681A6400BF0C37BD465DF8AA
S214401C00047B704780B483B000AF786039607B68EF
S214401C103A685A6400BF0C37BD465DF8047B70478F
S214401C2080B483B000AF78607B68DB6C18460C37B6
S214401C30BD465DF8047B704780B483B000AF7860E3
S214401C407B689B6C18460C37BD465DF8047B704736
S214401C5080B584B000AF786039607868264B984786
S214401C60F8607868254B98470246FB681340FB604F
S214401C70FB68002B3CD00023BB6034E0204ABB68A6
S214401C801B0113441A683B689A4226D11C4ABB681B
S214401C901B01134404331A68FB681340002B1CD006
S214401CA0174ABB681B0113440C331B681449BA68B7
S214401CB012010A4410681249BA6812010A440432F2
S214401CC01268114698470E4ABB681B0113440433FA
S214401CD01B68DB43FA681340FB60BB680133BB609C
S214401CE0BB68062B03D8FB68002BC7D100E000BFBB
S214401CF000BF1037BD4680BD211C4000391C400047
S214401D00E009402080B586B000AFF860B9607A60E0
S214401D103B60214B1B68062B01D9012338E000238A
S214401D20FB7511E0FB7D1B011C4A13443B613B697C
S214401D301A68BB689A4204D13B695A687B689A42E3
S214401D4008D0FB7D0133FB75FA7D134B1B689A4226
S214401D50E8D900E000BF3B69BA681A603B697A6818
S214401D605A603B693A689A603B693A6ADA60FA7D3B
S214401D70094B1B6801339A4204D1074B1B68013359
S214401D80054A13603A687968F868054B9847002317
S214401D9018461837BD4680BD500A4020E00940200E
S214401DA07D1B400080B500AF0A210248024B984791
S214401DB000BF80BD000E0E40511C400080B500AFF5
S214401DC00B210248024B984700BF80BD00100E40D2
S214401DD0511C400080B500AF0C210248024B98478A
S214401DE000BF80BD00120E40511C400080B500AFC1
S214401DF010210248024B984700BF80BD00140E4099
S214401E00511C400080B500AF11210248024B984754
S214401E1000BF80BD00160E40511C400080B483B009
S214401E2000AF78607B68013B032B1AD801A252F8BA
S214401E3023F000BF451E40004B1E4000531E40008E
S214401E405B1E400000237B600EE04FF480737B6097
S214401E500AE04FF440737B6006E04FF400737B600B
S214401E6002E000237B6000BF0A490A4B1B6B23F449
S214401E7040727B6813430B6300BF064B9B6E03F0B8
S214401E800803002BF9D000BF0C37BD465DF8047B35
S214401E90704700BF00060E4080B485B000AF786043
S214401EA01D491D4B1B6B23F070027B6813430B636D
S214401EB04FF48053FB6007E0FB68002B01D1012301
S214401EC023E0FB68013BFB60134B9B6E03F008036B
S214401ED0002BF1D0104A104B1B6B23F0030343F04A
S214401EE0020313634FF48053FB6007E0FB68002B4C
S214401EF001D1012309E0FB68013BFB60064B9B6E6A
S214401F0003F00803002BF1D0002318461437BD46D3
S214401F105DF8047B704700BF00060E4080B483B077
S214401F2000AF78607B68012B05D10749064B9A685D
S214401F30064B13438B60044B054A1A6000BF0C37B0
S214401F40BD465DF8047B704710180E40000010A593
S214401F50080000A580B400AF094B5B6903F080031E
S214401F60002B07D0074B9B6E03F08003002B01D05D
S214401F70012300E000231846BD465DF8047B704709
S214401F8010180E4000060E4080B483B000AF786054
S214401F901549154B1A6A154B13430B6200BF124B7B
S214401FA09B6E03F40033002BF9D00F490E4B1A6A90
S214401FB00F4B13407A68134343F45C130B6200BF25
S214401FC0094B9B6E03F40033002BF9D00649064BB1
S214401FD01A6A084B134043F45C130B6200BF0C377D
S214401FE0BD465DF8047B704700060E40080037008B
S214401FF08FFFC8FFFFFFC8FE80B483B000AF786095
S21440200039607B68002B08D01349134B1B6A134A70
S2144020101A40134B13430B6218E00F490E4B1A6AD3
S214402020104B13403A68120292B21A430E4B1343B7
S2144020300B6200BF084B9B6E03F00103002BF9D0E8
S2144020400549054B1A6A094B13430B6200BF0C3710
S214402050BD465DF8047B704700060E40FCFFC8FE98
S21440206002003701FCFFC8FF0100370000003701BF
S21440207080B400AF044B9B6E03F480331846BD46D5
S2144020805DF8047B704700BF00060E4080B400AF8A
S214402090044B4FF000529A6200BFBD465DF8047B89
S2144020A0704700BF00060E4080B400AF044B9B6EE6
S2144020B003F002031846BD465DF8047B704700BF38
S2144020C000060E4080B400AF044B9B6E03F0400306
S2144020D01846BD465DF8047B704700BF00060E40BC
S2144020E080B483B000AF78607B683F2B01D9012372
S2144020F02FE07B681F2B13D8194B9A6901217B6808
S21440210001FA03F31A4001217B6801FA03F39A426D
S2144021101ED0134A01217B6801FA03F3136117E0CE
S2144021207B68203B7B600E4BD3F8082101217B68FF
S21440213001FA03F31A4001217B6801FA03F39A423D
S21440214006D0074A01217B6801FA03F3C2F8003142
S214402150002318460C37BD465DF8047B704700BF29
S21440216000060E4080B483B000AFEFF310837B6070
S2144021707B68002B0CBF01230023DBB23B6072B6AA
S214402180BFF35F8F044B00221A703B6818460C372B
S214402190BD465DF8047B70470A00402080B483B09B
S2144021A000AF78607B68002B14BF01230023DBB2AE
S2144021B018460C37BD465DF8047B704780B582B044
S2144021C000AF78607868074B98470346002B05D0E9
S2144021D0054B01221A70BFF35F8F62B600BF083707
S2144021E0BD4680BD9D2140000A00402080B584B099
S2144021F000AF1E4BFB601E4BBB60FA68BB689A4242
S2144022000CD007E0BB681A1DBA60FA68111DF96069
S21440221012681A60BB68174A9342F3D3164BBB60EA
S21440222004E0BB681A1DBA6000221A60BB68134AF5
S2144022309342F6D3124BFB60124AFB6823F07F03AF
S2144022409360114B98477860104A104B1B6843F4D4
S21440225070031360BFF34F8FBFF36F8F78680C4BDC
S21440226098470C4B98470C4B9847FEE7C49B40005A
S21440227000004020C0094020C0094020F00B40200C
S2144022800000400000ED00E06521400088ED00E0E1
S214402290BD214000413740007931400080B400AF56
S2144022A0FEE7000080B400AF524B1B6B03F0030305
S2144022B0012B14D0012B02D3022B38D07AE04E4BA0
S2144022C05B6903F08003002B04D04C4B4FF4004274
S2144022D01A606FE0494B4FF4FA421A606AE0454B89
S2144022E01B6A03F08073002B03D0444B444A1A60A9
S2144022F060E0424B434A1A603E4B1B6A03F0700351
S214402300102B04D0202B08D0002B0ED00EE03B4BD9
S2144023101B685B00394A136008E0384B1A6813465E
S2144023205B001344354A136000E000BF42E0314B87
S2144023301B6A03F08073002B03D0304B304A1A6080
S2144023401CE02E4B2F4A1A602A4B1B6A03F0700380
S214402350102B04D0202B08D0002B0ED00EE0274B9D
S2144023601B685B00254A136008E0244B1A68134636
S2144023705B001344214A136000E000BF1D4B1B6BFB
S21440238003F00303022B14D11A4B9B6A1B0CC3F3B6
S2144023900A030133194A126802FB03F3174A136013
S2144023A0144B9B6ADBB2154A1268B2FBF3F3134A2E
S2144023B0136000BF0F4B1B6B03F07003702B08D1EC
S2144023C00E4B1B68104AA2FB03235B080B4A1360A4
S2144023D00AE0084B1B6B1B0903F00703074A126809
S2144023E022FA03F3054A136000BFBD465DF8047B3E
S2144023F0704700BF00060E4010180E400C004020EC
S214402400001BB70000093D00ABAAAAAA80B483B05F
S21440241000AF78607B681D4A934204D81C4B4FF04F
S21440242080621A602BE07B681A4A934203D8184BA6
S214402430194A1A6023E07B68184A934203D8144B23
S214402440174A1A601BE07B68164A934203D8104B23
S214402450154A1A6013E07B68144A934204D80C4B22
S2144024604FF004221A600AE07B68114A934203D870
S214402470074B104A1A6002E0054B0F4A1A6000BF2D
S2144024800C37BD465DF8047B704700BFBFF35E0166
S214402490000C0E407FE7BD02000100043FDB1C0439
S2144024A000020004FFCE7B0500030004BFC2DA062C
S2144024B07FB63908000500040006000480B485B0E5
S2144024C000AF7860104BFB60104B1B68002B02D1AE
S2144024D00E4B0F4A1A600D4B1B68BB60BA687B6890
S2144024E01A44FB689A4202DD4FF0FF3306E0074B82
S2144024F01A687B681344054A1360BB68184614374D
S214402500BD465DF8047B7047FCFF4520540A4020DA
S214402510F02D402080B483B000AF78604FF0FF339A
S21440252018460C37BD465DF8047B704780B483B0D0
S21440253000AF786039603B684FF400525A60002321
S21440254018460C37BD465DF8047B704780B483B0B0
S21440255000AF7860012318460C37BD465DF8047B13
S214402560704780B485B000AFF860B9607A600023E9
S21440257018461437BD465DF8047B704780B483B078
S21440258000AF0346FB71094997F907305B09FA79B2
S21440259002F01F02012000FA02F241F8232000BF99
S2144025A00C37BD465DF8047B704700BF00E100E095
S2144025B080B483B000AF03463960FB7197F90730AB
S2144025C0002B0BDA0D49FB7903F00F03043B3A6806
S2144025D0D2B25201D2B20B441A7609E0084997F9B2
S2144025E007303A68D2B25201D2B20B4483F8002385
S2144025F000BF0C37BD465DF8047B704700ED00E039
S21440260000E100E080B582B000AF78607B68013BB7
S214402610B3F1807F01D301230FE00A4A7B68013B78
S214402620536007214FF0FF30074B9847054B002279
S2144026309A60044B07221A60002318460837BD46A6
S21440264080BD00BF10E000E0B125400080B483B0FC
S21440265000AF78600B467B8000BF0C37BD465DF808
S214402660047B704780B485B000AF78600B46FB7043
S2144026707B685B68FB60FB78FF2B04D1FB6843F00C
S2144026808003FB6007E0FB6823F08F03FB60FB786A
S214402690FA681343FB607B68FA685A6000BF1437D9
S2144026A0BD465DF8047B704780B483B000AF786069
S2144026B07B6802221A6000BF0C37BD465DF8047B7B
S2144026C07047000080B582B000AF78600B467B80D4
S2144026D07B8840F6FF72934204D07B881946786820
S2144026E00A4B98477B8840F6FF72934205D07B881A
S2144026F0012202FA03F31A4601E040F6FF727B68B5
S2144027005A6100BF0837BD4680BD00BF4D26400019
S21440271080B582B000AF78600B467B807B881946D8
S2144027207868054B98477A887B685A667B689B6EC4
S21440273018460837BD4680BD4D26400080B582B05D
S21440274000AF78600B467B8013463B807B881946FB
S2144027507868074B98477A887B685A663B88C3F305
S2144027600B027B68DA6600BF0837BD4680BD00BFF7
S2144027704D26400080B483B000AF78607B68072B5E
S21440278025D801A252F823F0A9274000AF274000E1
S214402790B5274000BB274000BF274000C327400066
S2144027A0C7274000CB2740004FF4FA4310E04FF4D1
S2144027B000430DE04FF400430AE0084B08E0084BA6
S2144027C006E0084B04E0074B02E0064B00E000231F
S2144027D018460C37BD465DF8047B704700093D003F
S2144027E000127A00001BB70080B500AF0620054BEC
S2144027F09847024613469B0013449A0013441846D3
S21440280080BD00BF7527400080B500AF024B98479B
S2144028100346184680BD00BFE927400080B500AF9C
S214402820024B984703465B08184680BDE9274000A0
S21440283080B582B000AF78607868034B984700BF99
S2144028400837BD4680BD00BFE120400080B500AFE0
S2144028500A20084B98470B20064B98470C20054B00
S21440286098471020034B98471120024B984700BFCB
S21440287080BD00BF3128400080B58CB000AF786086
S21440288039604F4B984703467B623B681B68BB6288
S2144028903B689B68FB623B681B68FB603B685B6809
S2144028A03B613B689B687B613B68DB68BB610023A0
S2144028B0FB617B68434A934208D10720424B9847C6
S2144028C007F1240319467868404B98477B68404A8E
S2144028D0934208D108203C4B984707F124031946F9
S2144028E078683A4B98477B683A4A934208D12C20FE
S2144028F0354B984707F1240319467868334B984779
S2144029007B68354A934208D12D202F4B984707F1D4
S2144029102403194678682D4B98477B682F4A934284
S21440292008D12E20284B984707F12403194678688B
S214402930264B98477B682A4A934211D10D20224B5A
S21440294098471F4B9847024607F10C03194678688C
S214402950244B98477868244B98477868234B984789
S2144029607B68234A934211D10E20174B9847144B4D
S2144029709847024607F10C0319467868194B984762
S2144029807868194B98477868184B98477B68194A77
S214402990934211D10F200C4B9847094B984702465B
S2144029A007F10C03194678680E4B984778680E4B2B
S2144029B0984778680D4B984700BF3037BD4680BD76
S2144029C01D28400000080E4031284000E50F40001A
S2144029D0000A0E40001A0E40001C0E40001E0E401C
S2144029E000400240F10C4000750D4000A90D40002B
S2144029F00080024000C0024080B582B000AF002197
S214402A000648074B984703467B600648064B984760
S214402A107B6800BF0837BD4680BD00BF00C0004091
S214402A20470B4000889740009137400080B500AF84
S214402A3000210748074B98470246074B1A6007484D
S214402A40074B9847074B01221A7000BF80BD00BF56
S214402A5000C00340112740006C0A40209497400075
S214402A6091374000680A402080B483B000AF786059
S214402A701D4B93F90030002B18D01C4B1B681C498B
S214402A807A6841F82320194B1B680133174A1360B4
S214402A90164B1B680F2B21D1134B00221A70134B79
S214402AA000221A60134B00221A7017E0124B1B6864
S214402AB012497A6841F823200F4B1B6801330E4AAF
S214402AC013600D4B1B680F2B08D1074B01221A7061
S214402AD0094B00221A60074B01221A7000BF0C37C0
S214402AE0BD465DF8047B704710004020700A4020C9
S214402AF0880B4020780A4020740A4020440B40202F
S214402B0090B58BB000AF2148214B984707F1100392
S214402B101846204B984707F1100319461B481E4B92
S214402B209847032119481D4B9847184A174B5B682E
S214402B3043F0030353600123194A00211348194CFC
S214402B40A04707F10C031846174B984700237B73A2
S214402B5007F10C031A4600210C48144B98474FF4D3
S214402B60007200210948124B98473B1D1846114BEE
S214402B7098473B1D194605480F4B98470021034888
S214402B800E4B984700BF2C37BD4690BD00C0034053
S214402B90490A4000D90640008907400065264000A3
S214402BA02D2A40002108400039074000FD0540001E
S214402BB03D2740005907400091064000C52640008A
S214402BC090B58BB002AFF860B9607A603B601C4B42
S214402BD09847F8610123BB61BB681846194B984774
S214402BE0386807F1100107F11402FB6900930B46A1
S214402BF0F969154CA04779683B6943F41C231A468B
S214402C00F868124B98477B684AF6A8221946F86837
S214402C100F4B98477B684FF6FC721946F8680D4B89
S214402C209847BB685BB218460B4B98477B6819467B
S214402C30F8680A4B984700BF2437BD4690BD00BF92
S214402C4009284000E12040006B0B40009F0A4000EE
S214402C50FB0A4000210B40007D254000D90A400079
S214402C6080B400AF044B1B680133034A136000BFB7
S214402C70BD465DF8047B7047580A402080B582B058
S214402C8000AF786039603868054B984703461A4667
S214402C9039687868034B984700BF0837BD4680BD03
S214402CA081394000A90F400080B588B000AFF86079
S214402CB0B9607A603B60174B1B68BB610023FB61C1
S214402CC010E007F114031946F868134B984703467B
S214402CD0002B07D1FB695A1CFA61BA6813447A691B
S214402CE0D2B21A700B4B1A68BB69D21A3B689A422A
S214402CF005D27B68013B1A46FB699A42E1D8BA681E
S214402D00FB69134400221A70FB6918462037BD46FB
S214402D1080BD00BF580A4020470E400090B585B0A1
S214402D2000AFF860B9607A603B603968F868064B77
S214402D3098473B6A7A68B968F868044CA04700BF71
S214402D401437BD4690BD00BF7D2C4000A92C4000E6
S214402D5080B582B000AF786039600C490C480D4BA6
S214402D60984779680A480B4B98470B490848094BDF
S214402D70984739680648074B984708490448054B22
S214402D80984700BF0837BD4680BD00BFA0974000AB
S214402D90008002407D2C4000A4974000A897400049
S214402DA080B584B000AF4FF4E1333B60C0237B6016
S214402DB04FF40063BB600023FB603B461946064861
S214402DC0064B98470448064B98470348054B984798
S214402DD000BF1037BD4680BD0080024079284000C5
S214402DE0750D4000A90D400090B585B000AF4FF47A
S214402DF016533B60C0237B604FF40063BB600023E8
S214402E00FB603B4619460E480E4B98470C480E4B07
S214402E1098470B480D4B984700234FF080524FF091
S214402E2000610B480B4CA04700234FF080424FF008
S214402E3000610748074CA04700BF1437BD4690BD09
S214402E40001C0E4079284000750D4000A90D40003A
S214402E5000140E40B11A400090B5A3B002AF3946F8
S214402E60C8230093404B4FF47A724048404CA047EA
S214402E703946C82300933C4B4FF47A723B483C4C4F
S214402E80A0473946C8230093374B4FF47A723748E9
S214402E90374CA04739464FF4C8730093354B4FF430
S214402EA07A723248324CA04739464FF4C873009382
S214402EB0314B4FF47A722D482D4CA0473B4619466D
S214402EC02E482F4B984739464FF4C87300932D4BE6
S214402ED04FF47A722548264CA0473B461946274869
S214402EE0274B984739464FF4C8730093264B4FF408
S214402EF07A721E481E4CA0473B4619461F48204B38
S214402F00984739464FF4487300931A4B4FF47A72F9
S214402F101648174CA0473B4619461848184B984742
S214402F2039464FF47A730093184B4FF47A720F4831
S214402F300F4CA0473B4619461048114B9847394618
S214402F404FF47A730093124B4FF47A720748084C4A
S214402F50A0473B4619460948094B984700BF1846C4
S214402F608437BD4690BD00BFAC974000001C0E4065
S214402F701D2D4000B0974000BC974000CC974000C5
S214402F80512D4000E0974000EC974000F8974000F5
S214402F900498400090B583B002AF1020104B98477D
S214402FA009224FF480010F480F4B98474FF4800199
S214402FB00C480E4B98470E4B009301234FF480026B
S214402FC0102108480B4CA04710200B4B9847012176
S214402FD010200A4B984700BF0437BD4690BD00BF3F
S214402FE0E120400000140E40CD194000E91B40008F
S214402FF001304000051D40007D254000B1254000C1
S21440300080B58EB000AF78603960214B1A6807F102
S2144030100C0320491846204B984707F10C031946E5
S2144030201E481F4B98474FF480024FF020511D48D2
S2144030301D4B98470346DBB2FB724FF400124FF02D
S21440304020511848184B98470246FB7ADBB29A4202
S21440305009D0164B1B68632B0EDC144B1B680133E0
S214403060124A136008E0114B1B68002B04DD0F4B1F
S2144030701B68013B0D4A1360054B01221A60FB7A20
S214403080DBB21A460A4B1A6000BF3837BD4680BDD1
S214403090600A4020189840000139400000800240F5
S2144030A07D2C400000140E40751840005C0A4020FD
S2144030B0840B402090B583B002AF0A20104B98474F
S2144030C009224FF400610F480F4B98474FF40061B8
S2144030D00C480E4B98470E4B009350234FF400621B
S2144030E00A2108480B4CA0470A200B4B9847012161
S2144030F00A200A4B984700BF0437BD4690BD00BF24
S214403100E1204000000E0E40CD194000E91B400073
S21440311021314000051D40007D254000B12540007E
S21440312080B590B000AF786039600C490C480D4BC4
S21440313098470D4B01221A600B4B1A6807F108039B
S2144031400A4918460A4B984707F1080319460948A2
S214403150044B984700BF4037BD4680BD2C98400082
S214403160001C0E407D2C4000640A402030984000F1
S21440317001394000008002402DE99048ADF5836D4E
S21440318002AF7B4B98477B4B98477B4B98477B4B94
S2144031904FF400425A607A4B98470246794BA3FB5D
S2144031A002239B091846784B9847784B98477849AE
S2144031B07848794B984779497648774B9847784B83
S2144031C09847784B98474FF480024FF02051764806
S2144031D0764B98470246764B1A60764B9847764B26
S2144031E09847764B00221A60754B00221A60754B42
S2144031F000221A60744B01221A60744B9847744838
S214403200744B98470523002217217348734CA047F8
S2144032100A20734B98470023009300230022012185
S2144032207048714CA04701224FF080516D486F4B5B
S21440323098476F486F4B98470023C7F80C340AE00E
S2144032406D4AD7F80C34002142F82310D7F80C34D6
S2144032500133C7F80C34D7F80C340F2BF0DD0023BD
S214403260C7F808340AE0654AD7F80834002142F81F
S2144032702310D7F808340133C7F80834D7F8083491
S2144032800F2BF0DD504B1B68002BFBD05C4B1B78A4
S214403290DBB2002BF6D05A4B00221A70594B1B68F3
S2144032A01846594B9847594B93F90030002B1FD17D
S2144032B00023C7F8043417E04F4AD7F8043452F8CE
S2144032C02330002219465248524B98474A4AD7F86C
S2144032D0043452F8233019464F48504B9847D7F895
S2144032E004340133C7F80434D7F804340F2BE3D939
S2144032F04B4B93F90030002B1FD00023C7F8003407
S21440330017E03E4AD7F8003452F8233000221946D8
S2144033103F48404B9847394AD7F8003452F8233054
S214403320194640483D4B9847D7F800340133C7F814
S2144033300034D7F800340F2BE3D9114B9847034697
S2144033404FF0000441F22B714FF0000213EB010BDB
S21440335044EB020C58466146334C41F22C724FF017
S2144033600003A04703460C461846304B984789E76B
S214403370A11740006D1340004D28400050180E40E5
S21440338009284000D34D621005264000A12D40007C
S21440339040984000008002407D2C400054984000F9
S2144033A0E92D4000592E400000140E40751840008C
S2144033B0840B4020952F4000B5304000580A4020EE
S2144033C05C0A4020600A4020640A4020012B4000EE
S2144033D06C984000F138400000C00040C12B4000CF
S2144033E0E1204000000E0E404D1A4000BB18400041
S2144033F000C00340A9264000880B4020440B4020D4
S214403400680A40206C0A4020692A4000100040208C
S21440341000000440790A4000CC98400091374000B4
S214403420780A4020DC9840003134400001004020BB
S21440343053B94AB9002908BF00281CBF4FF0FF31D6
S2144034404FF0FF3000F07AB9ADF1080C6DE904CECC
S21440345000F006F8DDF804E0DDE9022304B070472A
S2144034602DE9F0478C460D460446089E002B51D168
S2144034708A4217466DD9B2FA82FEBEF1000F0BD0D3
S214403480CEF1200C01FA0EF520FA0CFC02FA0EF7EB
S2144034904CEA050C00FA0EF44FEA174A250CBCFB22
S2144034A0FAF81FFA87F90AFB18CC45EA0C4508FBE0
S2144034B009F3AB420AD9ED1908F1FF3280F02381B7
S2144034C0AB4240F22081A8F102083D44ED1AA4B276
S2144034D0B5FBFAF00AFB105544EA054400FB09F92F
S2144034E0A14509D9E41900F1FF3380F00A81A145CE
S2144034F040F2078102383C44A4EB090440EA084005
S2144035000021002E61D024FA0EF40023346073604C
S214403510BDE8F0878B4207D9002E54D0002186E8BC
S21440352021000846BDE8F087B3FA83F1002940F051
S2144035308E80AB4202D3824200F2FA80841A65EB58
S21440354003050120AC46002E3FD086E81010BDE8AB
S214403550F08712B90127B7FBF2F7B7FA87FEBEF13C
S214403560000F34D1EB1B3A0C1FFA87FC0121B3FB4A
S214403570F2F8250C02FB183345EA03450CFB08F32A
S214403580AB4207D9ED1908F1FF3002D2AB4200F248
S214403590D1808046ED1AA3B2B5FBF2F002FB10557F
S2144035A043EA05440CFB00FCA44507D9E41900F1A6
S2144035B0FF3302D2A44500F2B8801846A4EB0C04B0
S2144035C040EA08409DE731463046BDE8F087CEF1F8
S2144035D0200405FA0EF307FA0EF720FA04F83A0C20
S2144035E025FA04F448EA0308B4FBF2F14FEA18451A
S2144035F002FB11441FFA87FC45EA044501FB0CF325
S214403600AB4200FA0EF409D9ED1901F1FF3080F013
S2144036108A80AB4240F2878002393D44EB1A1FFA5B
S21440362088F5B3FBF2F002FB103345EA034500FB96
S2144036300CF3AB4207D9ED1900F1FF386FD2AB421D
S2144036406DD902383D44EB1A40EA01418FE7C1F19B
S214403650200722FA07F88B4005FA01F448EA0303EC
S21440366020FA07FE4FEA134CFD404EEA040EB5FB27
S214403670FCF94FEA1E440CFB19551FFA83F844EA3E
S214403680054509FB08F4AC4202FA01F200FA01FAD9
S21440369008D9ED1809F1FF3043D2AC4241D9A9F11F
S2144036A002091D442D1B1FFA8EFEB5FBFCF00CFBD9
S2144036B010554EEA054400FB08F8A04507D9E41823
S2144036C000F1FF3529D2A04527D902381C4440EAEC
S2144036D00940A4EB0804A0FB02894C45C6464D466B
S2144036E015D312D056B1BAEB0E0364EB050404FAB8
S2144036F007F7CB401F43CC40376074600021BDE8DD
S214403700F0871846F8E69046E0E6C245EAD2B8EBBF
S214403710020E69EB03050138E4E72846D7E7404642
S21440372091E78146BEE7014678E702383C4445E7E4
S214403730084608E7A8F102083D442BE7704700BF5B
S21440374070B50F4E0F4D761BB61018BF002405D02F
S214403750013455F8043B9847A642F9D10A4E0B4D22
S214403760761B06F019FAB61018BF002406D00134AE
S21440377055F8043B9847A642F9D170BD70BD00BFCE
S214403780A49B4000A49B4000AC9B4000A49B4000F0
S2144037900FB400B5074983B004AB086853F8042B50
S2144037A08168019301F0C8FB03B05DF804EB04B0F8
S2144037B0704700BF1400402070B4860746D0541EA1
S2144037C0002A41D0CAB2034602E014F1FF343BD38C
S2144037D003F8012B9D07F8D1032C2ED9CDB245EA2C
S2144037E005250F2C45EA054519D903F11002264652
S2144037F0103E0F2E42F8105C42F80C5C42F8085C13
S21440380042F8045C02F11002F2D8A4F1100222F051
S2144038100F0204F00F041032032C13440DD91E4639
S2144038202246043A032A46F8045BFAD8221F22F0BE
S21440383003020432134404F003042CB1C9B21C44FE
S21440384003F8011B9C42FBD170BC704714460346EC
S214403850C2E700BFF0B5054689B008460C4600F002
S2144038608FF8AB6B214F04940126441C04A9022216
S21440387003940590AC68069707960191029253B35D
S214403880636E13F0010FB4F90C309AB201D1900573
S21440389025D5910406D4626E43F4005322F40052B8
S2144038A0A3816266284601AA214603F007FD636E9F
S2144038B000280CBF0A254FF0FF35DA0702D4A3894B
S2144038C09B0502D5284609B0F0BDA06D03F0BAFEB0
S2144038D0284609B0F0BD284603F0E4FAD0E7A06DCC
S2144038E003F0AEFEB4F90C309AB2D2E7F09840003E
S2144038F0024B01461868FFF7ADBF00BF14004020DA
S2144039000EB4F0B59CB021AB0F4953F8042B01938D
S21440391005466FF00044086802954FF402774FF66C
S214403920FF7602A90695ADF8147004940794ADF896
S214403930166000F093F8029B00221A701CB0BDE897
S214403940F04003B0704700BF140040200000000065
S2144039500000000000000000000000000000000022
S2144039600000000000000000000000000000000012
S2144039700000000000000000000000000000000002
S21440398090F800F06DE9024520F007016FF0000C5A
S21440399010F0070491F820F040F049804FF0000402
S2144039A06FF00700D1E9002391F840F000F10800DD
S2144039B082FA4CF2A4FA8CF283FA4CF3A2FA8CF315
S2144039C04BBBD1E9022382FA4CF200F10800A4FA7C
S2144039D08CF283FA4CF3A2FA8CF3E3B9D1E90423D0
S2144039E082FA4CF200F10800A4FA8CF283FA4CF307
S2144039F0A2FA8CF37BB9D1E9062301F1200182FAC1
S214403A004CF200F10800A4FA8CF283FA4CF3A2FAC6
S214403A108CF3002BC6D0002A04BF04301A4612BAD4
S214403A20B2FA82F2FDE8024500EBD2007047D1E9D7
S214403A30002304F00305C4F100004FEAC50514F066
S214403A40040F91F840F00CFA05F562EA05021CBF37
S214403A5063EA050362464FF00004A9E72DE9F04FFC
S214403A60C3B00C460B9192460F930C9003F0D6FDD4
S214403A7003681A931846FFF783FFA389199019061F
S214403A8003D52369002B01F0038000230DF1C809FC
S214403A901393159314932793269318931B93099384
S214403AA0CDF89490C846169317939AF8003054462B
S214403AB0E3B1252B02D119E0252B03D014F8013FA2
S214403AC0002BF9D1A4EB0A0585B1269B279AC8F8A6
S214403AD000A001332A44072BC8F8045027922693A7
S214403AE07FDC08F10808099B2B4409932378002BB8
S214403AF07FD000231A468DF8773019460D939B46A3
S214403B004FF0FF3063780A9004F1010A0AF1010A87
S214403B10A3F12000582800F2C183DFE810F03802F5
S214403B20BF03BF034002BF03BF03BF03BF03BF03C0
S214403B30BF0345020302BF035D006B02BF0386025C
S214403B409D039D039D039D039D039D039D039D0330
S214403B509D03BF03BF03BF03BF03BF03BF03BF0332
S214403B60BF03BF03BF0337035703BF035703BF0358
S214403B70BF03BF03BF039803BF03BF03AD03BF0329
S214403B80BF03BF03BF03BF035902BF03BF031E03E8
S214403B90BF03BF03BF03BF03BF03BF03BF03BF03D0
S214403BA0BF03BF03C602DB025703570357038B020C
S214403BB0DB02BF03BF039002BF039D02CC01B402E9
S214403BC00802BF03E101BF037E00BF03BF030D022F
S214403BD00D980F9340420D904BF0040B9AF800302E
S214403BE094E725AA0B990C9804F0C2FE40B9C84643
S214403BF079E7279B23B10C980B9925AA04F0B8FEC9
S214403C000B9B9B8913F0400F099B18BF4FF0FF3367
S214403C100993099843B0BDE8F08F1BF0200F11932D
S214403C2040F0DD810F9A1BF0100F134640F06E8572
S214403C301BF0400F00F06A851488043200250123EB
S214403C400F9200278DF877700A994A1C00F065821B
S214403C502BF08002079254EA050240F06482002965
S214403C6040F03C84002B40F0D7841BF001030E93B9
S214403C7000F0048642AE302306F8413D0A9B0E9A79
S214403C809342B8BF134608930023129317B1089B7C
S214403C9001330893079B13F00203109302D0089B4E
S214403CA002330893079B13F0840540F00E830D9B68
S214403CB0089AA3EB020BBBF1000F40F30683BBF15F
S214403CC0100F279C269A29DD43462146A8461027F2
S214403CD00C9C0B9D06E0ABF1100BBBF1100F03F1F3
S214403CE0080318DD0132B74826921031072A27917B
S214403CF083E88100EFDD25AA2946204604F038FEF9
S214403D0000287FF47DAFABF1100BBBF1100F279965
S214403D10269A4B46E6DC45460C4698460132A94B69
S214403D2026925C44072A279488E8080800F398847B
S214403D309DF8777008F1080877B1269B0133013467
S214403D400DF177010122072B2794269388E8060079
S214403D5000F3DB8308F10808109B6BB1269B013308
S214403D6002341EA90222072B2794269388E80600D1
S214403D7000F3D68308F10808802D00F015830A9BCF
S214403D800E9A9F1A002F36DD102F269B8E4D27DD6C
S214403D9042462146B0464FF0100B2E460C9C0B9DDB
S214403DA004E0103F102F02F1080215DD01331031F8
S214403DB0072B2791269382E84008F2DD25AA29465C
S214403DC0204604F0D5FD00287FF41AAF103F102F90
S214403DD02799269B4A46E9DC35460C464646904699
S214403DE001333C44072B2794269388E8A00000F331
S214403DF0818308F10808079BDF0500F16882269B4F
S214403E000E99C8F8006001330C44072B2794C8F875
S214403E100410269300F34D8308F10808079B5B07C0
S214403E203AD50D9B089A9D1A002D35DD102D269B00
S214403E3020DD10260C9FDDF82CB004E0103D102D40
S214403E4008F1080816DD01335E4A26931034072B26
S214403E50279488E84400F1DD25AA5946384604F000
S214403E6087FD00287FF4CCAE103D102D279C269B66
S214403E70C846E8DC0133534A26932C44072B279444
S214403E8088E8240008DD25AA0B990C9804F070FDFC
S214403E9000287FF4B5AE279C099B0D9A08998A4264
S214403EA0ACBF9B185B180993002C40F00D83002391
S214403EB02693C846F9E511931BF0200340F0E381B2
S214403EC01BF0100240F02E841BF0400300F02A84C2
S214403ED00F9913460A4604320C880F920025B0E626
S214403EE00F9A1193166800248DF87740151D002E02
S214403EF000F0A7860A9A531C00F0098621463046F1
S214403F0003F0E6FE002800F0E186831B0E930A9439
S214403F100F95CDF81CB023EAE373089312949DF8EE
S214403F207770B3E69AF8003001222B21EEE54BF08D
S214403F30200B9AF80030E9E51193002A40F0958767
S214403F40224B18931BF0200F40F011810F9A1BF064
S214403F50100F134640F0E1831BF0400F00F0DD8366
S214403F60043314880F9300251BF0010F00F00C81DA
S214403F7054EA050300F0088130239DF844208DF86C
S214403F8078308DF879204BF0020B022359E69AF8E8
S214403F90003000297FF4BAAD01222021B6E54BF06F
S214403FA0010B9AF80030B1E50F9C23680D93184634
S214403FB00028234603F10403FFF60AAE0F939AF84F
S214403FC00030A3E5389940004899400018994000D1
S214403FD04BF0100B1BF0200F11933FF423AE0F9DB8
S214403FE0073525F0070303F10802D3E900450F9291
S214403FF0012326E69AF800302A2B0AF1010400F045
S2144040002787A3F130000928A24600F2AD86002398
S2144040101C461AF8013B04EB840400EB4404A3F16D
S21440402030000928F5D90A9472E54BF0800B9AF8CF
S21440403000306BE54BF0400B9AF8003066E59AF896
S21440404000306C2B03BF9AF801304BF0200B0AF17E
S214404050010A4BF0100B59E5002A40F011871BF07F
S214404060200F40F0F9841BF0100F40F0AC841BF09A
S214404070400F00F0A8840F9A136804320F92BDF8E0
S21440408024201A8011E50F99B34B0C681893302200
S214404090782304318DF8793011934BF0020B0F9151
S2144040A000258DF878200223CBE50F9911930A68F6
S2144040B08DF8A02000230A461F468DF8773004323C
S2144040C001230893CDF81CB00A9712970F920E93CF
S2144040D028AEDFE51193002A40F0EA861BF0200F59
S2144040E05DD11BF0100F40F008831BF0400F00F02E
S2144040F004830F99B1F900400431E51722462B4658
S2144041000F91002A73F1000358DB0A999DF87770E7
S2144041104A1C4FF001037FF49BAD54EA050200F0C1
S214404120DF81CDF81CB0012B00F07B82022B40F0E3
S214404130068218984E46230904F00F0143EA057399
S2144041402A091C461546435C06F8013D54EA050319
S214404150F1D1A9EB06030E9390E51193002A40F0A7
S214404160A3867E4B18931BF0200F3FF4EFAE0F9DB7
S214404170073525F0070303F108021BF0010F0F92E5
S214404180D3E900457FF4F4AE02235AE51193002AA2
S21440419040F086864BF0100B1BF0200FA1D00F9DF1
S2144041A0073525F00705D5E90023002A05F1080163
S2144041B01D4673F100030F911446A6DA2D2764427C
S2144041C065EB45058DF8777001233DE51193002A90
S2144041D040F062860F9D073525F0070303F108027D
S2144041E00F921A6815925B681493149B159D23F0E2
S2144041F00044284621464FF0FF32594B05F086FAD8
S214404200002840F04A83284621464FF0FF32544B60
S21440421005F05EFA002840F0408315A80DC81499B2
S21440422005F04CFA002840F030859DF877704D4EEA
S2144042304D4B2BF0800007901198032200210892E6
S2144042400A914728D8BF1E460E9212911EE54BF0A3
S214404250080B9AF8003059E4A3F1300000231C46BE
S2144042601AF8013B04EB840400EB4404A3F130004D
S2144042700928F5D90D944BE44BF0100B11931BF025
S21440428020033FF41DAE0F9D073525F0070303F1CD
S2144042900802D3E900450F920023D2E41193002A86
S2144042A040F0E785119A002A3FF4A3AC0023012191
S2144042B01F4608918DF8A020CDF81CB08DF87730B9
S2144042C00A9312930E9128AEE4E4279C34E5119BA2
S2144042D0652B40F3A78015A80DC8149905F0E4F99E
S2144042E0002800F05081269B204AC8F80020013361
S2144042F001340122072B27942693C8F8042000F3A4
S2144043006A8308F108081F9B139A279C934203DB95
S214404310079BDD077FF582AD269B19991A9AC8F848
S214404320002001330C44072BC8F80410279426932A
S21440433000F39E8308F10808139B5E1E002E7FF74D
S2144043406DAD102E269B0A4D40F3F5812246102770
S214404350DDF830B00B9C13E01899400004994000FB
S214404360FFFFEF7FF8984000F498400034994000F3
S2144043704899400008F10808103E102E40F3DA81B4
S21440438001331032072B2792269388E8A000F1DDF0
S21440439025AA2146584604F0EBFA00287FF430ACB4
S2144043A0279A269BC846E7E70D9B089A9F1A002F38
S2144043B07FF7E5AC102F269BB64D27DD42462146BB
S2144043C0B0464FF0100B2E460C9C0B9D04E0103F61
S2144043D0102F02F1080215DD01331031072B27910B
S2144043E0269382E84008F2DD25AA2946204604F0B6
S2144043F0BFFA00287FF404AC103F102F2799269B65
S2144044004A46E9DC35460C464646904601333C442F
S214404410072B2794269388E8A00000F3328208F101
S2144044200808ACE4139B269F012B40F3FE8101371E
S21440443001340123072F27942697C8F80060C8F850
S214404440043000F3038208F10808199A1A9BC8F84A
S214404450003001371444072F27942697C8F80420C5
S21440446000F3008208F1080815A80DC8149905F055
S2144044701BF9139B002840F00181013B01370136B0
S2144044801C44072F26972794C8F80060C8F80430C5
S21440449000F3278108F108081B9AC8F80420013762
S2144044A0144421AB072F27942697C8F800307FF78F
S2144044B0B3AC25AA0B990C9804F05AFA00287FF45E
S2144044C09FAB279CC846A9E425AA0B990C9804F0F4
S2144044D04FFA00283FF4EBACFFF792BBDDF81CB078
S2144044E0012B00F03481022B25D1CDF81CB00024DE
S2144044F000251EE625AA0B990C9804F039FA0028E8
S2144045007FF47EAB279CC84675E425AA0B990C9889
S21440451004F02EFA00287FF473AB279CC8461BE4B1
S21440452025AA0B990C9804F023FA00287FF468AB70
S214404530279CC84620E4CDF81CB0002400254946F8
S21440454000E03146E20842EA4572E80804F0070314
S21440455005461446303354EA050201F8013C01F1A1
S214404560FF36EED1079AD2077FF5F3AD302B3FF4F6
S214404570F0AD0239302306F8013CA9EB01030E9357
S2144045800E46FFF77BBB1F99002940F32E82129BF5
S214404590139A9342A8BF1346002B1F460DDD269B59
S2144045A0C8F8006001333C44072B2794C8F80470D1
S2144045B0269300F31F8308F10808129B002FA8BF1C
S2144045C0DB1B002B1F4640F3D680102F269B314D19
S2144045D040F3ED8142462146B0464FF0100B2E4642
S2144045E00C9C0B9D04E00832103F102F40F3DB81FB
S2144045F001331031072B2791269382E84008F2DDDD
S21440460025AA2946204604F0B3F900287FF4F8AAE4
S2144046102799269B4A46E7E70A9B0E934E46FFF7A6
S2144046202DBB002D08BF0A2CC0F08F804E4620467A
S21440463029460A220023FEF7FBFE303206F8012DFB
S2144046402046294600230A22FEF7F2FE04460D467F
S21440465054EA0503EBD1A9EB06030E93FFF70EBB16
S21440466025AA0B990C9804F083F900287FF4C8AA71
S2144046709DF87770279CC846FFF75EBB5E1E002EEF
S2144046807FF70AAF102E034D22DD22464FF0100B67
S2144046900C9C06E048994000103E102E08F1080891
S2144046A015DD01371032072F2792269788E8200815
S2144046B0F2DD25AA0B99204604F05AF900287FF42B
S2144046C09FAA103E102E279A269FC846E9DC14461D
S2144046D001373444072F2794269788E860007FF7F1
S2144046E0D9AE25AA0B990C9804F042F900287FF41D
S2144046F087AA279C269FC846CEE60F9A146813467C
S2144047000433E5170F9322462B46FAE404321C681E
S2144047100F9201230025FFF794BA1C6804330F93C9
S214404720002521E40F990A4604320C680F920025B2
S214404730FFF787BA144601333444072B2794269351
S21440474088E860007FF768ABB3E6DDF81CB0CDF8CC
S2144047501CB042AE3034012306F8414D0E93FFF7AD
S2144047608DBA25AA0B990C9804F002F900287FF41C
S21440477047AA279CC8461F9A139B9A4244DB079B2E
S214404780D90741D4139B12989A1A1D1A9542A8BF6E
S2144047901546002D0EDD2699C8F804500131064412
S2144047A02C440729C8F800602794269100F33B82E2
S2144047B008F10808002DACBF561B1646002E7FF7A2
S2144047C02DAB102E269BB04DB5DD22461027DDF8CA
S2144047D030B00B9C04E008F10808103E102EA9DD0E
S2144047E001331032072B2792269388E8A000F2DD8B
S2144047F025AA2146584604F0BBF800287FF400AAB4
S214404800279A269BC846E8E7269B19981A99C8F81F
S214404810001001330444072B2794C8F8040026935D
S21440482000F3F58108F10808ACE7079BDA073FF587
S214404830FEAD013701340123072F27942697C8F889
S2144048400060C8F804307FF725AE4AE725AA0B99E2
S2144048500C9804F08DF800287FF4D2A9279C269F58
S214404860C846F2E525AA0B990C9804F081F8002872
S2144048707FF4C6A9279C269FC846F5E54E46FFF717
S214404880FDB925AA0B990C9804F072F800287FF41D
S214404890B7A9279CC846FFF772BA159C2246204601
S2144048A0149C2346214604F031FF002840F08682BF
S2144048B00A9B0133119B23F020030E9300F0E28104
S2144048C0472B00F01E814BF480730793149B1F1EEA
S2144048D0159B0893BBBF3B4603F1004700232D239F
S2144048E01093119B662B00F0BB81462B00F0DF80B7
S2144048F00E9B089A452B0CBF0A9B0A9D23A820A90D
S21440490008BF5D1C049003911FA802213B460290FD
S214404910019500910C9801F0A3FA119B672B06466F
S21440492040F0E0811BF0010F00F046827419169AA1
S2144049300898179B394604F0B7FE002840F065817A
S214404940239BA34206D230215A1C23921970239BE4
S2144049509C42F9D89B1B13930E9B472B00F0E98093
S214404960119B652B40F3CD81119B662B1F9B1293A9
S21440497000F09E81139B129A1946914200F38A8159
S2144049801BF0010F40F0138222EAE273089367237C
S2144049900E921193109B002B40F0C4800A939DF812
S2144049A07770FFF773B935460C4646469046013356
S2144049B03C44072B2794269388E8A0003FF7D1AEC7
S2144049C008F10808D7E60F9A136804320F92099A3E
S2144049D01A60FFF76AB825AA0B990C9803F0C8FF2F
S2144049E000287FF40DA9C8468DE4269B274AC8F8C0
S2144049F00020013301340122072B27942693C8F860
S214404A00042072DC08F1080829B9139B1BB9079BE0
S214404A10D8077FF503AA269B19981A9AC8F800204B
S214404A20013302462244072B2792C8F804002693F7
S214404A3000F38D8108F108080029C0F265811399BA
S214404A40C8F8006001338C18072B27942693C8F8C3
S214404A5004107FF7E1A92CE50F9A09991368CD1742
S214404A600846043229460F92C3E90001FFF71DB8F5
S214404A7025AA0B990C9803F07BFF00287FF4C0A86A
S214404A80279CC84658E400BF4899400034994000E7
S214404A9040210C9802F050FE0B9A106010610028DE
S214404AA000F0F2810B9A40235361FEF7EEBF23A835
S214404AB020A90A9C049003911FA803210290089AFB
S214404AC001943B4600910C9801F0CAF925460646EB
S214404AD0119B462B06EB05047FF429AF3378302B29
S214404AE000F078811F9D2C4421E725AA0B990C984D
S214404AF003F03EFF00287FF483A81F99279CC846F2
S214404B0082E70A9B002B08BF01230A93DBE6304668
S214404B100A94FEF735FF0F950E90CDF81CB003466D
S214404B20FFF7F9B92D2700238DF877700A93FFF722
S214404B30AEB81F9B12931A46033304DB0A9B1946F2
S214404B409142BFF617AF119B023B11939DF844303C
S214404B508DF88430129B013B002B1F93BDBF129BE8
S214404B60C3F101032D222B22092B8DF8852040F31B
S214404B7016810DF193042046AB4D00E0104685FBB0
S214404B800312D917C1EBA20101EB8102A3EB42024B
S214404B903032092900F8012C0B4600F1FF32EDDCDB
S214404BA030330238D9B2844202F8011C40F26581A3
S214404BB00DF18600134601E013F8011B00F8011BB7
S214404BC0A342F9D101339B1A0DF18602134421AA60
S214404BD09B1A139A1B93012A13440E9340F3198190
S214404BE00E9B199A13440E9323EAE373089300230B
S214404BF01293CFE625AA0B990C9803F0B9FE00282D
S214404C007EF4FEAF279CC846D7E42346A2E625AAF4
S214404C100B990C9803F0ACFE00287EF4F1AF1F9A77
S214404C20279CC846AEE525AA0B990C9803F0A0FE33
S214404C3000287EF4E5AF1F9A139B279C9A1AC84615
S214404C40B8E50A9B1296062B28BF06230A963746D7
S214404C5008930F95CDF81CB00E93744EFFF716B818
S214404C6023A820A90A9D049003911FA8032102901F
S214404C70089A01953B4600910C9801F0F1F80646DB
S214404C8044192BE706230A931DE62D278DF87770E7
S214404C90FFF7CDBA199A139B1344129A0E93002A23
S214404CA040F3B08023EAE37308936723119371E6D9
S214404CB0002B40F3C3800A9A002A40F099801BF0EC
S214404CC0010F40F0958008930E9363E60A9B089385
S214404CD00E930A900F95CDF81CB012909DF8777001
S214404CE0FEF7D4BF119B472B7FF420AE1BF0010F7D
S214404CF07FF4EEAE239B9B1B13930E9B472B3FF4F8
S214404D0018AF1F9B129321E74F421031484D2FDAC0
S214404D101024DDF830B004E008F10808103F102FEA
S214404D2026DD01331032072B27922693C8F8005011
S214404D30C8F80440F0DD25AA0B99584603F018FE43
S214404D4000287EF45DAF279A269BC846E6E725AA4C
S214404D500B990C9803F00CFE00287EF451AF1F9977
S214404D60279A269BC84667E600200A90FEF7D0BEE4
S214404D7001333A44072B88E8A0002792269308F18F
S214404D8008087FF75CAE25AA0B990C9803F0F0FD57
S214404D9000287EF435AF279A269BC8464FE6303328
S214404DA030228DF887308DF8862022AB0FE7129B95
S214404DB0199A13440E9375E7239BCBE5149B1D4E1F
S214404DC0002BB6BF2D279DF877708DF877701A4B5D
S214404DD0FFF72FBA169A0898179B394604F064FCDA
S214404DE000287FF47FAEC5F101051F952C449EE553
S214404DF0129B199A13440A9A1A4422EAE2730E92B4
S214404E000893C7E5129B0E9AC3F101031A44134652
S214404E10D0E71BF0010312937FF4E2AE0E9B23EA29
S214404E20E3730893B6E500BF676666662C99400054
S214404E304899400000994000FC9840000A9B13B9EE
S214404E401BF0010F02D0199B0133D4E701233AE748
S214404E500F9D9AF80130286840EAE0700A9028468C
S214404E600430A2460F90FEF751BE8DF87710FFF73C
S214404E7067B88DF87710FFF715BA0DF18603A6E6EA
S214404E808DF87710FFF7EBB80C9A0C2313604FF0B1
S214404E90FF330993FEF7BDBE8DF87710FFF79AB93A
S214404EA08DF87710FFF776B98DF87710FFF759B978
S214404EB08DF87710FFF712B92DE9F84F4B6E9C042A
S214404EC093462FD59368126853B30E46074602F1B1
S214404ED0080919E920045FEA9A0817D0043D00241F
S214404EE001E0A04510D0324655F8041F384602F07F
S214404EF07BF8431C04F10104F3D10023CBF80830BF
S214404F00CBF80430BDE8F88FDBF808302AF0030A07
S214404F10A3EB0A03CBF8083009F10809002BD8D1D7
S214404F200020EAE702F0CAF90023CBF80830CBF8B5
S214404F300430BDE8F88F00BF2DE9F04FADB01D46F8
S214404F408B4690460793069018B1836B002B00F073
S214404F50F380DBF86430BBF90C00DF0781B202D483
S214404F608E0540F1FC808C040AD4DBF8643040F4B3
S214404F70005123F40053ABF80C10CBF8643089B2E0
S214404F80080740F1B380DBF81030002B00F0AE800D
S214404F9001F01A030A2B00F0B58000230DF17009CA
S214404FA00B93119310930393CDF83C90CA46CDF8DB
S214404FB010B098F800304446FBB1252B02D11CE0D7
S214404FC0252B03D014F8013F002BF9D1A4EB08059C
S214404FD09DB1109B119ACAF8008001332A44072BD2
S214404FE0CAF80450119210937ADD002A40F0B0843B
S214404FF0039B10922B44CA4603932378002B00F061
S214405000E08300204FF000038DF8373004F10108AC
S21440501062780546064603464FF0FF3408F101081D
S214405020A2F12001582900F2DE82DFE811F02102C9
S214405030DC02DC022902DC02DC02DC02DC02DC02EE
S214405040DC0289029502DC02A200BD02DC029F015E
S214405050A401A401A401A401A401A401A401A401E3
S214405060A401DC02DC02DC02DC02DC02DC02DC0244
S214405070DC02DC02DC02B201DC02DC02DC02DC0226
S214405080DC02DC02DC02DC02DC02DC029701DC0231
S214405090DC02DC02DC02DC029B01DC02DC025302A6
S2144050A0DC02DC02DC02DC02DC02DC02DC02DC02CB
S2144050B0DC02DC025A021B02DC02DC02DC026E026C
S2144050C01B02DC02DC027302DC02F50182010902EB
S2144050D0D702DC029A02DC02A700DC02DC022E02C7
S2144050E00AF1080A039B2B44039386E75946069821
S2144050F000F0ACFD18BBBBF80C1001F01A030A2BED
S2144051007FF44BAFBBF90E30002BFFF646AFDBF813
S2144051106430DB0705D48F0503D4DBF8580002F073
S21440512091FA2B4642465946069800F04DFD0390AC
S21440513003982DB0BDE8F08F01F0B4FE09E7DBF828
S2144051406430D90704D4BBF80C309A0540F1AA84E1
S2144051504FF0FF33039303982DB0BDE8F08FDBF894
S214405160580002F06DFABBF90C0081B2FBE67642BD
S214405170079243F0040398F800204FE708969E06EF
S21440518000F150840799DD060A4600F1EF83580681
S21440519040F1EC830E8804310027012207914FF03E
S2144051A000018DF837100025611C00F0168123F0B1
S2144051B08001029156EA070140F01481002C40F02D
S2144051C05C83002A40F0B78313F00103059300F098
S2144051D057840DF1B00B30230BF8413D059BA3429D
S2144051E0B8BF234601930DB101330193029B13F0E0
S2144051F00203099302D0019B02330193029B13F0F2
S21440520084030A9340F01782089B019A9D1A002D4A
S21440521040F31182102D40F39084109B119AC44E97
S214405220D6461027A2461946069C07E001F1020C16
S2144052300EF1080E0146103D102D11DD481C1032AF
S214405240072811928EE8C0001090EFDD002A40F04B
S214405250E481103D102D11464FF0010CCE46EDDC9A
S21440526054466146F2462A4407291192CAF800601D
S214405270CAF80450109100F3EC829DF837500AF1BA
S214405280080A481C002D40F0DE81099B002B00F0E8
S214405290F88102320EA902230728119210908AE85C
S2144052A00A0040F3EA81002A40F08C830A9B802B58
S2144052B04FF001001146CA4640F0E781089B019D29
S2144052C05E1B002E40F3E181102E9A4D40F3508431
S2144052D0D4461027A246069C07E001F1020E0CF1C8
S2144052E0080C0146103E102E11DD481C10320728CF
S2144052F011928CE8A0001090EFDD002A40F09D82CD
S214405300103E102E4FF0010E1146CC46EDDC5446B2
S214405310E2463244BEF1070F11928AE86000CDF8AB
S21440532040E000F369830AF1080A0EF10100714675
S214405330ABE1089613F0200240F08C8313F0100186
S21440534040F01A8313F0400200F0168307980A468E
S2144053500146043106880791002720E7089643F067
S2144053601003E7E7089643F0100308E743F080038E
S21440537098F8002052E6A2F13001002618F8012BDA
S21440538006EB860601EB4606A2F130010929F5D95F
S21440539046E60896002840F0088443F010039E0630
S2144053A000F14C83DD0600F1F382580640F1F082AE
S2144053B0079DB5F900602A46F7170432304639464D
S2144053C00792002871F10002C0F25D83611C9DF8CF
S2144053D037504FF001027FF4EAAE56EA070100F07C
S2144053E04D820293012A00F08C82022A40F05C82B1
S2144053F00B98CB46330906F00F0143EA07733A0988
S2144054001E461746435C0BF8013D56EA0703F1D1AA
S214405410A9EB0B030593E1E6002840F0C08399060C
S21440542000F16783DA0600F1F1805B0640F1EE801A
S214405430079A136804320792BDF80C201A80B8E524
S21440544007983D4A08960B92066878223021043029
S2144054508DF8392043F00203079000278DF8381066
S21440546002229CE60896002899D08DF8375096E799
S21440547098F80020002D7FF4D1AD01202025CDE501
S21440548043F0010398F80020C8E50896002840F04D
S214405490938329490B919F0600F1E8820798DE0620
S2144054A0014600F170825D0640F16D820431068847
S2144054B007910027D80740F1228256EA070100F0FC
S2144054C01E8230218DF8392043F002038DF83810C3
S2144054D0022264E60896002840F06B8317490B9139
S2144054E0D9E7079908960A688DF848204FF00000DB
S2144054F00A468DF837000432012001900792059045
S2144055000DF1480B0293002470E643F0400398F8F0
S214405510002083E598F800206C2A03BF98F8012005
S21440552043F0200308F1010843F0100376E500BF7E
S21440553058994000689940001899400004994000E6
S21440554007990E680A46002E02F10402FFF60FAED7
S214405550079298F8002061E598F8002001202B2556
S2144055605CE507990896D1F800B04FF000028DF838
S21440557037200E1DBBF1000F00F0E582671C00F0DF
S214405580C482224600215846019302F0A1FB019BAB
S214405590002800F0E582A0EB0B02059207960293E6
S2144055A09DF83750002419E698F800202A2A08F17A
S2144055B0010700F0E982A2F130010929B8464FF010
S2144055C000043FF62DAD18F8012B04EB840401EBE4
S2144055D04404A2F130010929F5D921E543F020031E
S2144055E098F800201AE50896002840F0DB82002A4A
S2144055F000F0E78001218DF848204FF0000201912D
S2144056008DF8372005910DF1480B7BE7079A136814
S21440561004320792039A1A60CBE40FAA04992046F4
S214405620FFF74AFC002840F039811099119A01F1A1
S214405630010CCE46FFE51099119A481C9DF837504C
S214405640002D3FF422AE01320DF137050121072827
S21440565011921090CAF80050CAF8041040F308811E
S214405660002A40F0BC81099B002B3FF41FAE0EABD6
S214405670022208461C931D92CA4601460AF1080AB1
S21440568001300A9B802B3FF419AE059BE41A002C90
S2144056902EDD102CB34D1EDDD6461026069FDDF8B7
S2144056A010A006E0881C0EF1080E1946103C102C7F
S2144056B010DD4B1C1032072B11928EE860001093C1
S2144056C0F0DD002A65D1103C102C4FF00100114649
S2144056D0CE46EEDCF246224407281192CAF8005025
S2144056E0CAF80440109000F385800AF1080A013099
S2144056F00599CAF800B00A4407281192CAF804105F
S214405700109040F38280002A40F01881029B10924D
S214405710580735D5089B01995C1A002C40F3E78062
S214405720CA46102C40F3188210998F4E069FDDF81B
S21440573010B0102506E0881C0AF1080A1946103CED
S214405740102C11DD4B1C1032072B1192CAF800604A
S214405750CAF804501093EEDD42BB103C102C4FF0BC
S21440576001001146CA46EDDC224407281192CAF8C9
S2144057700060CAF80440109051DD002A40F09B813A
S214405780039B089A01998A42ACBF9B185B18039307
S2144057904EE00FAA51463846FFF78EFB002840F0F1
S2144057A03F811099119A481CCE467FE70FAA59466A
S2144057B03846FFF781FB60B91099119A481CCA46D3
S2144057C0BDE7119BDDF810B0002B40F0D4810023DC
S2144057D01093DBF8643013F0010FBBF80C3002D1A5
S2144057E09A0540F1DE805B063FF5B2AC03982DB0DB
S2144057F0BDE8F08F002A40F00681059A1D920123ED
S2144058001192CDF870B01093CA460AF1080A029B6E
S214405810590704D5089B01995C1A002C81DC039B30
S214405820089901988142ACBF5B181B18039372BB62
S21440583000231093CA46FFF7BCBB0FAA0499204624
S214405840FFF73AFB50BB1099119A01F1010ECC4676
S21440585048E5002A40F040819DF83710002900F0C6
S2144058601B8101220DF1370110461D921C91CA463C
S21440587001460AF1080A013007E5029B012A00F0BA
S2144058809880022A0DD1029300260027B0E50FAA81
S21440589004990698FFF710FB0028C9D0DDF810B031
S2144058A097E7029300260027494600E05946F2084B
S2144058B042EA4772F80806F00703074616463033B2
